:020000040000fa
:080000000002040000000000f2
:020000040000fa
:1000080046030000460300004603000046030000c4
:1000180046030000460300004603000046030000b4
:1000280046030000460300004603000046030000a4
:100038004603000046030000460300003ee30000bc
:1000480016e300004603000046030000fcaf000072
:100058004603000046030000460300004603000074
:100068004603000046030000460300004603000064
:10007800ce8f000046030000460300004603000040
:100088004603000046030000460300004603000044
:10009800460300004603000068b000004603000065
:1000a8004603000046030000460300004603000024
:1000b8004603000046030000460300004603000014
:1000c8004603000046030000460300004603000004
:1000d80046030000460300004603000046030000f4
:1000e80046030000460300004603000046030000e4
:1000f80046030000460300004603000046030000d4
:1001080046030000460300004603000046030000c3
:1001180046030000460300004603000046030000b3
:1001280046030000d2af000046030000460300006b
:100138004603000046030000460300004603000093
:100148004603000046030000460300004603000083
:100158004603000046030000460300004603000073
:1001680046030000b6b00000f6b0000046030000e9
:100178004603000046030000cc00000046030000d0
:10018800bcb200004603000046030000460300001e
:100198004603000046030000460300004603000033
:1001a8004603000046030000460300004603000023
:1001b8004603000046030000460300004603000013
:1001c8004603000046030000460300004603000003
:1001d80046030000460300004603000046030000f3
:1001e80046030000460300004603000046030000e3
:0801f80046030000460300006d
:020000040000fa
:1002080046030000460300004603000046030000c2
:1002180046030000460300004603000046030000b2
:1002280046030000460300004603000046030000a2
:100238004603000046030000460300003ee30000ba
:1002480016e300004603000046030000fcaf000070
:100258004603000046030000460300004603000072
:100268004603000046030000460300004603000062
:10027800ce8f00004603000046030000460300003e
:100288004603000046030000460300004603000042
:10029800460300004603000068b000004603000063
:1002a8004603000046030000460300004603000022
:1002b8004603000046030000460300004603000012
:1002c8004603000046030000460300004603000002
:1002d80046030000460300004603000046030000f2
:1002e80046030000460300004603000046030000e2
:1002f80046030000460300004603000046030000d2
:1003080046030000460300004603000046030000c1
:1003180046030000460300004603000046030000b1
:1003280046030000d2af0000460300004603000069
:100338004603000046030000460300004603000091
:100348004603000046030000460300004603000081
:100358004603000046030000460300004603000071
:1003680046030000b6b00000f6b0000046030000e7
:100378004603000046030000cc00000046030000ce
:10038800bcb200004603000046030000460300001c
:100398004603000046030000460300004603000031
:1003a8004603000046030000460300004603000021
:1003b8004603000046030000460300004603000011
:1003c8004603000046030000460300004603000001
:1003d80046030000460300004603000046030000f1
:1003e80046030000460300004603000046030000e1
:0803f80046030000460300006b
:020000040000fa
:10040000eff922000eff27000e0188000000000017
:10041000000020000000e000020032000001200087
:10042000200288000c000700808a2d0001002000b7
:100430000f000700000020000000e0000200320072
:10044000000002000000000034260200000000004e
:100450000040da000000fe00a06120000000e00083
:1004600002003200002020009001880000000600f9
:10047000a1028800800078000000eb001a0037001d
:10048000e280400054a0b4009101ba00e280400034
:1004900054a0b4009102ba00e280400054a0b4001d
:1004a0000002eb00472bde00f507b200a601880032
:1004b000602ce10008003a000049eb000201e8006e
:1004c000020039003420ec0002f0a0008301e900b2
:1004d000f9ff3e00040037006128e100010032000e
:1004e0000082eb00040007001101ba000200e000e6
:1004f000e3ff3a000000060004d0a300e20f490029
:100500001c003900810278003549ba000201e80078
:10051000020039003420ec0002f0a0008301e90061
:100520000f0032002549ba000201e800020039003c
:100530003420ec0002f0a0008301e9000800320042
:100540000400e0000600320015c9ba000201e8000c
:10055000020039003420ec0002f0a0008301e90021
:100560008180e80054a0b4000300e000e2ff3a00fc
:10057000000006009102ba00055978008301e900e5
:10058000f7ff3200c82ade00055978008301e90030
:10059000f3ff32000400e000f1ff320011d9ba008d
:1005a000eeff37003a1f040000000000421f040065
:1005b000000000004a1f04000000000000000400ca
:1005c000000000000002040000000000843f04005e
:1005d00000000000ca440400000000006440040061
:1005e000000000005c4d04000000000056470400bd
:1005f00000000000ee45040000000000a8480400d0
:1006000000000000e249040000000000764b0400f6
:1006100000000000f2510400000000005a530400e2
:1006200000000000f853040000000000ea3f04004e
:10063000000000005e540400000000000e440400ae
:1006400000000000a841040000000000ba400400bf
:10065000000000001648040000000000504804009c
:10066000000000007248040000000000ba540400ba
:10067000000000001a56040000000000aab60400a2
:1006800000000000aab70400000000000040da00eb
:100690000000fe000a00fa00e20f500022003e00b7
:1006a000e43f8100e10f5200060032008723200062
:1006b000462320002423200005232000e08f530040
:1006c00004003a0087222000462220002422200035
:1006d00005222000000028001500600003003a00f9
:1006e000800b780007002800958a730005402000e1
:1006f0009482620001003a0014a0a00082027800f7
:1007000006003700940378000710b200fdff3200a6
:10071000b103fb00070b78008502e900e08f52006f
:10072000f8ff3a000800370034002000c0bf9f00e7
:10073000e2bf9f00b4bf9f00d1bf9f006a805700f7
:10074000c70907006fb99700020078000080fa001f
:1007500000000600889fbe0080047800f03f810002
:10076000e00f500004003a000e0007000084eb0088
:10077000e00f500008003500f83f8100e08f540082
:10078000050032000900440006000700e00f500099
:1007900001003d000084eb00080078004f04be001b
:1007a00000000600e00f500004003a000480220020
:1007b000f43f890000027800060037000082eb0059
:1007c000e5f92200850f500002003e00f03f89004d
:1007d0000002eb0004007800000006000000fa00b0
:1007e00014118000044278006142620004407800e5
:1007f0000080fa00000006000000fa00941180005a
:100800000442780061426200044078000080fa00ef
:10081000000006000000fa009412800004427800f4
:1008200061426200044078000080fa000000060087
:100830000000fa00941580000442780061426200d2
:10084000044078000080fa00000006000000fa0072
:100850000411800066026200e60f520002003a00b6
:10086000341180000300370035118000f40f2000a0
:1008700004826200040078000080fa000000060094
:100880000000fa008411800066026200e60f520048
:1008900002003a00b411800003003700b511800057
:1008a000f40f200004826200040078000080fa0047
:1008b000000006000000fa00841280006602620058
:1008c000e60f520002003a00b41280000300370025
:1008d000b5128000f40f200004826200040078004a
:1008e0000080fa00000006000000fa008415800075
:1008f00066026200e60f520002003a00b415800062
:1009000003003700b5158000f40f20000482620058
:10091000040078000080fa00000006008f1fd1005c
:10092000990207008f87e9000000e0000000060040
:10093000809feb00940207008f87e9000000e00031
:10094000000006002800fa00889fbe008a9fbe00b3
:100950008c9fbe0003866b008f0007006400e100df
:10096000440032006408e1004a0032006100e10006
:10097000460032006108e10049003200ec06470001
:100980006000b8003d02be003d03be00f486570083
:100990006011b8003d04be003d05be007d0320008f
:1009a0000b0037000000a0008d06e90013003200a4
:1009b0000402420085824a0006034b0087834b00f5
:1009c0000000400081804800020149008381490005
:1009d0000802520089825a000a035b008b835b0085
:1009e000f0ff3b000802420089824a000a034b00e4
:1009f0008b834b008d06e900edff3a008482720084
:100a000086827200f707b20087827200010032000e
:100a1000150020001e0490003e0b900006035400b9
:100a2000e63fb0000368a300070032000000a70003
:100a30000500a0008301d1000281d3008180d30092
:100a40000080d3000603e8008301d1000281d300b7
:100a50008180d3000080d3000002eb000482d2002a
:100a60002100070003f0a1000cf0a70003f0a00094
:100a70005d003700640247006408e100570032005f
:100a80003400be003401be00f6ff37006108e1000b
:100a9000520032006011b8006000b800f1ff37006a
:100aa00003ff270002002000fbff3700839f680040
:100ab0000100e00002003d0060001000e08018002e
:100ac0000300e00002003d0060011100e081190018
:100ad000420107004f00e00002003b0060001000f0
:100ae000e0801800000006001800200057002000d9
:100af000080453000d003d000600200097fc2f0065
:100b00000740e1001e003400848272006102600030
:100b10008301d1000281d3008180d3000080d30003
:100b20000804e800f8ff3a00470020006104600074
:100b300005047400040464000d00320061004000ec
:100b4000e080480060014900e081490003b8a50049
:100b5000070032000603e8006538e10004003a00af
:100b60008301d1000281d3008180d3000080d300b3
:100b7000f87f20000830e10003003500080378000a
:100b80006000b8006011b8004433dd00f300b2002b
:100b90008301730000000600680447000294be0051
:100ba0000094be00fc0447008694be008494be00fe
:100bb000090078003d020700080078003b020700aa
:100bc00099007800814f70000b003b000800be00c8
:100bd000160207004f00b10003003700f3ff2700a3
:100be000f2ff2f006110b9004f06be004f05be0096
:100bf0004f04be000080fa00000006001400200030
:100c0000510237001400fa00889fbe008a9fbe0080
:100c10008c9fbe000004be000205be0068004700b5
:100c20000a90be000890be00200207000070a700d6
:100c30000bf0a100304320009e0290008082520001
:100c4000b0fe2f000028e10011003d00b0fc2f0095
:100c50000028e100150034001e0990008e08900065
:100c60007e0090000501b0000201d1008180d30018
:100c70000080d3008502e800fbff3a000b00e00093
:100c8000d9ff3b0060001000e0801800d6ff37005d
:100c9000f0ff2f00f1ff27000b00e000d2ff3b0028
:100ca0000100280000002000cfff37006000b800de
:100cb000cdff37004f89de00820178003d0237000a
:100cc0006011b8004b0237002800fa00889fbe0070
:100cd0008a9fbe008c9fbe0003866b00aeff07009c
:100ce0000028a30064003a000128a30067003a002e
:100cf0000008a30062003a000108a30065003a0062
:100d00001e009000be08900081064000ed3fb1003b
:100d1000f4805700ee019000111ab8008e0990007f
:100d2000311bb8009e099000311cb800511db8005d
:100d3000f485570046000700fe0190003a000700c6
:100d40008b85e8003e0007008e09900040000700f8
:100d5000ee019000340007008b85e80038000700a2
:100d60008e099000400007009e0990001b18b800f3
:100d7000890440000a854800fe0190003400070005
:100d80008b85e80038000700ee0190003000070076
:100d90008e0990001b18b800890440000a8548009d
:100da0000a98a30008003a000402420085824a0023
:100db00006034b0087834b0008044c0089844c00d9
:100dc0000a054d008d06e9008482720085027300d9
:100dd0004c3add008502720001003200150020004f
:100de000443ade001400b2004538de00cb45dd0099
:100df0000b007000c540de00cb4ddd008b80700025
:100e00004549de00cb55dd000b017100c551de0008
:100e10000d03780034ff070003f0a1000cf0a700d9
:100e200003f0a00070ff37001b18b80085024000d7
:100e300006834800e0834b0060044c000700370045
:100e40001b18b8000603400087834800faff3700ec
:100e50001b18b8008703400008844800e0844c0059
:100e600060054d00000006001b18b8000804400093
:100e700089844800faff37000108a30057ff3a00b1
:100e80005800be005801be00e3ff37000008a30071
:100e900052ff3a0009047800f9ff37001400fa0005
:100ea000889fbe008a9fbe008c9fbe000004be00cb
:100eb0000205be00680047000a90be000890be0010
:100ec0007a0107000078a3003d003a006100e100cc
:100ed0003c0032000bf8a3003d003a006400e10042
:100ee000380032006c0347001e009000f03fb10054
:100ef0003602be001603be000008a3000400320044
:100f00000402420085824a0006034b0087834b009f
:100f1000100798008e1f78006000b8006011b800bc
:100f20005c0020006d0120006e00200002003700f0
:100f30008d86e900fc0020000402420085824a0000
:100f400006034b0087834b00000440008184480067
:100f500002054900838549006060e1001d60ad0025
:100f60000804520089845a000a055b008b855b00e7
:100f7000030039001e60ad000802be000a03be0077
:100f80000c06e900ecff3b000e87e900e8ff3b00a0
:100f90004f07780061026000840278008301d1006d
:100fa0000281d3008180d3000080d3001e03900013
:100fb00041b3de00f63fb000cbfe07000aff37006a
:100fc0000b30a0000800be000a01be0006ff37007b
:100fd00012022000128c880000ff37006022b80047
:100fe000060220000000d0008180d2000482d200de
:100ff0008582d2000000a0000202520083825a00c3
:10100000030031000202420083824a000000a10076
:101010000603e900f3ff3a0000000600889fbe00c7
:101020008a9fbe003004be002005be0004044400b8
:1010300085844c0006054d0087854d000898be004c
:101040000a90be000440e10005c8e10006d0e100be
:1010500007d8e10002003100680040001008e800f5
:101060004f05be004f04be00000006001000fa004d
:10107000889fbe008a9fbe00110020000605be00aa
:101080000404be003002be002003be00c4b79f00af
:10109000d5b79f00e6b79f00f7b79f000802520040
:1010a00089825a000a035b008b835b0084bf9f0028
:1010b00095bf9f00a6bf9f00b7bf9f000498be00ca
:1010c0000698be004fb29700dfb297006fb397004b
:1010d000ffb397000820e10009a8e1000ab0e10091
:1010e0000bb8e100010039008000eb004f05be00a5
:1010f000108810004f04be000080fa0000000600b7
:101100001400fa00889fbe008a9fbe008c9fbe001c
:101110000006eb003e000700ccb79f00bcb79f0065
:10112000acb79f009cb79f008cb79f000605be0020
:101130000404be000d0420004fb39700bfb2970017
:10114000860343002fb29700e00f530004003d00d8
:101150003d0007000f004000b0ff0700030037000c
:10116000390007000f004000c0ff0700cfb2970012
:1011700095bf9f00e08f5200090035002b0007004b
:1011800014002000050020006033b8000000720049
:101190008180720002017300838173001c000700cc
:1011a0000c06e8008d0f5600e3ff3a001fba9700c7
:1011b000e00f520005003d000802be000a03be0019
:1011c00000fe2f000f00400094ff07004faa970079
:1011d000e00f520008003a000fb497009fb4970048
:1011e0002fb59700bfb59700d8b79f00e9b79f000c
:1011f000fab79f008bbf9f000c0007004f06be0090
:101200004f05be004f04be000080fa00000006003b
:10121000010007000000060090b79f00a1b79f00e3
:10122000b2b79f00c3b79f0000000600010007008f
:10123000000006001fb09700afb097003fb19700c5
:10124000cfb19700000006004f2bde00f9ff07002a
:1012500086837300858242004f23de00a7b79f007c
:10126000868272000402420095b79f00ffaa970091
:101270004f2bde00858242000602720084b79f0079
:101280006faa97004f23de0004024200868272009c
:10129000f5af9f004f18de0000027200e5ff070067
:1012a000e4af9f0000004000818048000201490037
:1012b000838149000802be000a03be00d6ff070072
:1012c00000fe2f0000000600881f78001800200094
:1012d000881f78008aff07008f87e9004f04780095
:1012e00000000600889fbe008a9fbe008c1f780009
:1012f0000006eb00e00f5000e08f5800e00f5900af
:10130000e08f590007003d006044b8006055b80008
:101310001c0020000000540081805c0002015d0080
:1013200083815d00e00f5200e08f5a00e00f5b0008
:10133000e08f5b0007003d006044b8006055b800d6
:101340000c00a2000402540085825c0006035d00cc
:1013500087835d00da000700e00f560006003200c8
:101360006022b8006033b8000000520081805a004b
:1013700002015b0083815b004f0678004f05be00d1
:101380004f04be0000000600889fbe008a9fbe007a
:101390008c9fbe000404be000605be00809fbe00f8
:1013a000829fbe002f000700040678000800be00e0
:1013b0000a01be002b000700840678004f03be0020
:1013c0004f02be008d4f76007fb0970013003300b0
:1013d000f0ff2f008b8f6b0006003b000d066600b0
:1013e0000c00a7000a00370007f0a600100020003c
:1013f0000a003700880f5200898f5a008a0f5b005d
:101400008b8f5b00030039001000200001003e00bc
:101410000000200007f0a7000000ea004f06be0011
:101420004f05be004f04be0000000600e4824000ed
:101430001078a30007003200640240001178a30076
:101440003400be001401be00040032000330a700c7
:10145000000006003500be001501be000330a000ec
:101460000000060005ff270005826100070032002a
:101470000428e100010032002400050006000700f6
:1014800001003a00440005000408050002000700be
:10149000f9ff3a00140005006f82610081027000bc
:1014a000850271008502720000000600800078004d
:1014b0005002be005003be004439de00f700b20007
:1014c000f37f200003016100090032000218e100ef
:1014d00016003a0085017200830173008381730056
:1014e0000008200015003a004000200013003700db
:1014f00085017200830173008381730005003a0047
:1015000004a8be0006a8be00100020000b00370093
:101510000201e9000402420085824a0006034b00f2
:1015200087834b000748a300f9ff32000740a00063
:1015300004a8be0006a8be0020002000800098007d
:101540009200980000000600889fbe008a9fbe009f
:10155000841f7800520007004f007800110033000c
:10156000f0ff2f00838f6c0006003b000405650030
:101570000a00a7000800370009f0a60010002000ac
:1015800008003700820f5400838f5c00030039008d
:101590001000200001003e000000200009f0a7001c
:1015a0000000ea004f05be004f04be000000e0004e
:1015b00000000600881f7800030478000300e000a4
:1015c00007003d0060001000e08018006001190075
:1015d000e081190002003b0001f02d0003003700fc
:1015e0000400070008f0a70003f0a0004f047800f3
:1015f00000000600889fbe00008270000402710097
:10160000048271002400320036432000c50020000f
:101610008383cf000a0039000541b1008283cf00e7
:10162000070039000541b1008183cf000400390073
:101630000541b1008083cf00010039000541b100b0
:1016400085c353006022b800120032000a003b003c
:1016500084827200610260008301d1000281d300a4
:101660008180d3000080d3000603e8008743e800b0
:10167000f7ff3a0007003700000040008180480073
:1016800002014900838149000603e9008743e9001c
:10169000f9ff3a0014fd07004f04be0000000600e9
:1016a0000004be00280007000003be000405be00c1
:1016b0000200be0024000700844f750000000600f1
:1016c000889fbe008a9fbe008c9fbe000404b800a5
:1016d0000506b8008904460060854e000606b8007d
:1016e0000a054600e0854e000706b8008b05460057
:1016f000040eb800890446000a854e00e0854d00be
:10170000050eb8000a0546008b854e00060eb8008f
:101710008b0546000416b8000a0546008b854e006e
:101720000516b8008b054600041eb8008b05460060
:101730000800be000a01be004f06be004f05be00f5
:101740004f04be0000000600c70ade00f107b20029
:10175000f50fb20008003200e1cf42000200320073
:101760000170a00024000500810f7000010032000c
:101770000408050044000500810f700002003a00d3
:10178000140005008502e9000000400081c0480007
:10179000fcff3b000170a0002400050006c2b3005e
:1017a0000002780004007800b042780086cf520032
:1017b000fbff3200e9cf5200f9ff3200d6c2b3007e
:1017c00086cf520003003a000002780016c0b30032
:1017d000050037000043eb00b7c2b30087cf5200cb
:1017e00001003a00000278000000eb000200370020
:1017f0006a00b90000804200b402fb000503b1009a
:10180000e98f5200faff3600e04f5300010032002a
:101810000000ea00000006008103780080017800e3
:1018200007027800010037008501780011000900e7
:101830000282d8008302e80000027800e00f520024
:10184000f9ff3a00844a7800110009008283d80029
:10185000800278000142780085037800e94f520049
:10186000010034006742420001c3b30081514200cd
:10187000e08f5200f4ff3a000300780000000600f9
:10188000881f780000047800e08f500005003d00bc
:1018900008007800d4c2b3008100ea000458780040
:1018a0000100370008007800dbff0700080078001f
:1018b0004f04780000000600647e2200e4874700a1
:1018c000353f8100889fbe008a9fbe008c9fbe006e
:1018d0008e1f7800e08f52000b003a00240298001f
:1018e000e4024200943f8900353f8900a53f89000a
:1018f000a44290000504a00025429800e442900014
:101900000504a0006542980067044000048022009e
:10191000250020004244de00e9f922004244dd00b7
:101920008484540005074400110009008504d80090
:101930001cfa2200923f81000406560080bf9f00df
:101940000e0747000003eb00e405440008064600cc
:1019500002003700160020000d017800224290009e
:1019600061026200020032000a00370015097800a7
:10197000920278002542900061026200fbff320073
:1019800008024100848f520002003900e00f540029
:101990003f003d00920678000d00a100828f5600a6
:1019a000edff3e00e10f5300eaff3a000fba970047
:1019b000840f540002003600890f540010003900d3
:1019c000614ab900b0ff2f00010020006143b80058
:1019d0000402500085825800840f5300858f5b00fd
:1019e000020035000b0578000600370011000900e1
:1019f0000986d8000982b900040578000100370083
:101a00000e0578000a00780052fb0700e10f400045
:101a100005003a000b0578000b0078004dfb07002d
:101a2000e10f40002b003200a43f8100000a780043
:101a3000a43f810064034200a4429000860f50003e
:101a4000020032000504a000010037000504a100d7
:101a50002542980064055500647e22000a05400076
:101a60000a087800aa3f8900040d7800a53f81008c
:101a70000003eb00254290000404a000a44298005b
:101a8000204290000404a10024409800b2ff3700d7
:101a9000943f8900848f5200070036001403be0073
:101aa0008042eb00763f8900873f8900120a780068
:101ab000943f81002542980022429000973f810088
:101ac0000404a00007097800244198006400410044
:101ad000010037000000eb004f0778004f06be0002
:101ae0004f05be004f04be004f00b10000000600cd
:101af000e00f50000800320064005000943f810065
:101b0000840f500001003100903f89002042900076
:101b10000404a1002440980000000600e687470066
:101b20008e1f780066875700d0bf9f00012f780076
:101b30000e0037005fbb9700efba970016407800a1
:101b4000154278000201e900844f50000400320081
:101b50000080fb000482fb000400500006003700f8
:101b60000603e800d6bf9f00050fe800e00f510014
:101b7000f0ff3a00020078004f0778006f00b100d4
:101b8000000006000002780002003700315a780099
:101b90000201e900e00f5100fcff3a0000000600de
:101ba00000027800808f50000800310082824000df
:101bb000808f520005003600020240004562780026
:101bc0000201e900fdff3a0000000600e00f5100ad
:101bd00003003200315a78000201e900fbff3700b0
:101be000000006000002780002003700015a780069
:101bf0000201e900e00f5100fcff3a00000006007e
:101c0000889fbe000004be00050037000000fb00f6
:101c100089007800fb030700e10f40000400320058
:101c200038407800e04f5000f8ff3a000000eb0029
:101c30004f04be0000000600e17c2200881f7800ef
:101c4000efff0700e17c220000047800a0002000e4
:101c5000ec030700080078004f047800000006003d
:101c60000002780084027800050278000043eb004f
:101c7000b44f1300fbff3a0031427800845a7800d9
:101c8000e04f5200fcff3a0000000600b04278002e
:101c900031c2520002003a00e0cf5200fbff3a008e
:101ca0000400fb000000060000027800b14278004a
:101cb000055a7800e0cf5200fcff3a000000060011
:101cc000000278008042eb00b4cf1200fdff3a0022
:101cd0000080ea00000042000000060000027800d8
:101ce00006003700314378000201e900065a780007
:101cf00084027800e04f530006003200840278002e
:101d0000e00f5100f7ff3a0002003700805aeb0065
:101d10000201e900e00f5100fcff3a00000006005c
:101d2000889fbe000004be000c0037000900780048
:101d3000e3ff0700890078000001780008007800c0
:101d4000f4030700e00f50000a0032000800e8002a
:101d50009900fb000a00070000047800e00f54001f
:101d6000040032000042eb00984f1200efff3a00ef
:101d70000004eb00080078004f04be0000000600dd
:101d80000002eb00881f78006103b80006047800a9
:101d90006121b80006004100e842790081cf52007d
:101da000040032000402e800e0cf5200f8ff3a00dd
:101db0000000eb004f047800000006000c00fa0061
:101dc000889fbe00f4ff270000047800d4bf9f0066
:101dd0008004eb0088bf9f0099bf9f00a8bf9f00b1
:101de000240c200078815700b4bf9f00cfb097002b
:101df00070805700070007000fba9700094a780063
:101e00000fba9700080052004f04be000080fa008d
:101e100000000600ef03b000889fbe008a9fbe004e
:101e20008c9fbe00800678008e1f78000007eb00b4
:101e3000d1af9f00a2b79f0066033700dfa89700cd
:101e400054c2b3008100e800d1af9f00844f50001e
:101e500006003a00010278000006eb0001c3b3005f
:101e600000c2b300b7c2b3000e0037003d029000bd
:101e70000404b200040032001d027800004a780019
:101e8000840ee800050037000000fb008d0078009c
:101e90005c030700e10f40004e0332000e07e8002c
:101ea0004c03370084027800d2c2b3003443780078
:101eb000824f53000900320005003c00804f530060
:101ec00008003200874f53000c003a00070037002b
:101ed000814f530009003a00060037000c30a00083
:101ee000f0ff37000c00a000eeff37000c10a00040
:101ef000ecff37000c20a000eaff3700620266000a
:101f0000010032000c00a1006802660001003200ee
:101f10000c20a1000602fb000403b100e90f5200ef
:101f20000c003e00050378000002eb00b603fb0046
:101f30006a22b9000703b1008602780004824300d8
:101f40009603fb000703b100e98f5300f7ff36004b
:101f5000080037000002eb00a7c2b300874f530010
:101f600004003a00afb197008502e8004302780010
:101f7000a3b79f000003eb0096b79f00e6c2b30033
:101f8000954f13000c003a000ce0a000644353008e
:101f9000d54f130003003200050378000000eb006a
:101fa00009003700afb397008502e80047047800c6
:101fb000a7b79f0098b79f00050378000900370076
:101fc0006a00b9000080430086027800b603fb0077
:101fd0000703b100e98f5300f9ff360090b79f0067
:101fe000f5ff3700b6427800cac6b300d6af9f00ef
:101ff0008acf5200250032000f003c0036c6b300e5
:1020000086cf52009e00320004003c00e0cf520018
:10201000f50232006b4353000f00370046c6b30091
:1020200086cf5200170032006543430086cf52002e
:10203000b2003a001300370036c7b30086cf520013
:102040001f00320007003c006443530086cf52005b
:10205000140032000643e80086cf5200a7003a0081
:102060001300370056c7b30086cf5200aa003200d3
:102070006343430086cf5200a0003a00e5779f00fb
:102080000d003700e5779f00a5003700f0036600dc
:102090000501200001003200050028000c867200b6
:1020a000d0ff3700e5779f000c60a0009c00370050
:1020b000e5779f000c50a0000c70a000980037003e
:1020c000afb59700e5779f00cb027800abb79f00d4
:1020d000b5b79f00e08f520002003a00a17b2200ba
:1020e000b1b79f003fb397008002eb0001003700bb
:1020f0008502e800e6c37a00e0cf5300fcff3a0017
:10210000c5b79f001fb19700e00f510005003200d6
:10211000cfb19700830f5100020031008202780096
:10212000c5b79f00cfb297000004eb00850f5200a7
:1021300001003600050452006806660009c2b300bb
:102140000f003200290037003d0290000404b20065
:10215000040032001d027800094a7800840ee8006d
:10216000050037008d00780000022000a50207005e
:10217000e10f4000010032000e07e8000804e9000a
:10218000e00f5400f0ff3a000084eb001700370026
:10219000bd0290000504b2000900320088027800f8
:1021a0009d03780035437800864b7800050478005d
:1021b000870ee800e04f53000a003a001100370094
:1021c000880278008d0078003500fb0084bf9f00f6
:1021d000050478008b0207000fba9700e10f40005a
:1021e000080032000e07e800060037000c027800f5
:1021f000080678003fb49700cfb497005fb597000a
:10220000efb59700890278008504e900e08f52005d
:10221000dfff3a00b8b79f00c9b79f00dab79f0049
:10222000ebb79f000c04780009c2b30004067800e5
:10223000e00f56000f003a00660237003d029000a2
:102240000404b200040032001d027800094a78003c
:10225000840ee800050037008d00780000022000a1
:1022600068020700e10f4000010032000e07e8009d
:102270000804e900e00f5400f0ff3a00550237006f
:10228000afb097007003660041047800a1b79f00cb
:10229000cfc4de00090578008a0578000800be007a
:1022a0000a01be004800de00c80add00008072009e
:1022b000e0779f00e00f530009003200e04f50002c
:1022c00007003200e14f40000500320026002000e8
:1022d000f0779f00887f9f00c6b79f0003003700fc
:1022e00017002000c7b79f00f8779f0078fb2f00ea
:1022f00008844700b8b79f0082ff370069fb2f00b2
:102300001a00200089844700e5779f00b9b79f0035
:10231000cab79f007bff3700e5779f000c0cb30026
:102320008c027800050cb2003b003a00e00f56002a
:1023300005003d00afb297004501be004500be005c
:10234000a5b79f000f003700f002660012003200b0
:102350002fb497004803be00f69f9f0087a79f00f9
:10236000a8b79f0098029000cfaade0095a79f0013
:10237000a5a79f007f9897008fa097001fa19700a7
:10238000afa19700b0b79f00c1b79f00d2b79f0021
:10239000e3b79f000b003700afb09700c102780091
:1023a00005047800cfc4de00090578008a057800ae
:1023b000a1b79f00b8b79f00c9b79f00dab79f00c9
:1023c000ebb79f003fb09700cfb097005fb1970089
:1023d000efb19700e00f5000e08f5800e00f590078
:1023e000e08f590032003d006000b8006011b80075
:1023f0003fb49700cfb497005fb59700efb5970053
:102400003c00b30008045000898458000a055900b4
:102410008b85590022003700e00f560005003d0073
:10242000afb297004501be004500be00a5b79f00b2
:102430000f003700f0026600120032002fb4970040
:102440008004eb004803be000005eb0096af9f0040
:10245000a7af9f00b9af9f00caaf9f001fa897000a
:10246000afa897003fa99700cfa99700a8b79f00f2
:10247000b0b79f00c1b79f00d2b79f00e3b79f00de
:102480000b003700afb09700c1027800a1b79f00e2
:1024900005047800090020000a0020000b0020003d
:1024a000b8b79f00c9b79f00dab79f00ebb79f008e
:1024b0009fb49700e08f54000d003a001a002000ee
:1024c0003fb09700cfb097005fb19700efb1970092
:1024d0009ab79f00e00f5000e08f5800e00f5900be
:1024e000e08f5900020032008000eb0091b79f009e
:1024f0000c01780005042000020cb20082b79f0096
:10250000850f51003400320003003c00e00f510001
:102510000800320048003700050820008fb19700fe
:10252000858f510014003200050c2000858f51006a
:1025300041003a000670220015c0b3003600be000c
:102540003601be003fb49700cfb497005fb5970047
:10255000efb597000040e10001c8e10002d0e100c2
:1025600003d8e100330039008542e800f4cf52007f
:10257000f2ff3a002f00370015c0b3000001200021
:10258000010020006011b8003fb49700cfb497005d
:102590005fb59700efb597000040e10001c8e1008a
:1025a00002d0e10003d8e1002200390049002000f8
:1025b0000000d0008180d2000281d2008381d2004d
:1025c0008904e900faff3a008542e800f0cf5200a2
:1025d000edff3a001700370015c0b300800020005f
:1025e000010020006011b8003fb49700cfb49700fd
:1025f0005fb59700efb597000040e10001c8e1002a
:1026000002d0e10003d8e1000a00390039002000bf
:102610000000d0008180d2000281d2008381d200ec
:102620008904e900faff3a008542e800f5cf52003c
:10263000edff3a00e5779f006f7597009fb5970013
:102640008a02fb008b8f520002003d00eb779f0057
:10265000040037001fb09700850f500001003d00b7
:1026600095b79f00e00f520003003200e3026600be
:10267000010032000402e900050024008502660022
:10268000060032009fb09700810f52000200340014
:1026900001025200010037000002eb006f71970049
:1026a0008001eb008202fb00f3af9f00850f520018
:1026b0000200340085025200f5af9f0064026600fc
:1026c0003b003200e202660061026600e08f5200c9
:1026d00011003200bd0290000504b2000800320073
:1026e0009d027800b6c2b300e00f52000100320034
:1026f00006c3e800864a7800850ee800150037001a
:10270000b0022000e00f5200010032000080e8001b
:102710008d0078000c003700e00f52000e003200f0
:102720003d0290000404b200050032001d02780052
:1027300005c2b300054a7800840ee80005003700a2
:102740008d007800000220002e010700e10f4000fc
:10275000010032000e07e8007faa9700e00f520048
:102760004f00320008c3b300840478003d0290009b
:102770000404b200040032001d027800084a780008
:10278000840ee800050037008d007800000320006b
:102790001c010700e10f4000010032000e07e800b5
:1027a0008904e900f1ff3a00f9af9f003c003700cf
:1027b000ffaa9700e08f5200140032006802660002
:1027c00012003a0008c2b300850478003d02900070
:1027d0000404b200040032001d027800084a7800a8
:1027e000840ee800050037008d007800000220000c
:1027f00004010700e10f4000010032000e07e8006d
:102800008904e900f1ff3a00f9af9f00e202660097
:1028100061026600e08f520011003200bd0290009c
:102820000504b200080032009d027800b6c2b30071
:10283000e00f52000100320006c3e800864a78002b
:10284000850ee80015003700b0022000e00f5200ae
:10285000010032000080e8008d0078000c00370095
:10286000e00f52000e0032003d0290000404b2005e
:10287000050032001d02780005c2b300054a780049
:10288000840ee800050037008d007800000220006b
:10289000dc000700e10f4000010032000e07e800f5
:1028a0001fb39700856f22000602e900f00466005e
:1028b000c223dd000c057800c7a79f000a02b20002
:1028c0006323b900e99f9f00060478004322dd00de
:1028d000b8a79f0085024200da9f9f00e5af9f00e6
:1028e000a30037009fb597000fb097008b05e90054
:1028f000010420009bb79f00810f5000730032003d
:1029000003003c00e00f5000080032007e0037005a
:10291000040820000fb19700840f510056003200c8
:10292000040c2000840f510077003a00e00f56009d
:102930001f003d00efa997003304be002305be0031
:102940003fb09700cfb097005fb19700efb197000d
:102950000802be000a03be005bfa07000802be00c0
:102960000a03be00e0779f000000fb00cf80de007e
:1029700001017800820178005afa07003fb29700ff
:10298000cfb297005fb39700efb3970000025200f9
:1029900081825a0002035b0083835b00b4b79f000f
:1029a000c5b79f00d6b79f00e7b79f002e0037003e
:1029b000ef9a9700e08f5200220032006fab970031
:1029c0003fb29700cfb297003604be002605be0086
:1029d0000400be000801be0084bf9f00f5b79f0041
:1029e0000005eb007df907000801be00e0779f00bd
:1029f0000000fb00cf80de001b0107000fba97002c
:102a0000ffb297008aaf9f000004520081845a00f1
:102a1000d8a79f00e9a79f008004eb00f9a79f00bb
:102a20005fa09700efa097007fa197008fa9970064
:102a3000b0b79f00c1b79f00d2b79f00e3b79f0018
:102a400009003700efa897003fb197001102780006
:102a5000110009000481d800a40020001100090021
:102a60000480d800e1779f00ef7197000343b00026
:102a7000e3779f0024003700947a2200df9a9700c2
:102a8000e08f520001003200847922003fb09700ad
:102a9000cfb097005fb19700efb197004fa39700b9
:102aa0000603e900050033008301d1000281d30051
:102ab0008180d3000080d300f9ff37006f006000f1
:102ac00064407800e0779f000f0037003fb2970026
:102ad000cfb297005fb39700efb397003fa4970082
:102ae0000804e900050033008703d1000683d30002
:102af0008582d3000482d300f9ff37006742620069
:102b00000443b000e4779f003d0290000404b2004b
:102b1000070032009d0278006f729700844a7800a7
:102b2000850ee800e04f520007003a00070037002a
:102b3000ef7497008d0078000900fb00310007005a
:102b4000e10f4000010032000e07e8004fa597009a
:102b5000bfa597006fa8970064055500e385550051
:102b600068005000caa79f00bba79f00e0af9f006e
:102b70009fb09700e08f50005aff3a006806660049
:102b8000140032007fa99700e00f510011003400bb
:102b900008c2b300820478003d0290000404b20031
:102ba000040032001d027800084a7800840ee80014
:102bb000050037008d00780000022000110007009a
:102bc000e10f4000010032000e07e8008904e9002f
:102bd000f1ff3a00dfa9970013407800e0779f00eb
:102be000e04f500095fc3a000e0078004f07780047
:102bf0004f06be004f05be004f04be00ef03b100fc
:102c000000000600889fbe00010478008084eb006d
:102c100038029000e20262003b00320004037800b8
:102c2000980290000620b20002003a00e08f5200a5
:102c300035003a000490a000800478003404980025
:102c4000f90fb200e08f520002003a00a802900093
:102c5000050c7800ea8f540005003a000408b20021
:102c600003003a0088007800d0002000e5ff07004c
:102c700018029000d8029000850f52000b0032001d
:102c80000402e80015c0b30014049800180278008c
:102c9000094a7800040ce800647f2200054a7800a5
:102ca000ea8f540018003a00050037000940780008
:102cb00088007800280007008004780012003700a0
:102cc000380290000410b2000f003200180190008a
:102cd000a8009000480090006ef6070018029000cf
:102ce000840f500004003200380290000403b30047
:102cf000340498008084eb000002eb001404980078
:102d000028029000040c7800090078004f04be00ef
:102d1000000006000b00370030427800e04f520000
:102d2000030032000201e900b14f520005003200f9
:102d30000480fb00954278008582fb00050050006e
:102d40000000060081027800e00f5100f2ff3a0017
:102d500002007800000006000200fa00889fbe0012
:102d600001047800a0ff9f003802900084027800e0
:102d70000504b200020032000000fb0035003700fd
:102d8000e202620005003a000403b3001504980053
:102d9000340498000080eb002e003700d804900027
:102da000e08f540006003a0012002000e680570031
:102db0004800900037f607001904980023003700f8
:102dc000a8029000e08f520008003a00a57f220080
:102dd0000430a00025049800050c78003404980005
:102de0002500200055049800150498001801900053
:102df000a80090004800900026f6070028029000e6
:102e00008082eb0015049800affa9700054a78001d
:102e1000040ce8002ffa9700ea4f52000b003a002a
:102e2000380290000410b20008003200180190002f
:102e3000a80090004800900016f607000002eb0082
:102e4000a802900014049800050c78002ffa97004f
:102e50000400fb004f04be000080fa0000000600e2
:102e600000c0da0000000600020ab900001bb90029
:102e70000200b8008100420081004300000006000b
:020000040000fa
:102e8000415400000d0a0000004f00004b000000fc
:102e9000415400002b430000504900004e3d00000b
:102ea00038340000383600000d0a000000410000f0
:102eb000542b0000434300004c4b00003f0d00002a
:102ec0000a000000415400005a0d00000a000000f2
:102ed00041540000480d00000a0000004154000069
:102ee000453100000d0a000000410000542b000095
:102ef0004347000041540000543f00000d0a000009
:102f0000002b00004347000041540000543a0000e9
:102f10002031000000410000542b0000435000000d
:102f20004f5300003d3000000d0a0000004100003a
:102f3000542b000043470000444300004f4e000064
:102f4000543d0000312c00007c490000507c000002
:102f50002c7c000067700000727300002e6f000070
:102f6000692e0000636f00006d2e00006272000089
:102f70007c0d00000a000000415400002b550000a9
:102f800050530000443d0000302c0000312c000064
:102f90007c6f0000697c00000d0a00000041000009
:102fa000542b000055500000534400003d300000f9
:102fb0002c3200002c7c00006f6900007c0d0000aa
:102fc0000a000000415400002b550000505300003f
:102fd000443d0000302c0000332c00007c6f0000ca
:102fe000697c00000d0a000000410000542b000025
:102ff00055500000534400003d3000002c340000c8
:103000002c7c0000382e0000382e0000382e0000e6
:10301000387c00000d0a000000410000542b000025
:1030200055500000534400003d3000002c37000094
:103030002c7c0000302e0000302e0000302e0000ce
:10304000307c00000d0a000000410000542b0000fd
:103050005550000053440000413d0000302c00005a
:10306000330d00000a000000415400002b55000001
:10307000505300004e4400003d3000002c3800004a
:103080000d0a0000002b000055500000534e0000b8
:10309000443a0000203000002c3800002c310000a1
:1030a00000410000542b0000554600005450000021
:1030b0003d3100002c7c0000363600002e39000027
:1030c000362e000031340000372e00003130000071
:1030d000367c00000d0a000000410000542b000067
:1030e00055460000545000003d3200002c7c00008a
:1030f00066650000726e0000616e0000646f000083
:10310000636100007c0d00000a00000041540000d3
:103110002b55000046540000503d0000332c0000a9
:103120007c4c000075630000617300002d320000cc
:10313000387c00000d0a000000410000542b000004
:1031400055460000545000003d3600002c30000071
:103150000d0a000000410000542b000055460000fd
:1031600054500000433d0000310d00000a000000f3
:103170002b550000554600005450000043520000fb
:103180003a200000312c00003100000031530000d3
:10319000322000002573000020250000732000006d
:1031a0002573000020250000732000002573000017
:1031b00020250000732e0000706b000074000000da
:1031c000415400002b5500004654000050430000bd
:1031d0003d3700002c7c0000257300007c0d0000b2
:1031e0000a000000434f00004e4e0000454300001f
:1031f000540000002b2b00002b00000000410000b9
:10320000542b0000434900004d49000000410000dc
:10321000542b00005546000054500000433d000070
:10322000300d00000a000000415400002b43000054
:1032300050570000524f0000464600000d0a0000a3
:1032400000310000533200002c250000732c0000d8
:10325000256400002c250000642c0000257300006c
:103260002c250000732c0000312c00002564000088
:103270002c250000732c0000257300002c24000076
:1032800047500000524d0000432c00003137000031
:1032900033310000313400002e30000030300000a7
:1032a0002c4100002c32000033330000322e00008d
:1032b00037300000323100002c5300002c30000069
:1032c00034360000333900002e370000353200005c
:1032d000332c0000572c0000302e0000303000004e
:1032e0002c2c000032350000303800003134000052
:1032f0002c2c00002a310000440a000000250000a8
:1033000030320000642f00002530000032640000dd
:103310002f32000030250000303200006400000031
:1033200025300000326400003a25000030320000f1
:10333000643a0000253000003264000000530000b1
:10334000756e0000004d00006f6e0000005400001c
:10335000756500000057000065640000005400001f
:10336000687500000046000072690000005300000c
:1033700061740000004a0000616e00000046000019
:1033800065620000004d0000617200000041000015
:1033900062720000004d000061630000004a0000fe
:1033a000756e0000004a0000756c000000410000ce
:1033b0006775000000530000656e0000004f0000bc
:1033c00063740000004e00006f76000000440000af
:1033d00065630000000a00000d4500004e44000037
:1033e0000a0d00000000000014000000c8000000ea
:1033f0000a00000041530000333900003933000057
:103400002052000065610000646500007220000029
:1034100046690000726d000077610000726500006f
:103420007c7c000041530000333900003933000038
:1034300020460000455200004d4900002052000087
:1034400065610000646500007220000048610000b2
:103450007264000077610000726500002031000096
:103460002e300000004100005333000039390000c5
:1034700033200000526500006164000065720000a6
:1034800020460000697200006d7700006172000044
:103490006520000025680000687800002e250000e7
:1034a00068680000782e0000256800006878000039
:1034b000206f00006e2000004153000033390000ef
:1034c0003933000020460000455200004d490000fd
:1034d0002052000065610000646500007220000059
:1034e00048610000726400007761000072650000ae
:1034f000203100002e3000000a0000000802000009
:1035000002000000535400002e44000065730000c8
:1035100063000000253000003278000025300000f4
:1035200032780000253000003278000000410000b1
:103530007061000067610000646f00000a00000015
:103540004861000044610000646f0000733f0000a8
:1035500000530000696d00000a0000004e61000089
:103560006f0a0000006500006e76000069610000cf
:1035700072440000616400006f73000000410000ad
:103580007061000067610000724400006164000027
:103590006f730000004d000061710000756900004c
:1035a0006e610000206f0000706500007261000015
:1035b00064610000207000006f7200003a25000076
:1035c000303200005825000030320000582500003d
:1035d00030320000582000006520000070610000bb
:1035e000726100006461000020700000656c0000e2
:1035f0006f2000006f20000070650000646500000f
:1036000073740000726500003a250000303200003b
:1036100058250000303200005825000030320000ec
:103620005820000065200000666f000072610000f5
:103630006d2000006c6900006461000073200000d0
:103640002564000020740000616700007320000002
:103650006173000020250000732000002573000026
:103660000a0000002530000032580000253000001c
:103670003258000025300000325800002c25000090
:10368000303200005825000030320000582500007c
:1036900030320000582c0000253000003258000065
:1036a000253000003258000025300000325800005c
:1036b0002c250000732c0000257300000a00000078
:1036c0004d61000071750000696e0000612000000e
:1036d000666f0000692000007061000072610000e8
:1036e0006461000020650000206e0000616f000032
:1036f000206300006f6e00007365000067750000b6
:1037000069720000207300006162000065720000b1
:10371000207000006f7200002071000075610000d1
:103720006c20000065700000630a0000002d00009e
:103730000025000064000000456d00007069000075
:103740006c6800006164000065690000726100003f
:10375000206900006e69000063690000616e00006e
:10376000646f000021210000210a000000410000d8
:10377000203a00002020000020200000202000002f
:103780002020000020200000202000002020000039
:103790002020000020000000646200006d00000096
:1037a000433a000000500000613a0000005200005f
:1037b000653a000000460000723a00000041000037
:1037c0004c460000002000002020000020200000c7
:1037d000202000002020000000500000463a000099
:1037e00000500000543a00000020000020000000bb
:1037f000414c0000520000005a45000046200000e5
:10380000200000005a450000542000002000000065
:1038100020200000202000002020000020200000a8
:1038200000000000202000002020000020410000b7
:10383000555400004f200000544500005354000030
:10384000452000002020000020200000004500004e
:10385000727200006f2000006e6f00002073000085
:1038600069730000742e00002064000065200000d1
:10387000524600002100000045720000726f0000f7
:10388000206e00006f200000736900007374000058
:103890002e2000004750000052530000210000007d
:1038a00045720000726f0000206e00006f20000063
:1038b00073690000737400002e200000584200005d
:1038c000454500002100000045720000726f0000b5
:1038d000206e0000612000006d6500006d2e00006c
:1038e0002049000032430000210000004572000022
:1038f000726f0000206e000061200000636f000006
:103900006d2e0000204700005053000021000000f1
:1039100051540000442e00003a20000020200000f6
:103920002000000045500000433a00002000000045
:1039300020200000200000002020000020200000a7
:103940000052000053530000493a000020000000dc
:103950002020000020540000657300007465000002
:10396000206400006520000052530000534900000d
:103970002020000020200000004900003a20000024
:10398000005100003a2000000054000041470000b0
:10399000733a0000200000002020000020200000da
:1039a0002020000020200000202000002020000017
:1039b00020200000200000002f00000061700000a7
:1039c000706c000046690000726d000077610000b5
:1039d00072650000496e0000666f0000726d0000a5
:1039e00061740000696f00006e2000006e6f0000bf
:1039f0007420000073750000707000006f7200008a
:103a0000746500006400000025300000327800007a
:103a100025300000327800002530000032780000a8
:103a20002530000032780000253000003278000098
:103a3000253000003278000000000000436f0000d5
:103a40006e740000726f00006c2d00005570000055
:103a5000004d000061720000732000004f6e0000f6
:103a60006500000044610000646f0000733a0000cc
:103a700000480000656100007020000076610000d1
:103a80007a6900006f210000000000004002000081
:103a900042020000440200004802000060020000f0
:103aa00062020000640200006802000005100000cd
:043ab0001a000000f8
:020000040000fa
:103ab4000000fa0044da2000144278008482fb00fb
:103ac400c4548000848f5200e600320044da20009f
:103ad400144278000482fb00c454880042c72000ca
:103ae4008040eb0030c0b3007e57070044da20006a
:103af400144278000482fb00cfa2de007608200086
:103b040007002000860f5200878f5a00cf003e0026
:103b140004600100870037008b0037008f003700f6
:103b240093003700970037009b0037009f00370051
:103b3400c6003700c5003700c4003700c300370093
:103b4400c2003700c1003700c0003700bf00370093
:103b5400be003700bd003700bc003700bb00370093
:103b6400ba003700b9003700b8003700b700370093
:103b7400b6003700b5003700b4003700b300370093
:103b8400b2003700b1003700b0003700af00370093
:103b9400ae003700ad003700ac003700ab00370093
:103ba400aa003700a9003700a8003700a700370093
:103bb400a6003700a5003700a4003700a300370093
:103bc400a2003700a1003700a00037009f00370093
:103bd4009e0037009d0037009c0037009b00370093
:103be4009a00370099003700980037009700370093
:103bf4009600370095003700940037009300370093
:103c04009200370091003700900037008f00370092
:103c14008e0037008d0037008c0037008b00370092
:103c24008a00370089003700880037008700370092
:103c34008600370085003700840037008300370092
:103c44008200370081003700800037007f00370092
:103c54007e0037007d0037007c0037007b00370092
:103c64007a00370079003700780037007700370092
:103c74007600370075003700740037007300370092
:103c84007200370071003700700037006f00370092
:103c94006e0037006d0037006c0037006b00370092
:103ca4006a00370069003700680037006700370092
:103cb4006600370065003700640037006300370092
:103cc4006200370061003700600037005f00370092
:103cd4005e0037005d0037005c0037005b00370092
:103ce4005a00370059003700580037005700370092
:103cf4005600370055003700540037005300370092
:103d04005200370051003700500037004f00370091
:103d14004e0037004d003700290037002d003700d2
:103d24003100370035003700390037003d003700d7
:103d340041003700a2ca20008040eb0030c0b3002d
:103d4400e856070048003700e2cb20008040eb0033
:103d540030c0b300e356070043003700d2cc200044
:103d64008040eb0030c0b300de5607003e00370051
:103d7400e2cd20008040eb0030c0b300d9560700ec
:103d84003900370032cf20008040eb0030c0b30050
:103d9400d45607003400370032d020008040eb00b6
:103da40030c0b300cf5607002f00370052d1200097
:103db4008040eb0030c0b300ca5607002a00370029
:103dc40052d220008040eb0030c0b300c55607003b
:103dd4002500370082d320008040eb0030c0b300c0
:103de400c056070020003700c2d420008040eb00fa
:103df40030c0b300bb5607001b00370042d620007a
:103e04008040eb0030c0b300b65607001600370000
:103e1400b2d620008040eb0030c0b300b15607009a
:103e240011003700b2d720008040eb0030c0b3004f
:103e3400ac5607000c003700c2d820008040eb00cd
:103e440030c0b300a75607000700370022a8290096
:103e54008040eb0030c0b300a25607000000000011
:103e640001003700000000000080fa000000060096
:103e74000200fa00000f78000080fa00000006003b
:103e84000200fa00000f78000080fa00000006002b
:103e94000200fa00000f78000080fa00000006001b
:103ea4000000fa00354b800034062000848f520055
:103eb4002f003c00344b80000402e800344b88009f
:103ec40004832000144278000483fb001483200040
:103ed400144278008482fb0024832000144278007a
:103ee4000482fb00861f7800851f7800841f7800f9
:103ef400a4a82900841f780040922000aef7070090
:103f0400e887570084962000144278000483fb005d
:103f140094962000144278008482fb00a49620002a
:103f2400144278000482fb00861f7800851f780005
:103f3400841f7800a4a82900841f780020942000fe
:103f44009df70700e887570074638000e10f520073
:103f540003003a0034002000044b880002003700bc
:103f640044002000044b880084458000244b8800d2
:103f74000080fa00000006000800fa000002eb00ce
:103f840024079800010037000000000084458000e9
:103f94000402e8008445880084458000e50f52004f
:103fa4000200340014002000844588008000eb00e7
:103fb4000000eb00c3510700844580000400780032
:103fc4006b530700ab140700004278000482fb0027
:103fd400340798003e02900004007800dc3f07009c
:103fe4003e029000e00f520077003200a352070017
:103ff4000002eb00040f78006e0037001e02780008
:104004007522b900040278006f024200a5ee210077
:1040140065427a00e14f520065003a001e027800c2
:104024007522b900040278006e024200a5ee210058
:1040340065427a00e04f52005d003a001e027800ab
:104044007522b900040278006d024200a5ee210039
:1040540065427a00e04f520055003a001e02780093
:104064007522b900040278006c024200a5ee21001a
:1040740065427a00e04f52004d003a001e0278007b
:104084007522b900040278006b024200a5ee2100fb
:1040940065427a00e04f520045003a001e02780063
:1040a4007522b900040278006a024200a5ee2100dc
:1040b40065427a00e04f52003d003a001e0278004b
:1040c4007522b9000402780069024200a5ee2100bd
:1040d40065427a00e04f520035003a001e02780033
:1040e4007522b9000402780068024200a5ee21009e
:1040f40065427a00e04f52002d003a001e0278001b
:104104007522b9000402780067024200a5ee21007e
:1041140065427a00e04f520025003a001e02780002
:104124007522b9000402780066024200a5ee21005f
:1041340065427a00e04f52001d003a001e027800ea
:104144007522b9000402780065024200a5ee210040
:1041540065427a00e04f520015003a001e027800d2
:104164007522b9000402780064024200a5ee210021
:1041740065427a00e04f52000d003a000002eb0065
:10418400140798002e029000e00f520008003a0035
:10419400ad500700b450070000902000d103200068
:1041a40044610700ac500700140020002407980065
:1041b4001e0fe8003e0290009e027800848f520099
:1041c4008eff350071ff37001e0290000402e800e4
:1041d400140798002d5207009e029000240320002b
:1041e400848f520068ff3a000002eb002407980015
:1041f4009150070065ff37000400fa00204798003b
:104204000042eb00044f78009e4278002e4290005a
:1042140004c25200044f78001e407800673b070038
:104224000080fa00000006000200fa00881f7800ef
:10423400d4500700048b8000158b800018c0b30095
:1042440002002000030e24000400be006af20700ee
:1042540000027800e00f5200010035000044eb003a
:10426400e04f54000a003200ff3a07000042780091
:10427400044f780004c5b3009e42780084cf5200f6
:104284000c00320000c5b3004c3b070009003700a6
:10429400f53a070000427800044f7800d4c7b30011
:1042a4009e42780084cf520002003200d0c7b3008f
:1042b400423b07004f0478000080fa00000006002b
:1042c4000000fa000080fa00000006000000fa0076
:1042d4000080fa00000006000400fa000002eb006f
:1042e400140798000002eb00040f78002b0037003d
:1042f4001e0278007522b9000402780064024200ac
:10430400a5ee2100e5427a0004c3b30084cf520035
:10431400090032001e0278007522b90004027800f8
:104324006f024200a5ee2100e5427a0004c3b30007
:1043340084cf520003003a001e0290000402e800f9
:10434400140798001e0278007522b9000402780050
:1043540064024200a5ee2100e5427a0004c5b300e0
:1043640084cf5200090032001e0278007522b90081
:10437400040278006f024200a5ee2100e5427a00b3
:1043840004c5b30084cf520003003a001e0290001b
:104394000402e800140798001e0fe8001e027800cb
:1043a400e90f5200d2ff34001e029000040078008e
:1043b4000080fa00000006000200fa00004f7800b6
:1043c400f5a2a8001e02fb002411880000000000d2
:1043d400151180000410200004826200e00f5200d6
:1043e400fbff3200f5a2a9000080fa0000000600dd
:1043f4000600fa001007980021079800f5a2a8000b
:104404000002eb00040f78000e0037001e0290003b
:10441400144278000402fb00241188001e0290005c
:104424000402e80014079800000000001511800041
:104434000410200004826200e00f5200fbff3200ef
:104444001e0fe8002e0290009e027800848f520016
:10445400eeff3500f5a2a9000080fa000000060076
:104464000200fa00000f7800050037001e027800f1
:104474001442780004407800cfff07001e0fe800c4
:104484001e02780014427800e04f5200f7ff3a0011
:104494000080fa00000006000400fa000002eb00ad
:1044a400040f78000e82e80012c0b3008400780084
:1044b40030062000115e07002e4290000482fb00ab
:1044c4001e0f72001e027800040078000080fa00bb
:1044d400000006000200fa00efff07000002780067
:1044e400040f7800440620009e027800848f520056
:1044f400050036008040eb0030062000bf5d070059
:104504000002eb00010037001e027800040078006e
:104514000080fa00000006000600fa002007980058
:104524002e0290000402e800240798002e02900056
:10453400040f7800ae02900044062000848f5200dd
:104544000200340044062000030037001e027800f5
:10455400244798002e029000040078000080fa009e
:10456400000006000600fa0020079800caff0700b2
:1045740000027800040f78001e0fe8001e02780085
:10458400140798009e0278004406200004aab9008b
:1045940004027800040f780042c6b300ae00900015
:1045a4001e007800175e07001e0290000442780087
:1045b4008440780030062000905d07000080fa00f7
:1045c400000006006a00fa00c2ff0700000278003b
:1045d4002407980044062000040f78000002eb0032
:1045e400140798000d0037006602470042c6b30066
:1045f400840078001e007800c05d07006602470052
:104604000400780096ff0700440620001e0f4200b5
:104614001e0290000402e800140798009e02900015
:104624002e029000848f5200efff35000080fa00c4
:10463400000006000400fa0044062000040f78007d
:10464400070037000e82e80012c0b300840078002f
:104654001e007800eb5d0700440620001e0f420098
:10466400f47022009e027800848f5200f5ff360019
:104674008040eb0030062000605d070070a929002f
:1046840077ff07000080fa00000006000200fa002d
:10469400000f78007200200001aa29001e00780093
:1046a4001df5070000027800e00f520009003a00ef
:1046b40088ff070000027800e00f52000300340076
:1046c40090aa290066ff070002003700e0aa29002b
:1046d40063ff0700b200200031ab29001e00780000
:1046e4000df5070000027800e00f520001003a00c7
:1046f400b4ff0700a2002000f1ab29001e007800df
:1047040005f5070000027800e00f520001003a00ae
:10471400c8ff07000080fa00000006000400fa0049
:10472400889fbe000002eb00040f780085962000ed
:104734009542780004ef21001442780084cf52009f
:104744000c003a009596200095427800f4ee210082
:104754001442780084cf520006003a00a596200047
:1047640095427800e4ee21001442780084cf520090
:10477400820032000002eb00140798007c0037002e
:104784001e0290007522b9000402780064024200ff
:10479400a5ee210065427a00e04f5200710032001c
:1047a400924580001e0290007522b9000402780030
:1047b40066024200a5ee210065427a008480fb0077
:1047c4001e0290007522b9000402780065024200be
:1047d400a5ee210065427a000480fb001e029000d1
:1047e4007522b9000402780064024200a5ee21009b
:1047f40065427a008483fb0084962000144278008a
:104804000483fb0094962000144278008482fb0009
:10481400a4962000144278000482fb00c3e6200022
:10482400831f780003e82000831f7800821f78002c
:10483400811f7800801f7800871f7800861f78000a
:10484400851f7800841f7800b4ac2900841f780089
:10485400608b200058f50700f487570022032000de
:104864008000eb00608b2000ddf407001e02900046
:104874007522b9000402780066024200a5ee210008
:1048840065427a000484fb001e0290007522b90080
:104894000402780065024200a5ee210065427a0018
:1048a4008481fb001e0290007522b9000402780086
:1048b40064024200a5ee210065427a000481fb00f7
:1048c40084962000144278008480fb009496200093
:1048d400144278000480fb00a4962000144278005f
:1048e4008483fb00f4802000144278000403fb005e
:1048f400e4802000144278008402fb00d48020006d
:10490400144278000402fb00c9e62000891f7800e5
:1049140009e82000891f7800881f7800831f780029
:10492400821f7800811f7800801f7800871f78001d
:10493400861f7800851f7800841f780024b329001f
:10494400841f7800608b20001bf50700f887570050
:10495400648b20000400780002ff0700140020008c
:10496400040f78001e0290000402e8001407980067
:104974001e029000e90f520081ff34001e027800ed
:10498400e00f520006003a007203200001b629002d
:10499400608b20007af40700608b2000b0fe0700d3
:1049a4004f04be000080fa00000006000400fa0074
:1049b400100798000002eb00040f78004d00370048
:1049c4001e0278007522b9000402780064024200d5
:1049d400a5ee2100e5427a0004c3b30084cf52005f
:1049e400130032001e0278007522b9000402780018
:1049f40064024200a5ee2100e5427a0004c5b3003a
:104a040084cf52000a0032001e0278007522b900d9
:104a140004027800e4024200a4ee21000482420071
:104a2400c20020008000eb00040078006cf4070052
:104a340086962000164378001e0278007522b9007d
:104a44000402780066024200a5ee210065427a0065
:104a5400844f530026003a009696200016437800af
:104a64001e0278007522b900040278006502420033
:104a7400a5ee210065427a00844f53001c003a00e1
:104a8400a6962000164378001e0278007522b9000d
:104a94000402780064024200a5ee210065427a0017
:104aa400844f530012003a001e0278007522b900a8
:104ab40004027800e4024200a4ee210004824200d1
:104ac400c20020008000eb000400780044f40700da
:104ad4001e027800a6ee21007522b90004027800b7
:104ae40004024300700242008042eb00054a780051
:104af4001e0fe8001e027800e90f5200b0ff3400d8
:104b04000080fa00000006000600fa000002eb0034
:104b1400140798000d3f07000002eb00040f780013
:104b2400120037001e02780004007800de400700ff
:104b340000027800e00f52000b0032001e027800e1
:104b440004007800dc410700000278002407980084
:104b5400f4548000ae029000848f520002003400ae
:104b64002e029000f45488001e0fe8001e02780004
:104b7400e90f5200ebff34000002eb00040f780051
:104b8400310037001e0278007522b9000402780053
:104b9400e4024200a4ee21000482420004007800f2
:104ba400dd45070000027800e00f520025003d00bb
:104bb4001e02780004007800bf410700000278005c
:104bc400240798001e0278007522b90004027800b8
:104bd40064024200a5ee2100e5427a0004c3b3005a
:104be40084cf520007003a00f55480002e02900052
:104bf400848f520003003d001e0290000402e8006e
:104c0400140798001e0278007522b9000402780087
:104c140064024200a5ee2100e5427a0004c5b30017
:104c240084cf520007003a00f55480002e02900011
:104c3400848f520003003d001e0290000402e8002d
:104c4400140798001e0fe8001e027800e90f5200b6
:104c5400ccff34001e029000040078000080fa00ab
:104c6400000006003800fa00889fbe008a9fbe003c
:104c74006fe0a8007000a8007060a8007420a8006d
:104c84007500a8007520a8007180a800674f070070
:104c94000000eb00725007000000eb00805007009a
:104ca4000000eb008f5007008000eb000000eb00d9
:104cb4007a4f0700bf0a07004a5e0700665b0700d9
:104cc4007d5b070004202c00150020004407980099
:104cd400550798006c0247004e019000de019000d9
:104ce40000402200410f2000784207006c02470078
:104cf4004e019000de01900000402200410f200090
:104d0400de4207006c0247004e019000de01900075
:104d140000402200410f2000314307006c0247008d
:104d24004e019000de01900000402200410f20005f
:104d3400854307008000eb000000eb00614e070094
:104d4400110020000000eb005e4e07004b4f0700ef
:104d5400314f07004b4e0700104e07001f4e07004f
:104d6400304e07003f4e0700004e0700004022006f
:104d7400410f20004f5e07002c4f0700014e070033
:104d84000002eb00a45388007b5007006650070024
:104d9400a94d0700b04d0700084e0700134e070049
:104da400284e0700334e07008000eb000000eb00a4
:104db400444e0700354f07003a4e0700f508070038
:104dc4009709070000e8230001002000395e07006e
:104dd40034588000455880000400be00aa33070000
:104de400000278000458880004180700e0d9200065
:104df400194a070014002000a44588000b4f07003f
:104e04006d51070000402200410f2000295e070079
:104e14005d5107001d4f07000002eb00040f7800ee
:104e24003400200074638800c10907008000eb008f
:104e34000000eb00234e0700140020008445880086
:104e44008445800004007800c94f0700ff5d070017
:104e54005d500700f0004700040009008018eb00d3
:104e64007a02470004000900001aeb008e02780061
:104e74004502b00004000900801aeb000e0378001c
:104e8400e602b00004000900001beb000426070042
:104e9400b924070042c720008040eb0030c0b300b3
:104ea4009052070093270700c2e620008040eb00e1
:104eb40040c0b3008b52070002e82000c1c0b30019
:104ec40040c0b3008752070040802000f05b070019
:104ed40072b9290041c0b30030c0b3008152070049
:104ee4004280200051c0b30030c0b3007d5207009f
:104ef400f18b8000110798001e029000f30f5200fe
:104f040004003c001e0290006a024200140798004c
:104f14000c0037001e0290006f0262001407980014
:104f24001e0290006a024200140798001e029000bc
:104f3400fe0f5200030034001e0290000482e900b8
:104f4400140798001e029000f48b8800f48b8000f4
:104f5400841f780094b92900841f7800c081200040
:104f640095f30700e4875700f48b8000cfa2de009e
:104f74000401be008040eb0030c0b300255107009f
:104f8400c28120008040eb0030c0b30055520700be
:104f940000402200410f2000c65d0700f3470700d0
:104fa4004448070043470700155d0700f650070013
:104fb400c0b929002afd0700140020006464880099
:104fc400a00020002e3b070084e42e002454880017
:104fd40084e42e003454880084e42e004454880071
:104fe40084e42e005454880084e42e006454880021
:104ff400d0c7b30080fc0700b70037000002eb0005
:105004009445880000a0260081012000a95d0700c6
:10501400abfc0700944580000400780063fe0700a1
:10502400aafc0700b8fe0700000278009445880037
:1050340094458000e00f52007600320084458000e1
:105044000402420004024700a412900094ef2100dd
:10505400144278000482fb00848f52000a003a0054
:10506400844580008402420085024700850a90003e
:105074008502e80004024200040247007002420074
:10508400050a7800060037008445800004024200c7
:10509400040247007002420015002000050a78004f
:1050a40084458000d5ef2100954278008582fb007d
:1050b40004024200040247007a024200050a780012
:1050c4008445800095ef2100954278008582fb009d
:1050d40004024200040247004402b000050a7800ba
:1050e400844580000442780072bb29008040eb00b4
:1050f40004407800fb51070084458000cfa2de0005
:1051040086458000064378000401be0011c0b30048
:1051140006407800bf500700844580000402420026
:105124000402470024129000cfa2de0086458000ce
:10513400064378000401be0031c0b3000640780085
:10514400b450070084458000040242000402470072
:10515400540a9000040078008d4c0700144280002b
:1051640025042000048252001442880084458000f3
:105174001542800004024200040247007a02420001
:10518400050a7800844580000402420004024700b6
:10519400540a9000cfa2de008645800006437800c2
:1051a4000401be0081c0b300064078009950070096
:1051b4008445800004427800c2bc2900a1c0b30029
:1051c40004407800c75107008445800004427800f9
:1051d40002bd2900e1c0b30004407800c1510700ba
:1051e400844580000402420004024700040a90003f
:1051f400cfa2de0086458000064378000401be008d
:1052040001c1b30006407800825007001b4e07001e
:105214002400370084458000840242008502470050
:10522400f51290008502e8000402420004024700df
:10523400e402b000050a78008445800004024200bc
:105244000402470074129000f40f520014003a0054
:10525400844580000402420004024700e402b000d6
:105264008002eb00050a780084458000044278003f
:1052740072bb29008040eb0004407800995107007c
:1052840084458000cfa2de00864580000643780076
:105294000401be0011c0b300064078005d50070051
:1052a400fa4d0700db0a0700b4628000c562800083
:1052b40086458000064378000401be00d1c0b300d7
:1052c4000640780053500700250907009808070096
:1052d400140020006464880074638000e40f5200aa
:1052e40046ff32000002eb00240798002d0037002f
:1052f400881e2100090020002e02900004024200b2
:105304006122b9008003eb000803d0008400d000c0
:10531400010243004220a80085824c004200a900fb
:105324004220ae004200a8000482d300a6018000ff
:105334000500780004027800a0018800070a7800bc
:10534400a60188008a1921000b0020002e0290007b
:10535400040242006122b9008003eb000a03d0007a
:105364008400d000010243004220a80085824d0041
:105374004200a9004220ae004200a8000482d300eb
:10538400a60180000500780004027800a0018800ce
:10539400070a7800a60188002e0290000402e800a3
:1053a400240798002e029000e90f5200d0ff340029
:1053b4005f080700310807000002eb00544588002d
:1053c400bffb0700944580000400780077fd0700c8
:1053d400a80f0700004278000482fb00944588006f
:1053e400bafb070053003700b5fb07009445800063
:1053f400040078006dfd07009e0f0700004278004e
:105404000482fb0094458800b0fb070094458000ab
:1054140004007800ce3a0700b44380000402e90097
:10542400b443880084458000e40f520002003a002f
:10543400fe5b070042003700a1fb07009445800093
:105444000400780059fd0700a0fb0700aefd07002b
:10545400000278009445880094458000e00f5200d3
:10546400330032000002eb00340798000002eb0026
:10547400340798000c0037003e0290000442780084
:1054840004407800fd53070000027800e00f52004a
:1054940002003a00794d0700070037003e029000f1
:1054a4000402e8003407980094458000be0290008e
:1054b400848f5200f0ff350094458000040078008a
:1054c4003a3b0700e20007003a01070085458000e7
:1054d400a4a72000048242008042eb00054a780021
:1054e4000002eb00c453880074638000e30f520091
:1054f4000300320084fd0700000278009445880010
:10550400a0002000de390700544580000402e800b2
:105514005445880024a92000144278008482fb00aa
:1055240054458000848f520002003e00040037007e
:10553400564d0700b4438000e00f5200aaff3a0022
:1055440084a3200014427800e04f5200050032008a
:10555400300507000042eb000443780085a32000d7
:10556400864a78008e280700e225070054fb0700ce
:1055740054458000e00f52000a0032007900070011
:1055840084458000e10f520003003200844580000e
:10559400e20f520007003a000002eb00040f78000b
:1055a4000400370074638000e30f520001003a00e6
:1055b4001e0fe80074638000e10f52000300320004
:1055c40074638000e20f520027003a0024a92000ef
:1055d400144278008482fb0054458000848f52007a
:1055e40003003e000002eb00040f78001e003700a9
:1055f40054458000e00f52001b003a0084458000af
:10560400e10f52000900320084458000e20f52008d
:105614000600320084458000e30f5200030032008c
:1056240084458000e50f52000f003a001e0fe80089
:105634000002eb00745388000002eb0064538800fe
:105644001e027800e20f5200070034000002eb0053
:10565400040f7800804b0700440020009452880017
:1056640017fb07009b0407003d08070014002000f7
:105674006464880050fe37000000fa00844580000e
:10568400e40f520035003c00e20907008445800025
:105694008402420024a820000482420014027800fc
:1056a4006123b800b4628000c5628000840f530097
:1056b400858f5b0007003900b6628000c7628000f6
:1056c400743e200005002000840f5300858f5b008a
:1056d40009003e0084458000a5a720008502420001
:1056e400954278008542e800a6a720000602420001
:1056f400054a78000e00370085458000a4a72000e5
:105704000482420014427800e04f52000800320044
:1057140084458000a5a720008502420095427800b8
:105724008542e900a6a7200006024200054a780047
:1057340085458000a4a7200004824200144278001a
:10574400e54f52000500360085458000a4a72000df
:105754000482420055c0b300054a78000080fa0074
:10576400000006000000fa0074638000e30f52009a
:1057740004003a0032bd29008040eb0020c0b30091
:105784005850070074638000e20f520004003a008e
:1057940072bd29008040eb0020c0b30051500700c7
:1057a40074638000e10f520004003a00b2bd290086
:1057b4008040eb0020c0b3004a500700a45380008f
:1057c400e00f52000c00320072c920008040eb0050
:1057d40010c0b30043500700e4a420001442780032
:1057e4000482fb00050020000401be0021c0b300b8
:1057f40010c0b300074f07000080fa000000060045
:105804000000fa0074638000e30f52000e003200bf
:10581400c553800074de2f00848f520003003e00c5
:10582400c45380000402e800c4538800c4538000b9
:10583400e50f520004003600f2bd290071c0b30028
:1058440010c0b300275007000080fa0000000600d3
:105854000000fa0084192100050020009601800050
:105864000402d0004400b0004220a800e0824a00b4
:105874004220ae004200a8000482d30085037800d1
:1058840097018800040278001402780096018800c9
:10589400e00f520019003200844580008402420067
:1058a40084892000048242009402780074de2f0070
:1058b400848f52000a003e008445800004034200a5
:1058c4008589200085024300950278008502e8005e
:1058d400040342008489200004024300050a78007e
:1058e40084458000840242008488200004824200af
:1058f4008002eb00050a7800180037008445800018
:1059040084024200848820000482420094027800c9
:1059140074de2f00848f52000a003e00844580000c
:105924000403420085882000850243009502780024
:105934008502e80004034200848820000402430036
:10594400050a78008445800084024200848920008e
:10595400048242008002eb00050a78000080fa000d
:10596400000006000000fa0084458000e30f5200a6
:105974000300320084458000e40f52000b003a001b
:10598400844580008402420084892000048242000d
:1059940014027800e00f5200030032000002eb0012
:1059a4005445880001003700440007000080fa00d5
:1059b400000006000000fa008445800084024200d2
:1059c400848820000482420014027800e30f52000d
:1059d40001003600390007000080fa0000000600cc
:1059e4000400fa00889fbe000042eb0014479800b0
:1059f4000042eb00244798000042eb00044f78007b
:105a0400280037009e4078000182fb00881921009d
:105a140009002000040242006122b90096018000be
:105a24008803d0008400d000018243004220a800f3
:105a340085824c004200a9004220ae004200a8002a
:105a44000482d3008503780097018800040278005b
:105a54001402780096018800e00f52001000320012
:105a64001e429000e44f52000d003e001e4278009a
:105a74000482fb00050020000401be00ae4090003b
:105a840040c0b300634e07002e42900063424200c0
:105a9400244798001e4290000442e80014479800ee
:105aa4001e4fe8001e427800e94f5200d5ff360031
:105ab4004f04be000080fa00000006002400fa0033
