:020000040000fa
:080000000002040000000000f2
:020000040000fa
:1000080046030000460300004603000046030000c4
:1000180046030000460300004603000046030000b4
:1000280046030000460300004603000046030000a4
:10003800460300004603000046030000aae1000052
:1000480082e10000460300004603000050bd0000a6
:100058004603000046030000460300004603000074
:100068004603000046030000460300004603000064
:10007800b288000046030000460300004603000063
:100088004603000046030000460300004603000044
:10009800460300004603000086bd0000460300003a
:1000a8004603000046030000460300004603000024
:1000b8004603000046030000460300004603000014
:1000c8004603000046030000460300004603000004
:1000d80046030000460300004603000046030000f4
:1000e80046030000460300004603000046030000e4
:1000f80046030000460300004603000046030000d4
:1001080046030000460300004603000046030000c3
:1001180046030000460300004603000046030000b3
:100128004603000026bd0000460300004603000009
:100138004603000046030000460300004603000093
:100148004603000046030000460300004603000083
:100158004603000046030000460300004603000073
:1001680046030000d4bd000014be00004603000092
:100178004603000046030000be00000046030000de
:1001880080be00004603000046030000460300004e
:100198004603000046030000460300004603000033
:1001a8004603000046030000460300004603000023
:1001b8004603000046030000460300004603000013
:1001c8004603000046030000460300004603000003
:1001d80046030000460300004603000046030000f3
:1001e80046030000460300004603000046030000e3
:0801f80046030000460300006d
:020000040000fa
:1002080046030000460300004603000046030000c2
:1002180046030000460300004603000046030000b2
:1002280046030000460300004603000046030000a2
:10023800460300004603000046030000aae1000050
:1002480082e10000460300004603000050bd0000a4
:100258004603000046030000460300004603000072
:100268004603000046030000460300004603000062
:10027800b288000046030000460300004603000061
:100288004603000046030000460300004603000042
:10029800460300004603000086bd00004603000038
:1002a8004603000046030000460300004603000022
:1002b8004603000046030000460300004603000012
:1002c8004603000046030000460300004603000002
:1002d80046030000460300004603000046030000f2
:1002e80046030000460300004603000046030000e2
:1002f80046030000460300004603000046030000d2
:1003080046030000460300004603000046030000c1
:1003180046030000460300004603000046030000b1
:100328004603000026bd0000460300004603000007
:100338004603000046030000460300004603000091
:100348004603000046030000460300004603000081
:100358004603000046030000460300004603000071
:1003680046030000d4bd000014be00004603000090
:100378004603000046030000be00000046030000dc
:1003880080be00004603000046030000460300004c
:100398004603000046030000460300004603000031
:1003a8004603000046030000460300004603000021
:1003b8004603000046030000460300004603000011
:1003c8004603000046030000460300004603000001
:1003d80046030000460300004603000046030000f1
:1003e80046030000460300004603000046030000e1
:0803f80046030000460300006b
:020000040000fa
:100400002fa125000eff27000e018800000000002c
:10041000000020000000e000020032000001200087
:10042000200288000c00070060592d000100200008
:100430000f000700000020000000e0000200320072
:1004400000000200000000001e5f0200000000002b
:100450000040da000000fe00c05020000000e00074
:1004600002003200002020009001880000000600f9
:10047000a1028800800078000000eb001a0037001d
:10048000e280400054a0b4009101ba00e280400034
:1004900054a0b4009102ba00e280400054a0b4001d
:1004a0000002eb00472bde00f507b200a601880032
:1004b000602ce10008003a000049eb000201e8006e
:1004c000020039003420ec0002f0a0008301e900b2
:1004d000f9ff3e00040037006128e100010032000e
:1004e0000082eb00040007001101ba000200e000e6
:1004f000e3ff3a000000060004d0a300e20f490029
:100500001c003900810278003549ba000201e80078
:10051000020039003420ec0002f0a0008301e90061
:100520000f0032002549ba000201e800020039003c
:100530003420ec0002f0a0008301e9000800320042
:100540000400e0000600320015c9ba000201e8000c
:10055000020039003420ec0002f0a0008301e90021
:100560008180e80054a0b4000300e000e2ff3a00fc
:10057000000006009102ba00055978008301e900e5
:10058000f7ff3200c82ade00055978008301e90030
:10059000f3ff32000400e000f1ff320011d9ba008d
:1005a000eeff3700c05b040000000000c85b0400e1
:1005b00000000000d05b0400000000000000040008
:1005c000000000000002040000000000901c040075
:1005d00000000000b021040000000000681d0400bd
:1005e00000000000022a0400000000002224040091
:1005f00000000000d0220400000000006c25040070
:1006000000000000902604000000000022280400e2
:1006100000000000702e040000000000d62f04002f
:10062000000000007230040000000000f21c040012
:1006300000000000d630040000000000fc20040090
:1006400000000000981e040000000000b81d040017
:1006500000000000e224040000000000182504004f
:1006600000000000382504000000000028310400cc
:1006700000000000863204000000000014a6040000
:100680000000000014a70400000000000040da0091
:100690000000fe000a00fa00e20f500022003e00b7
:1006a000d4c08200e10f52000600320087232000f0
:1006b000462320002423200005232000e08f530040
:1006c00004003a0087222000462220002422200035
:1006d00005222000000028001500600003003a00f9
:1006e000800b780007002800958a730005402000e1
:1006f0009482620001003a0014a0a00082027800f7
:1007000006003700940378000710b200fdff3200a6
:10071000b103fb00070b78008502e900e08f52006f
:10072000f8ff3a000800370034002000c0bf9f00e7
:10073000e2bf9f00b4bf9f00d1bf9f006a805700f7
:10074000ad0907006fb99700020078000080fa0039
:1007500000000600889fbe0080047800e0c0820090
:10076000e00f500004003a000e0007000084eb0088
:10077000e00f500008003500e8c08200e08f540010
:10078000050032000900440006000700e00f500099
:1007900001003d000084eb00080078004f04be001b
:1007a00000000600e00f500004003a00e48125003c
:1007b000e4c08a0000027800060037000082eb00e7
:1007c00025a12500850f500002003e00e0c08a00f0
:1007d0000002eb0004007800000006000000fa00b0
:1007e00014118000044278006142620004407800e5
:1007f0000080fa00000006000000fa00941180005a
:100800000442780061426200044078000080fa00ef
:10081000000006000000fa009412800004427800f4
:1008200061426200044078000080fa000000060087
:100830000000fa00941580000442780061426200d2
:10084000044078000080fa00000006000000fa0072
:100850000411800066026200e60f520002003a00b6
:10086000341180000300370035118000f40f2000a0
:1008700004826200040078000080fa000000060094
:100880000000fa008411800066026200e60f520048
:1008900002003a00b411800003003700b511800057
:1008a000f40f200004826200040078000080fa0047
:1008b000000006000000fa00841280006602620058
:1008c000e60f520002003a00b41280000300370025
:1008d000b5128000f40f200004826200040078004a
:1008e0000080fa00000006000000fa008415800075
:1008f00066026200e60f520002003a00b415800062
:1009000003003700b5158000f40f20000482620058
:10091000040078000080fa00000006008f1fd1005c
:10092000990207008f87e9000000e0000000060040
:10093000809feb00940207008f87e9000000e00031
:10094000000006002800fa00889fbe008a9fbe00b3
:100950008c9fbe0003866b008f0007006400e100df
:10096000440032006408e1004a0032006100e10006
:10097000460032006108e10049003200ec06470001
:100980006000b8003d02be003d03be00f486570083
:100990006011b8003d04be003d05be007d0320008f
:1009a0000b0037000000a0008d06e90013003200a4
:1009b0000402420085824a0006034b0087834b00f5
:1009c0000000400081804800020149008381490005
:1009d0000802520089825a000a035b008b835b0085
:1009e000f0ff3b000802420089824a000a034b00e4
:1009f0008b834b008d06e900edff3a008482720084
:100a000086827200f707b20087827200010032000e
:100a1000150020001e0490003e0b900006035400b9
:100a2000e63fb0000368a300070032000000a70003
:100a30000500a0008301d1000281d3008180d30092
:100a40000080d3000603e8008301d1000281d300b7
:100a50008180d3000080d3000002eb000482d2002a
:100a60002100070003f0a1000cf0a70003f0a00094
:100a70005d003700640247006408e100570032005f
:100a80003400be003401be00f6ff37006108e1000b
:100a9000520032006011b8006000b800f1ff37006a
:100aa00003ff270002002000fbff3700839f680040
:100ab0000100e00002003d0060001000e08018002e
:100ac0000300e00002003d0060011100e081190018
:100ad000420107004f00e00002003b0060001000f0
:100ae000e0801800000006001800200057002000d9
:100af000080453000d003d000600200097fc2f0065
:100b00000740e1001e003400848272006102600030
:100b10008301d1000281d3008180d3000080d30003
:100b20000804e800f8ff3a00470020006104600074
:100b300005047400040464000d00320061004000ec
:100b4000e080480060014900e081490003b8a50049
:100b5000070032000603e8006538e10004003a00af
:100b60008301d1000281d3008180d3000080d300b3
:100b7000f87f20000830e10003003500080378000a
:100b80006000b8006011b8004433dd00f300b2002b
:100b90008301730000000600680447000294be0051
:100ba0000094be00fc0447008694be008494be00fe
:100bb000090078003d020700080078003b020700aa
:100bc00099007800814f70000b003b000800be00c8
:100bd000160207004f00b10003003700f3ff2700a3
:100be000f2ff2f006110b9004f06be004f05be0096
:100bf0004f04be000080fa00000006001400200030
:100c0000510237001400fa00889fbe008a9fbe0080
:100c10008c9fbe000004be000205be0068004700b5
:100c20000a90be000890be00200207000070a700d6
:100c30000bf0a100304320009e0290008082520001
:100c4000b0fe2f000028e10011003d00b0fc2f0095
:100c50000028e100150034001e0990008e08900065
:100c60007e0090000501b0000201d1008180d30018
:100c70000080d3008502e800fbff3a000b00e00093
:100c8000d9ff3b0060001000e0801800d6ff37005d
:100c9000f0ff2f00f1ff27000b00e000d2ff3b0028
:100ca0000100280000002000cfff37006000b800de
:100cb000cdff37004f89de00820178003d0237000a
:100cc0006011b8004b0237002800fa00889fbe0070
:100cd0008a9fbe008c9fbe0003866b00aeff07009c
:100ce0000028a30064003a000128a30067003a002e
:100cf0000008a30062003a000108a30065003a0062
:100d00001e009000be08900081064000ed3fb1003b
:100d1000f4805700ee019000111ab8008e0990007f
:100d2000311bb8009e099000311cb800511db8005d
:100d3000f485570046000700fe0190003a000700c6
:100d40008b85e8003e0007008e09900040000700f8
:100d5000ee019000340007008b85e80038000700a2
:100d60008e099000400007009e0990001b18b800f3
:100d7000890440000a854800fe0190003400070005
:100d80008b85e80038000700ee0190003000070076
:100d90008e0990001b18b800890440000a8548009d
:100da0000a98a30008003a000402420085824a0023
:100db00006034b0087834b0008044c0089844c00d9
:100dc0000a054d008d06e9008482720085027300d9
:100dd0004c3add008502720001003200150020004f
:100de000443ade001400b2004538de00cb45dd0099
:100df0000b007000c540de00cb4ddd008b80700025
:100e00004549de00cb55dd000b017100c551de0008
:100e10000d03780034ff070003f0a1000cf0a700d9
:100e200003f0a00070ff37001b18b80085024000d7
:100e300006834800e0834b0060044c000700370045
:100e40001b18b8000603400087834800faff3700ec
:100e50001b18b8008703400008844800e0844c0059
:100e600060054d00000006001b18b8000804400093
:100e700089844800faff37000108a30057ff3a00b1
:100e80005800be005801be00e3ff37000008a30071
:100e900052ff3a0009047800f9ff37001400fa0005
:100ea000889fbe008a9fbe008c9fbe000004be00cb
:100eb0000205be00680047000a90be000890be0010
:100ec0007a0107000078a3003d003a006100e100cc
:100ed0003c0032000bf8a3003d003a006400e10042
:100ee000380032006c0347001e009000f03fb10054
:100ef0003602be001603be000008a3000400320044
:100f00000402420085824a0006034b0087834b009f
:100f1000100798008e1f78006000b8006011b800bc
:100f20005c0020006d0120006e00200002003700f0
:100f30008d86e900fc0020000402420085824a0000
:100f400006034b0087834b00000440008184480067
:100f500002054900838549006060e1001d60ad0025
:100f60000804520089845a000a055b008b855b00e7
:100f7000030039001e60ad000802be000a03be0077
:100f80000c06e900ecff3b000e87e900e8ff3b00a0
:100f90004f07780061026000840278008301d1006d
:100fa0000281d3008180d3000080d3001e03900013
:100fb00041b3de00f63fb000cbfe07000aff37006a
:100fc0000b30a0000800be000a01be0006ff37007b
:100fd000120220000240880000ff37006022b800a3
:100fe000060220000000d0008180d2000482d200de
:100ff0008582d2000000a0000202520083825a00c3
:10100000030031000202420083824a000000a10076
:101010000603e900f3ff3a0000000600889fbe00c7
:101020008a9fbe003004be002005be0004044400b8
:1010300085844c0006054d0087854d000898be004c
:101040000a90be000440e10005c8e10006d0e100be
:1010500007d8e10002003100680040001008e800f5
:101060004f05be004f04be00000006001000fa004d
:10107000889fbe008a9fbe00110020000605be00aa
:101080000404be003002be002003be00c4b79f00af
:10109000d5b79f00e6b79f00f7b79f000802520040
:1010a00089825a000a035b008b835b0084bf9f0028
:1010b00095bf9f00a6bf9f00b7bf9f000498be00ca
:1010c0000698be004fb29700dfb297006fb397004b
:1010d000ffb397000820e10009a8e1000ab0e10091
:1010e0000bb8e100010039008000eb004f05be00a5
:1010f000108810004f04be000080fa0000000600b7
:101100001400fa00889fbe008a9fbe008c9fbe001c
:101110000006eb003e000700ccb79f00bcb79f0065
:10112000acb79f009cb79f008cb79f000605be0020
:101130000404be000d0420004fb39700bfb2970017
:10114000860343002fb29700e00f530004003d00d8
:101150003d0007000f004000b0ff0700030037000c
:10116000390007000f004000c0ff0700cfb2970012
:1011700095bf9f00e08f5200090035002b0007004b
:1011800014002000050020006033b8000000720049
:101190008180720002017300838173001c000700cc
:1011a0000c06e8008d0f5600e3ff3a001fba9700c7
:1011b000e00f520005003d000802be000a03be0019
:1011c00000fe2f000f00400094ff07004faa970079
:1011d000e00f520008003a000fb497009fb4970048
:1011e0002fb59700bfb59700d8b79f00e9b79f000c
:1011f000fab79f008bbf9f000c0007004f06be0090
:101200004f05be004f04be000080fa00000006003b
:10121000010007000000060090b79f00a1b79f00e3
:10122000b2b79f00c3b79f0000000600010007008f
:10123000000006001fb09700afb097003fb19700c5
:10124000cfb19700000006004f2bde00f9ff07002a
:1012500086837300858242004f23de00a7b79f007c
:10126000868272000402420095b79f00ffaa970091
:101270004f2bde00858242000602720084b79f0079
:101280006faa97004f23de0004024200868272009c
:10129000f5af9f004f18de0000027200e5ff070067
:1012a000e4af9f0000004000818048000201490037
:1012b000838149000802be000a03be00d6ff070072
:1012c00000fe2f0000000600881f78001800200094
:1012d000881f78008aff07008f87e9004f04780095
:1012e00000000600889fbe008a9fbe008c1f780009
:1012f0000006eb00e00f5000e08f5800e00f5900af
:10130000e08f590007003d006044b8006055b80008
:101310001c0020000000540081805c0002015d0080
:1013200083815d00e00f5200e08f5a00e00f5b0008
:10133000e08f5b0007003d006044b8006055b800d6
:101340000c00a2000402540085825c0006035d00cc
:1013500087835d00da000700e00f560006003200c8
:101360006022b8006033b8000000520081805a004b
:1013700002015b0083815b004f0678004f05be00d1
:101380004f04be0000000600889fbe008a9fbe007a
:101390008c9fbe000404be000605be00809fbe00f8
:1013a000829fbe002f000700040678000800be00e0
:1013b0000a01be002b000700840678004f03be0020
:1013c0004f02be008d4f76007fb0970013003300b0
:1013d000f0ff2f008b8f6b0006003b000d066600b0
:1013e0000c00a7000a00370007f0a600100020003c
:1013f0000a003700880f5200898f5a008a0f5b005d
:101400008b8f5b00030039001000200001003e00bc
:101410000000200007f0a7000000ea004f06be0011
:101420004f05be004f04be0000000600e4824000ed
:101430001078a30007003200640240001178a30076
:101440003400be001401be00040032000330a700c7
:10145000000006003500be001501be000330a000ec
:101460000000060005ff270005826100070032002a
:101470000428e100010032002400050006000700f6
:1014800001003a00440005000408050002000700be
:10149000f9ff3a00140005006f82610081027000bc
:1014a000850271008502720000000600800078004d
:1014b0005002be005003be004439de00f700b20007
:1014c000f37f200003016100090032000218e100ef
:1014d00016003a0085017200830173008381730056
:1014e0000008200015003a004000200013003700db
:1014f00085017200830173008381730005003a0047
:1015000004a8be0006a8be00100020000b00370093
:101510000201e9000402420085824a0006034b00f2
:1015200087834b000748a300f9ff32000740a00063
:1015300004a8be0006a8be0020002000800098007d
:101540009200980000000600889fbe008a9fbe009f
:10155000841f7800520007004f007800110033000c
:10156000f0ff2f00838f6c0006003b000405650030
:101570000a00a7000800370009f0a60010002000ac
:1015800008003700820f5400838f5c00030039008d
:101590001000200001003e000000200009f0a7001c
:1015a0000000ea004f05be004f04be000000e0004e
:1015b00000000600881f7800030478000300e000a4
:1015c00007003d0060001000e08018006001190075
:1015d000e081190002003b0001f02d0003003700fc
:1015e0000400070008f0a70003f0a0004f047800f3
:1015f00000000600889fbe00008270000402710097
:10160000048271002400320036432000c50020000f
:101610008383cf000a0039000541b1008283cf00e7
:10162000070039000541b1008183cf000400390073
:101630000541b1008083cf00010039000541b100b0
:1016400085c353006022b800120032000a003b003c
:1016500084827200610260008301d1000281d300a4
:101660008180d3000080d3000603e8008743e800b0
:10167000f7ff3a0007003700000040008180480073
:1016800002014900838149000603e9008743e9001c
:10169000f9ff3a0014fd07004f04be0000000600e9
:1016a0000004be00280007000003be000405be00c1
:1016b0000200be0024000700844f750000000600f1
:1016c000889fbe008a9fbe008c9fbe000404b800a5
:1016d0000506b8008904460060854e000606b8007d
:1016e0000a054600e0854e000706b8008b05460057
:1016f000040eb800890446000a854e00e0854d00be
:10170000050eb8000a0546008b854e00060eb8008f
:101710008b0546000416b8000a0546008b854e006e
:101720000516b8008b054600041eb8008b05460060
:101730000800be000a01be004f06be004f05be00f5
:101740004f04be0000000600c70ade00f107b20029
:10175000f50fb20008003200e1cf42000200320073
:101760000170a00024000500810f7000010032000c
:101770000408050044000500810f700002003a00d3
:10178000140005008502e9000000400081c0480007
:10179000fcff3b000170a0002400050006c2b3005e
:1017a0000002780004007800b042780086cf520032
:1017b000fbff3200e9cf5200f9ff3200d6c2b3007e
:1017c00086cf520003003a000002780016c0b30032
:1017d000050037000043eb00b7c2b30087cf5200cb
:1017e00001003a00000278000000eb000200370020
:1017f0006a00b90000804200b402fb000503b1009a
:10180000e98f5200faff3600e04f5300010032002a
:101810000000ea00000006008103780080017800e3
:1018200007027800010037008501780011000900e7
:101830000282d8008302e80000027800e00f520024
:10184000f9ff3a00844a7800110009008283d80029
:10185000800278000142780085037800e94f520049
:10186000010034006742420001c3b30081514200cd
:10187000e08f5200f4ff3a000300780000000600f9
:10188000881f780000047800e08f500005003d00bc
:1018900008007800d4c2b3008100ea000458780040
:1018a0000100370008007800dbff0700080078001f
:1018b0004f04780000000600a47e2500e48747005e
:1018c00055bf8200889fbe008a9fbe008c9fbe00cd
:1018d0008e1f7800e08f52000b003a00240298001f
:1018e000e402420084c08a0055bf8a0095c08a0085
:1018f000a44290000504a00025429800e442900014
:101900000504a0006542980067044000e4812500ba
:10191000250020004244de0029a125004244dd00cc
:101920008484540005074400110009008504d80090
:101930005ca1250082c082000406560080bf9f0083
:101940000e0747000003eb00e405440008064600cc
:1019500002003700160020000d017800224290009e
:1019600061026200020032000a00370015097800a7
:10197000920278002542900061026200fbff320073
:1019800008024100848f520002003900e00f540029
:101990003f003d00920678000d00a100828f5600a6
:1019a000edff3e00e10f5300eaff3a000fba970047
:1019b000840f540002003600890f540010003900d3
:1019c000614ab900b0ff2f00010020006143b80058
:1019d0000402500085825800840f5300858f5b00fd
:1019e000020035000b0578000600370011000900e1
:1019f0000986d8000982b900040578000100370083
:101a00000e0578000a00780052fb0700e10f400045
:101a100005003a000b0578000b0078004dfb07002d
:101a2000e10f40002b00320094c08200000a7800d1
:101a300094c0820064034200a4429000860f5000cc
:101a4000020032000504a000010037000504a100d7
:101a50002542980064055500a47e25000a05400033
:101a60000a0878009ac08a00040d780095c08200a8
:101a70000003eb00254290000404a000a44298005b
:101a8000204290000404a10024409800b2ff3700d7
:101a900084c08a00848f5200070036001403be0001
:101aa0008042eb0026c08a0037c08a00120a780004
:101ab00084c08200254298002242900087c08200a4
:101ac0000404a00007097800244198006400410044
:101ad000010037000000eb004f0778004f06be0002
:101ae0004f05be004f04be004f00b10000000600cd
:101af000e00f5000080032006400500084c08200f3
:101b0000840f50000100310080c08a002042900004
:101b10000404a100244098000000060000027800a0
:101b200002003700315a78000201e900e00f51004d
:101b3000fcff3a000000060000027800808f500091
:101b40000800310082824000808f5200050036007c
:101b500002024000456278000201e900fdff3a0000
:101b600000000600e00f510003003200315a7800f7
:101b70000201e900fbff37000000060000027800c8
:101b800002003700015a78000201e900e00f51001d
:101b9000fcff3a0000000600889fbe000004be0063
:101ba000050037000000fb0089007800fb030700f8
:101bb000e10f40000400320038407800e04f500050
:101bc000f8ff3a000000eb004f04be0000000600e2
:101bd00001772500881f7800efff070001772500b7
:101be00000047800a0002000ec0307000800780043
:101bf0004f0478000000060000027800840278009c
:101c0000050278000043eb00b44f1300fbff3a00dd
:101c100031427800845a7800e04f5200fcff3a00cd
:101c200000000600b042780031c2520002003a00c3
:101c3000e0cf5200fbff3a000400fb00000006006a
:101c400000027800b1427800055a7800e0cf5200d7
:101c5000fcff3a0000000600000278008042eb0022
:101c6000b4cf1200fdff3a000080ea0000004200fd
:101c700000000600000278000600370031437800bb
:101c80000201e900065a780084027800e04f530010
:101c90000600320084027800e00f5100f7ff3a009e
:101ca00002003700805aeb000201e900e00f51000a
:101cb000fcff3a0000000600889fbe000004be0042
:101cc0000c00370009007800e3ff07008900780066
:101cd0000001780008007800f4030700e00f5000ce
:101ce0000a0032000800e8009900fb000a00070023
:101cf00000047800e00f5400040032000042eb00c2
:101d0000984f1200efff3a000004eb000800780043
:101d10004f04be00000006000002eb00881f7800a0
:101d20006103b800060478006121b8000600410094
:101d3000e842790081cf5200040032000402e8003a
:101d4000e0cf5200f8ff3a000000eb004f047800ab
:101d5000000006000c00fa00889fbe00f4ff270078
:101d600000047800d4bf9f008004eb0088bf9f0070
:101d700099bf9f00a8bf9f00240c200078815700c6
:101d8000b4bf9f00cfb097007080570007000700d6
:101d90000fba9700094a78000fba9700080052005e
:101da0004f04be000080fa0000000600ef03b00000
:101db000889fbe008a9fbe008c9fbe008006780070
:101dc0008e1f78000007eb00d1af9f00a2b79f00e5
:101dd00066033700dfa8970054c2b3008100e80013
:101de000d1af9f00844f500006003a0001027800f6
:101df0000006eb0001c3b30000c2b300b7c2b300da
:101e00000e0037003d0290000404b20004003200ce
:101e10001d027800004a7800840ee80005003700b3
:101e20000000fb008d0078005c030700e10f40001c
:101e30004e0332000e07e8004c033700840278009e
:101e4000d2c2b30034437800824f530009003200fd
:101e500005003c00804f530008003200874f5300bc
:101e60000c003a0007003700814f530009003a0088
:101e7000060037000c30a000f0ff37000c00a00077
:101e8000eeff37000c10a000ecff37000c20a00084
:101e9000eaff370062026600010032000c00a10078
:101ea00068026600010032000c20a1000602fb005f
:101eb0000403b100e90f52000c003e000503780056
:101ec0000002eb00b603fb006a22b9000703b10071
:101ed00086027800048243009603fb000703b100ea
:101ee000e98f5300f7ff3600080037000002eb00cf
:101ef000a7c2b300874f530004003a00afb1970068
:101f00008502e80043027800a3b79f000003eb00be
:101f100096b79f00e6c2b300954f13000c003a003d
:101f20000ce0a00064435300d54f130003003200bf
:101f3000050378000000eb0009003700afb39700fd
:101f40008502e80047047800a7b79f0098b79f0074
:101f500005037800090037006a00b90000804300db
:101f600086027800b603fb000703b100e98f530037
:101f7000f9ff360090b79f00f5ff3700b6427800b2
:101f8000cac6b300d6af9f008acf520025003200e8
:101f90000f003c0036c6b30086cf52009e003200d0
:101fa00004003c00e0cf5200f50232006b435300c6
:101fb0000f00370046c6b30086cf5200170032002c
:101fc0006543430086cf5200b2003a001300370049
:101fd00036c7b30086cf52001f00320007003c0016
:101fe0006443530086cf5200140032000643e800d9
:101ff00086cf5200a7003a001300370056c7b3003f
:1020000086cf5200aa0032006343430086cf5200bd
:10201000a0003a00e5779f000d003700e5779f00ac
:10202000a5003700f0036600050120000100320022
:10203000050028000c867200d0ff3700e5779f006e
:102040000c60a0009c003700e5779f000c50a000ba
:102050000c70a00098003700afb59700e5779f009f
:10206000cb027800abb79f00b5b79f00e08f52005e
:1020700002003a0041732500b1b79f003fb39700bb
:102080008002eb00010037008502e800e6c37a0019
:10209000e0cf5300fcff3a00c5b79f001fb1970087
:1020a000e00f510005003200cfb19700830f5100bf
:1020b0000200310082027800c5b79f00cfb29700be
:1020c0000004eb00850f52000100360005045200a9
:1020d0006806660009c2b3000f003200290037000d
:1020e0003d0290000404b200040032001d0278009a
:1020f000094a7800840ee800050037008d0078005a
:1021000000022000a5020700e10f4000010032009c
:102110000e07e8000804e900e00f5400f0ff3a0061
:102120000084eb0017003700bd0290000504b200e8
:1021300009003200880278009d037800354378005a
:10214000864b780005047800870ee800e04f5300c6
:102150000a003a0011003700880278008d007800ec
:102160003500fb0084bf9f00050478008b02070048
:102170000fba9700e10f4000080032000e07e80098
:10218000060037000c027800080678003fb497007c
:10219000cfb497005fb59700efb59700890278003c
:1021a0008504e900e08f5200dfff3a00b8b79f00d6
:1021b000c9b79f00dab79f00ebb79f000c04780007
:1021c00009c2b30004067800e00f56000f003a0081
:1021d000660237003d0290000404b20004003200a1
:1021e0001d027800094a7800840ee80005003700d7
:1021f0008d0078000002200068020700e10f400017
:10220000010032000e07e8000804e900e00f540066
:10221000f0ff3a0055023700afb097007003660038
:1022200041047800a1b79f00cfc4de000905780003
:102230008a0578000800be000a01be004800de00e2
:10224000c80add0000807200e0779f00e00f5300b5
:1022500009003200e04f500007003200e14f40001b
:102260000500320026002000f0779f00887f9f0045
:10227000c6b79f000300370017002000c7b79f00b4
:10228000f8779f0078fb2f0008844700b8b79f00bd
:1022900082ff370069fb2f001a0020008984470065
:1022a000e5779f00b9b79f00cab79f007bff370053
:1022b000e5779f000c0cb3008c027800050cb2008f
:1022c0003b003a00e00f560005003d00afb297001a
:1022d0004501be004500be00a5b79f000f003700b6
:1022e000f0026600120032002fb497004803be00cf
:1022f000f69f9f0087a79f00a8b79f0098029000b5
:10230000cfaade0095a79f00a5a79f007f98970002
:102310008fa097001fa19700afa19700b0b79f00b3
:10232000c1b79f00d2b79f00e3b79f000b003700f3
:10233000afb09700c102780005047800cfc4de007a
:10234000090578008a057800a1b79f00b8b79f00fb
:10235000c9b79f00dab79f00ebb79f003fb0970067
:10236000cfb097005fb19700efb19700e00f50003a
:10237000e08f5800e00f5900e08f590032003d0017
:102380006000b8006011b8003fb49700cfb4970068
:102390005fb59700efb597003c00b300080450000c
:1023a000898458000a0559008b855900220037009e
:1023b000e00f560005003d00afb297004501be009a
:1023c0004500be00a5b79f000f003700f002660071
:1023d000120032002fb497008004eb004803be00c7
:1023e0000005eb0096af9f00a7af9f00b9af9f001d
:1023f000caaf9f001fa89700afa897003fa99700fa
:10240000cfa99700a8b79f00b0b79f00c1b79f00a2
:10241000d2b79f00e3b79f000b003700afb0970023
:10242000c1027800a1b79f000504780009002000d0
:102430000a0020000b002000b8b79f00c9b79f001a
:10244000dab79f00ebb79f009fb49700e08f54006e
:102450000d003a001a0020003fb09700cfb097005f
:102460005fb19700efb197009ab79f00e00f50005f
:10247000e08f5800e00f5900e08f59000200320051
:102480008000eb0091b79f000c017800050420004c
:10249000020cb20082b79f00850f51003400320059
:1024a00003003c00e00f51000800320048003700f4
:1024b000050820008fb19700858f5100140032006d
:1024c000050c2000858f510041003a00465f250031
:1024d00015c0b3003600be003601be003fb4970001
:1024e000cfb497005fb59700efb597000040e100cb
:1024f00001c8e10002d0e10003d8e1003300390057
:102500008542e800f4cf5200f2ff3a002f00370076
:1025100015c0b30000012000010020006011b800c8
:102520003fb49700cfb497005fb59700efb5970021
:102530000040e10001c8e10002d0e10003d8e10061
:1025400022003900490020000000d0008180d20024
:102550000281d2008381d2008904e900faff3a00a7
:102560008542e800f0cf5200edff3a001700370037
:1025700015c0b30080002000010020006011b800e9
:102580003fb49700cfb497005fb59700efb59700c1
:102590000040e10001c8e10002d0e10003d8e10001
:1025a0000a003900390020000000d0008180d200ec
:1025b0000281d2008381d2008904e900faff3a0047
:1025c0008542e800f5cf5200edff3a00e5779f0025
:1025d0006f7597009fb597008a02fb008b8f5200a2
:1025e00002003d00eb779f00040037001fb097000a
:1025f000850f500001003d0095b79f00e00f52008d
:1026000003003200e3026600010032000402e90028
:102610000500240085026600060032009fb0970086
:10262000810f520002003400010252000100370005
:102630000002eb006f7197008001eb008202fb004b
:10264000f3af9f00850f5200020034008502520054
:10265000f5af9f00640266003b003200e2026600b4
:1026600061026600e08f520011003200bd0290004e
:102670000504b200080032009d027800b6c2b30023
:10268000e00f52000100320006c3e800864a7800dd
:10269000850ee80015003700b0022000e00f520060
:1026a000010032000080e8008d0078000c00370047
:1026b000e00f52000e0032003d0290000404b20010
:1026c000050032001d02780005c2b300054a7800fb
:1026d000840ee800050037008d007800000220001d
:1026e0002e010700e10f4000010032000e07e80054
:1026f0007faa9700e00f52004f00320008c3b300da
:10270000840478003d0290000404b200040032000a
:102710001d027800084a7800840ee80005003700a2
:102720008d007800000320001c010700e10f40002d
:10273000010032000e07e8008904e900f1ff3a00c9
:10274000f9af9f003c003700ffaa9700e08f5200ce
:10275000140032006802660012003a0008c2b3009a
:10276000850478003d0290000404b20004003200a9
:102770001d027800084a7800840ee8000500370042
:102780008d0078000002200004010700e10f4000e6
:10279000010032000e07e8008904e900f1ff3a0069
:1027a000f9af9f00e202660061026600e08f52000e
:1027b00011003200bd0290000504b2000800320092
:1027c0009d027800b6c2b300e00f52000100320053
:1027d00006c3e800864a7800850ee8001500370039
:1027e000b0022000e00f5200010032000080e8003b
:1027f0008d0078000c003700e00f52000e00320010
:102800003d0290000404b200050032001d02780071
:1028100005c2b300054a7800840ee80005003700c1
:102820008d00780000022000dc000700e10f40006e
:10283000010032000e07e8001fb39700c55e2500b7
:102840000602e900f0046600c223dd000c057800f2
:10285000c7a79f000a02b2006323b900e99f9f0047
:10286000060478004322dd00b8a79f0085024200dd
:10287000da9f9f00e5af9f00a30037009fb5970048
:102880000fb097008b05e900010420009bb79f0063
:10289000810f50007300320003003c00e00f500035
:1028a000080032007e003700040820000fb19700b6
:1028b000840f510056003200040c2000840f510098
:1028c00077003a00e00f56001f003d00efa9970087
:1028d0003304be002305be003fb09700cfb0970081
:1028e0005fb19700efb197000802be000a03be0077
:1028f00075fa07000802be000a03be00e0779f00d9
:102900000000fb00cf80de0001017800820178002a
:1029100074fa07003fb29700cfb297005fb39700f9
:10292000efb397000002520081825a0002035b005d
:1029300083835b00b4b79f00c5b79f00d6b79f00e5
:10294000e7b79f002e003700ef9a9700e08f520004
:10295000220032006fab97003fb29700cfb29700d2
:102960003604be002605be000400be000801be00fd
:1029700084bf9f00f5b79f000005eb0097f90700a3
:102980000801be00e0779f000000fb00cf80de0062
:102990001b0107000fba9700ffb297008aaf9f0094
:1029a0000004520081845a00d8a79f00e9a79f0025
:1029b0008004eb00f9a79f005fa09700efa09700ad
:1029c0007fa197008fa99700b0b79f00c1b79f0064
:1029d000d2b79f00e3b79f0009003700efa8970028
:1029e0003fb1970011027800110009000481d8005e
:1029f000a4002000110009000480d800e1779f00a6
:102a0000ef7197000343b000e3779f002400370085
:102a100034722500df9a9700e08f520001003200e7
:102a2000247125003fb09700cfb097005fb19700a9
:102a3000efb197004fa397000603e90005003300ac
:102a40008301d1000281d3008180d3000080d300b4
:102a5000f9ff37006f00600064407800e0779f0066
:102a60000f0037003fb29700cfb297005fb39700d7
:102a7000efb397003fa497000804e9000500330076
:102a80008703d1000683d3008582d3000482d3005c
:102a9000f9ff3700674262000443b000e4779f000b
:102aa0003d0290000404b200070032009d0278004d
:102ab0006f729700844a7800850ee800e04f52005c
:102ac00007003a0007003700ef7497008d00780088
:102ad0000900fb0031000700e10f40000100320057
:102ae0000e07e8004fa59700bfa597006fa89700b5
:102af00064055500e385550068005000caa79f0093
:102b0000bba79f00e0af9f009fb09700e08f5000f1
:102b10005aff3a0068066600140032007fa9970049
:102b2000e00f51001100340008c2b30082047800a5
:102b30003d0290000404b200040032001d0278003f
:102b4000084a7800840ee800050037008d00780000
:102b50000002200011000700e10f400001003200d8
:102b60000e07e8008904e900f1ff3a00dfa99700a9
:102b700013407800e0779f00e04f500095fc3a004a
:102b80000e0078004f0778004f06be004f05be00cc
:102b90004f04be00ef03b10000000600889fbe0096
:102ba000010478008084eb0038029000e2026200a9
:102bb0003b00320004037800980290000620b20027
:102bc00002003a00e08f520035003a000490a00065
:102bd0008004780034049800f90fb200e08f5200ae
:102be00002003a00a8029000050c7800ea8f540019
:102bf00005003a000408b20003003a00880078009b
:102c0000d0002000e5ff070018029000d8029000d5
:102c1000850f52000b0032000402e80015c0b3001b
:102c20001404980018027800094a7800040ce8009f
:102c300044812500054a7800ea8f540018003a00c4
:102c40000500370009407800880078002800070058
:102c50008004780012003700380290000410b2009f
:102c60000f00320018019000a8009000480090006a
:102c700088f6070018029000840f5000040032000c
:102c8000380290000403b300340498008084eb0001
:102c90000002eb001404980028029000040c780055
:102ca000090078004f04be00000006000b0037004a
:102cb00030427800e04f5200030032000201e90088
:102cc000b14f5200050032000480fb0095427800ad
:102cd0008582fb000500500000000600810278009c
:102ce000e00f5100f2ff3a000200780000000600f9
:102cf0000200fa00889fbe0001047800a0ff9f0038
:102d000038029000840278000504b200020032000c
:102d10000000fb0035003700e202620005003a00c7
:102d20000403b30015049800340498000080eb00fd
:102d30002e003700d8049000e08f540006003a00bf
:102d400012002000e68057004800900051f607006e
:102d50001904980023003700a8029000e08f520069
:102d600008003a00858125000430a0002504980061
:102d7000050c7800340498002500200055049800c4
:102d80001504980018019000a800900048009000d9
:102d900040f60700280290008082eb00150498009e
:102da000affa9700054a7800040ce8002ffa970064
:102db000ea4f52000b003a00380290000410b200b3
:102dc0000800320018019000a80090004800900010
:102dd00030f607000002eb00a802900014049800ef
:102de000050c78002ffa97000400fb004f04be008a
:102df0000080fa000000060000c0da0000000600b3
:102e0000020ab900001bb9000200b80081004200ac
:082e10008100430000000600f0
:020000040000fa
:102e1800415400000d0a0000004f00004b00000064
:102e2800415400002b430000504900004e3d000073
:102e380038340000383600000d0a00000041000058
:102e4800542b0000434300004c4b00003f0d000092
:102e58000a000000415400005a0d00000a0000005a
:102e680041540000480d00000a00000041540000d1
:102e7800453100000d0a000000410000542b0000fd
:102e88004347000041540000543f00000d0a000071
:102e9800002b00004347000041540000543a000052
:102ea8002031000000410000542b00004350000076
:102eb8004f5300003d3000000d0a000000410000a3
:102ec800542b000043470000444300004f4e0000cd
:102ed800543d0000312c00007c490000507c00006b
:102ee8002c7c000067700000727300002e6f0000d9
:102ef800692e0000636f00006d2e000062720000f2
:102f08007c0d00000a000000415400002b55000011
:102f180050530000443d0000302c0000312c0000cc
:102f28007c6f0000697c00000d0a00000041000071
:102f3800542b000055500000534400003d30000061
:102f48002c3200002c7c00006f6900007c0d000012
:102f58000a000000415400002b55000050530000a7
:102f6800443d0000302c0000332c00007c6f000032
:102f7800697c00000d0a000000410000542b00008d
:102f880055500000534400003d3000002c34000030
:102f98002c7c0000382e0000382e0000382e00004f
:102fa800387c00000d0a000000410000542b00008e
:102fb80055500000534400003d3000002c370000fd
:102fc8002c7c0000302e0000302e0000302e000037
:102fd800307c00000d0a000000410000542b000066
:102fe8005550000053440000413d0000302c0000c3
:102ff800330d00000a000000415400002b5500006a
:10300800505300004e4400003d3000002c380000b2
:103018000d0a0000002b000055500000534e000020
:10302800443a0000203000002c3800002c31000009
:1030380000410000542b0000554600005450000089
:103048003d3100002c7c0000363600002e3900008f
:10305800362e000031340000372e000031300000d9
:10306800367c00000d0a000000410000542b0000cf
:1030780055460000545000003d3200002c7c0000f2
:1030880066650000726e0000616e0000646f0000eb
:10309800636100007c0d00000a000000415400003c
:1030a8002b55000046540000503d0000332c000012
:1030b8007c4c000075630000617300002d32000035
:1030c800387c00000d0a000000410000542b00006d
:1030d80055460000545000003d3600002c300000da
:1030e8000d0a000000410000542b00005546000066
:1030f80054500000433d0000310d00000a0000005c
:103108002b55000055460000545000004352000063
:103118003a200000312c000031000000315300003b
:1031280032200000257300002025000073200000d5
:10313800257300002025000073200000257300007f
:1031480020250000732e0000706b00007400000042
:10315800415400002b550000465400005043000025
:103168003d3700002c7c0000257300007c0d00001a
:103178000a000000434f00004e4e00004543000087
:10318800540000002b2b00002b0000000041000021
:10319800542b0000434900004d4900000041000045
:1031a800542b00005546000054500000433d0000d9
:1031b800300d00000a000000415400002b430000bd
:1031c80050570000524f0000464600000d0a00000c
:1031d80000310000533200002c250000732c000041
:1031e800256400002c250000642c000025730000d5
:1031f8002c250000732c0000312c000025640000f1
:103208002c250000732c0000257300002c240000de
:1032180047500000524d0000432c00003137000099
:1032280033310000313400002e300000303000000f
:103238002c4100002c32000033330000322e0000f5
:1032480037300000323100002c5300002c300000d1
:1032580034360000333900002e37000035320000c4
:10326800332c0000572c0000302e000030300000b6
:103278002c2c0000323500003038000031340000ba
:103288002c2c00002a310000440a00000025000010
:1032980030320000642f0000253000003264000046
:1032a8002f3200003025000030320000640000009a
:1032b80025300000326400003a250000303200005a
:1032c800643a00002530000032640000005300001a
:1032d800756e0000004d00006f6e00000054000085
:1032e8007565000000570000656400000054000088
:1032f8006875000000460000726900000053000075
:1033080061740000004a0000616e00000046000081
:1033180065620000004d000061720000004100007d
:1033280062720000004d000061630000004a000066
:10333800756e0000004a0000756c00000041000036
:103348006775000000530000656e0000004f000024
:1033580063740000004e00006f7600000044000017
:1033680065630000000a00000d4500004e4400009f
:103378000a0d00000000000014000000c800000052
:103388000a000000415300003339000039330000bf
:103398002052000065610000646500007220000092
:1033a80046690000726d00007761000072650000d8
:1033b8007c7c0000415300003339000039330000a1
:1033c80020460000455200004d49000020520000f0
:1033d800656100006465000072200000486100001b
:1033e80072640000776100007265000020310000ff
:1033f8002e3000000041000053330000393900002e
:10340800332000005265000061640000657200000e
:1034180020460000697200006d77000061720000ac
:103428006520000025680000687800002e2500004f
:1034380068680000782e00002568000068780000a1
:10344800206f00006e200000415300003339000057
:103458003933000020460000455200004d49000065
:1034680020520000656100006465000072200000c1
:103478004861000072640000776100007265000016
:10348800203100002e3000000a0000000802000071
:1034980002000000535400002e4400006573000031
:1034a800630000002530000032780000253000005d
:1034b800327800002530000032780000002d00002e
:1034c8000025000064000000303000003a300000a1
:1034d800303a000000410000203a0000202000009f
:1034e80020200000202000002020000020200000d4
:1034f80020200000202000002020000020000000e4
:10350800646200006d000000433a000000500000b3
:10351800613a000000520000653a000000460000d1
:10352800723a0000004100004c46000000200000f4
:103538002020000020200000202000002020000083
:1035480000500000463a000000500000543a0000c5
:103558000020000020000000414c00005200000044
:103568005a45000046200000200000005a4500008f
:10357800542000002000000020200000202000002f
:103588002020000020200000000000002020000073
:103598002020000020410000555400004f2000006a
:1035a800544500005354000045200000202000002e
:1035b8002020000000450000727200006f2000000b
:1035c8006e6f00002073000069730000742e000005
:1035d8002064000065200000524600002100000021
:1035e80045720000726f0000206e00006f2000001e
:1035f80073690000737400002e200000475000001b
:10360800525300002100000045720000726f000054
:10361800206e00006f2000007369000073740000c2
:103628002e200000584200004545000021000000ff
:1036380045720000726f0000206e000061200000db
:103648006d6500006d2e0000204900003243000027
:103658002100000045720000726f0000206e00001b
:1036680061200000636f00006d2e000020470000fd
:10367800505300002100000051540000442e000067
:103688003a200000202000002000000045500000e3
:10369800433a000020000000202000002000000025
:1036a800202000002020000000520000535300009a
:1036b800493a0000200000002020000020540000ab
:1036c8006573000074650000206400006520000038
:1036d8005253000053490000202000002020000021
:1036e800004900003a200000005100003a20000084
:1036f8000054000041470000733a00002000000019
:1037080020200000202000002020000020200000b1
:1037180020200000202000002020000020000000c1
:103728002f00000061700000706c00004669000006
:10373800726d00007761000072650000496e00003c
:10374800666f0000726d000061740000696f000010
:103758006e2000006e6f000074200000737500007a
:10376800707000006f720000746500006400000053
:103778002530000032780000253000003278000043
:103788002530000032780000253000003278000033
:103798002530000032780000253000003278000023
:1037a80000000000436f00006e740000726f00009c
:1037b8006c2d000055700000004d00006172000083
:1037c800732000004f6e0000650000004461000097
:1037d800646f0000733a0000004800006561000053
:1037e80070200000766100007a6900006f210000f7
:1037f80000000000400200004202000044020000f5
:10380800480200006002000062020000640200003a
:103818006802000025730000257300000000000006
:08382800051000001a00000069
:020000040000fa
:103830000e00fa0064922f00d5002000048fbe0015
:10384000040e07001e01be0070c1b300a2370700be
:10385000ce3b0700000278000500200074ce8900ee
:1038600085ce890010c0b3007d390700002c2100ef
:1038700001002000c6620700863b070000027800b6
:10388000240798000040eb0075390700ae02900055
:10389000f40f200004826200340798002e0290008a
:1038a0004822de0044079800be0290003e029000cd
:1038b00004aab90004037800ce0290004e029000e2
:1038c00004aab900040278000402430005002000a5
:1038d00054079800650798005e029000ee02900081
:1038e00094ce8900a5ce89005e039000ee0390007f
:1038f000c4fd2f0005002000840f5300858f5b005e
:1039000004003600c4fd2f000500200094ce89007d
:10391000a5ce8900b50d07000080fa000000060062
:103920000000fa0024ce8100e00f520002003a00ad
:10393000140020000c0037005762070000027800d6
:1039400025ce8100850f520006003900576207001e
:10395000649c230015c0b300054a78000002eb0008
:103960000100370014002000040078000080fa00f5
:10397000000006000200fa00004f780004cf230088
:10398000144278009e4f52001300320004cf2300ef
:10399000144278000482fb00e10f520002003a005a
:1039a0002935070001003700000000009e42780022
:1039b0000582fb00e10f520003003a00a07a2500c7
:1039c0001b350700010037000000000004cf230072
:1039d0001e4a780001003700000000000080fa0055
:1039e000000006000000fa00020007000080fa0054
:1039f000000006000000fa00c4ce2300b5cfb300db
:103a0000054a78000080fa00000006000200fa0073
:103a10000002eb00040f7800090037009e027800d6
:103a2000a402200004aab90084027800a433220072
:103a300004824200040078001a2d07001e0fe800df
:103a4000c41981009e027800848f5200f3ff350074
:103a50000080fa00000006000000fa00ebff0700fb
:103a600006c921008002eb001400200086017800c6
:103a70000041eb0011c0b300703a2200f43207009d
:103a80000002780084427800e4382200054a780079
:103a9000e4382200144278000482fb005445880078
:103aa000e438220014427800e04f52000200320055
:103ab000743a2200f4c38900e438220014427800ea
:103ac0000482fb00040078000080fa000000060079
:103ad0000000fa00020007000080fa000000060063
:103ae0000000fa0024e78100144278000482fb0001
:103af000e00f520004003200f50f2000850f520045
:103b0000090032000f003700520d07000040eb00a3
:103b1000d3380700350d0700c4ce23008042eb00e8
:103b2000054a78000b0037004a0d070010c0b300ab
:103b3000cb380700c4ce23008042eb00054a780052
:103b400004003700c4ce230095cfb300054a7800a7
:103b50000000000044e781008042eb00054a780045
:103b60001400200054e789000080fa0000000600dd
:103b70000000fa00020007000080fa0000000600c2
:103b80000000fa0044e78100620020008000eb00a2
:103b900004007800f9f7070024e781001442780058
:103ba000e04f52001500320054a08200e00f520096
:103bb0001200320024e781000402e80094427800f9
:103bc000247c2500054a7800247c250014427800d6
:103bd000ff4f520003003600247c2500f5c1b300de
:103be000054a7800247c25001442780004417800be
:103bf00011c0b300a0402500794a070024e78100e6
:103c00000482e80014427800e04f520015003200b0
:103c100064a08200e00f52001200320024e781000d
:103c20006302420094427800347c2500054a780003
:103c3000347c250014427800ff4f52000300360008
:103c4000347c2500f5c1b300054a7800347c25009a
:103c5000144278000441780021c0b300a040250040
:103c60005f4a070024e781006402420014427800a2
:103c7000e04f52001500320074a08200e00f5200a5
:103c80001200320024e7810065024200944278006d
:103c9000447c2500054a7800447c250014427800c5
:103ca000ff4f520003003600447c2500f5c1b300ed
:103cb000054a7800447c25001442780004417800cd
:103cc00041c0b300a0402500454a070044e78100f9
:103cd0008042eb00054a780044e781000402e800d6
:103ce000257c250095427800054a780044e781004c
:103cf00063024200357c250095427800054a780031
:103d000044e7810065024200457c25009542780029
:103d1000054a78006400200054e78900c4ce2300df
:103d20008042eb00054a78000080fa00000006009f
:103d30000000fa00c70c070003000700ab0c0700e7
:103d40000080fa00000006000600fa0024e7810067
:103d5000144278006f4262004447980024e78100d3
:103d6000144278000482fb004422de00544798008d
:103d70000002eb00040f78000002eb00140798002b
:103d80005e429000e04f520004003a00a44025003b
:103d9000040f7800247c2500140798001e02780088
:103da000e00f52002d0032004e4290000482fb00d2
:103db000e20f52000d003200e30f520013003200f8
:103dc000e10f520019003a0010c0b3002438070078
:103dd000420620009e0090001e007800754b0700f0
:103de0000040eb001e3807001100370010c0b30080
:103df0001b3807009e0090001e007800c74b07008c
:103e00000040eb00163807000900370010c0b3006f
:103e1000133807009e0090001e007800394c070000
:103e20000040eb000e3807000100370000000000e2
:103e30001e029000244390001e02900094429000c5
:103e40001e029000144278008641780005417800f7
:103e5000844078001e007800884c07000002eb00c8
:103e600054e78900c4ce23008042eb00054a780065
:103e70000080fa00000006000a00fa000002eb00d1
:103e8000140798000002eb00240798006022b80095
:103e9000340798004507980024e781000402e800f1
:103ea000144278000482fb00050020003e039000cd
:103eb000ce0390000602420087824a003407980031
:103ec0004507980024e781000482e8001442780046
:103ed0000483fb0007002000483add00c832de0002
:103ee000850272004832dd003e039000ce03900050
:103ef0000602420087824a0034079800450798006e
:103f000024e7810063024200144278000482fb002f
:103f100005002000c022dd00040020003e039000c8
:103f2000ce0390000602420087824a0034079800c0
:103f300045079800649d2300144f780044c3b300e4
:103f40009e42780084cf52000200360044c3b30082
:103f5000044f78009e4278000582fb00c222dd00fb
:103f6000849d2300048242003e039000ce03900013
:103f7000068abe009e4378008782fb0084aa230045
:103f8000048242008042eb00054a780024e7810069
:103f90006402420014427800e04f52003a003200be
:103fa0001e4278000483fb009e4278000582fb00dd
:103fb000250d200084824200649d2300048242007b
:103fc000144278008442e80084aa230004024300db
:103fd000054a78009e4378000783fb0024e78100b0
:103fe0006502420094427800c4ad230004024300fd
:103ff000054a78001e4278000483fb0024e7810014
:10400000660242009442780044b423000402430054
:10401000054a78009e4278000583fb0024e7810072
:104020006702420094427800c4ba230004024300ad
:10403000054a780024e781006802420014427800b3
:104040000482fb001407980024e781006902420003
:10405000144278000482fb004822dd009e0290009a
:1040600004824200140798001e4378000682fb0079
:10407000f411b00084024200649d230004824200d7
:104080009e039000070a780024e781006a0242003c
:1040900014427800e04f52003a0032001e4278008d
:1040a0000483fb009e4278000582fb00250d200062
:1040b00084824200649d23000482420014427800fe
:1040c00084c2e80084aa230004024300054a780061
:1040d0009e4378000783fb0024e781006b024200c7
:1040e0009442780004b1230004024300054a78009a
:1040f0001e4278000483fb0024e781006c0242002a
:104100009442780084b7230004024300054a7800f3
:104110009e4278000583fb0024e781006d02420087
:104120009442780004be230004024300054a78004c
:1041300024e781006e024200144278000482fb00f2
:104140002407980024e781006f024200144278009f
:104150000482fb004822dd00ae029000048242008f
:10416000240798001e4378000682fb003415b00037
:1041700084024200649d230004824200ae0390004a
:10418000070a78009e4278000582fb00250d20007a
:1041900084824200649d230004824200144278001d
:1041a000e04f520005003200649d23001442780065
:1041b0008442e800649d2300054a7800649d230042
:1041c0009442780034c3b30084cf52000500360017
:1041d000649d230045c3b300054a780054c3b3006f
:1041e00002003700649d23001442780004407800e8
:1041f0000080fa00000006000000fa00020007003c
:104200000080fa00000006000000fa0044e7810088
:10421000320020008000eb000400780057f6070011
:10422000c4ce23008042eb00054a780024e78100d9
:10423000144278000482fb00e10f520011003200aa
:10424000e20f52001d003200e00f520035003a002c
:1042500044e781008042eb00054a780044e7810092
:104260000402e80045c3b300054a780044e7810032
:104270000482e800659d230095427800054a780095
:1042800033003700749d23008042eb00054a78001c
:10429000649d23008042eb00054a780044e78100da
:1042a00015c0b300054a780044e781000402e80025
:1042b00045c3b300054a78002500370034e7810084
:1042c000ef0f520004003e00c4ce230095cfb30090
:1042d000054a780008003700e7fe07000042780032
:1042e00045c3b300854f520003003600c4ce2300ff
:1042f00080c2eb00054a780044e7810025c0b30086
:10430000054a780044e781000402e800659d230027
:104310009542780046c3b30085425300054a7800b1
:104320000b00370044e7810080c2eb00054a7800ab
:1043300044e781000402e80045c3b300054a780061
:10434000c4ce2300b5cfb300054a780000000000ba
:104350003400200054e789000080fa0000000600c5
:104360000000fa00020007000080fa0000000600ca
:104370000200fa000042eb00044f780024e78100bd
:1043800014427800e04f52000f00320024e7810011
:104390000402e80014427800e34f520003003600a4
:1043a00094cfb300044f780007003700290b0700b3
:1043b00024e781000402e80094427800b49c2300c2
:1043c000054a7800090b070044e78100a20020009d
:1043d000f10f200004007800e8f5070044e78100b1
:1043e000d5c5b300054a780044e781000402e8001f
:1043f000851c810085427800054a780044e78100e9
:104400000482e8008042eb00054a780044e781001e
:104410006302420015c0b300054a780044e78100fa
:10442000640242008042eb00054a780044e78100c4
:10443000650242008042eb00054a780044e78100b3
:10444000e602420054a0820004f0a7000402ea0041
:104450000402ea004f22de000443780064a08200d8
:10446000e00f520002003a000042eb00010037006a
:1044700024c0b3000443730074a08200e00f520014
:1044800002003a000042eb000100370044c0b300d4
:1044900004427300844a780044e7810067024200c6
:1044a000b59c230095427800054a780044e78100d6
:1044b0006802420025c0b300054a780044e7810045
:1044c000690242008042eb00054a780054e781000f
:1044d000ea0f520002003600a400200054e78900d1
:1044e0009e427800c4ce2300054a78000080fa007e
:1044f000000006000600fa00004f780011479800ff
:104500001207980023079800d20a07001e4278007d
:10451000e04f5200040035009e4090001e4078009d
:10452000af330700020037001e4078004133070018
:104530002e0290008042eb00054a78001e02900097
:1045400015002000050a78000042eb0004407800c6
:104550000080fa00000006000600fa00004f780014
:104560001107980022079800ba0a07001e40780039
:104570007033070000427800ae029000844a780051
:104580001e02900015002000050a7800970a070017
:104590000042eb00044078000080fa0000000600b2
:1045a0000000fa00ab0a0700030007008f0a0700ab
:1045b0000080fa00000006000000fa00881f780062
:1045c00024e7810014427800e04f520005003200d9
:1045d00024e781000402e8001442780004407800d7
:1045e000de3607009400200054e7890044e781008c
:1045f0000404e8008436070000427800044c780088
:10460000c4ce23008042eb00054a78004f047800b6
:104610000080fa00000006000000fa0004cf23002a
:1046200014427800e14f520003003a0004cf230007
:104630008042eb00054a780024e7810014427800ac
:10464000e04f52000500320024e781000402e80038
:1046500094427800b47a2500054a780024e7810066
:104660000482e80014427800e04f52000500320056
:1046700024e781006302420094427800c47a250056
:10468000054a780024e78100640242001442780061
:10469000e04f52000500320024e78100650242002d
:1046a00094427800f47a2500054a780024e78100d6
:1046b0006602420014427800e04f520005003200ca
:1046c00024e781006702420094427800d47a2500f2
:1046d000054a780024e7810068024200144278000d
:1046e000e04f52000500320024e7810069024200d9
:1046f00094427800a47a2500054a780024e78100d6
:104700006a02420014427800e04f52000500320075
:1047100024e781006b02420094427800147b25005c
:10472000054a780024e781006c02420014427800b8
:10473000e04f52000500320024e781006d02420084
:1047400094427800e47a2500054a780024e7810045
:104750006e02420014427800e04f52000500320021
:1047600024e781006f02420094427800047b250018
:10477000054a780044e78100020120008000eb0038
:1047800004007800fdf407000401200054e78900cc
:10479000c4ce23008042eb00054a780044e7810044
:1047a0000402e800b57a250095427800054a7800b1
:1047b00044e7810063024200c57a250095427800f3
:1047c000054a780044e7810065024200f57a250039
:1047d00095427800054a780044e78100670242006c
:1047e000d57a250095427800054a780044e7810093
:1047f00069024200a57a250095427800054a7800b2
:1048000044e781006b024200157b25009542780049
:10481000054a780044e781006d024200e57a2500f0
:1048200095427800054a780044e781006f02420013
:10483000057b250095427800054a78000080fa0043
:10484000000006000000fa0073ff07000080fa0075
:10485000000006000600fa00881f78001007980084
:10486000210798000042eb0014479800f90907005f
:104870000042eb00044f78002a0037001e42780007
:10488000ef4f5200260032001e427800fd4f5200ca
:104890000400360014c2b3009e42780084cf520058
:1048a0001f00360024c2b3009e42780084cf52001d
:1048b0000400360084c2b3009e42780084cf5200c8
:1048c00017003600e4c2b3009e42780084cf520045
:1048d0000400360024c3b3009e42780084cf520007
:1048e0000f00360044c3b3009e42780084cf5200cc
:1048f0000b0032001e4290000482fb00ae029000ca
:10490000048442001e4078008a320700004278008a
:10491000044c78001e4290000442e80014479800be
:104920001e4fe800e4c3b3009e42780084cf5200db
:10493000d2ff36001e4290000482fb000402e80011
:10494000840278001e029000050a7800a70907007b
:104950000042eb00044078004f0478000080fa0029
:10496000000006000600fa002439220024079800ff
:104970006022b800048fbe000a0037002e029000ab
:104980008042eb00054a78002e0290000402e80005
:104990002407980014002000050020001e0f42008c
:1049a0005e974a00a44e2100050020001e03be00b1
:1049b000840f5300858f5b00f0ff36000080fa0003
:1049c000000006000000fa0044e781008042eb008e
:1049d000054a780044e781000402e8008042eb00c9
:1049e000054a7800c4ce2300b5cfb300054a78004d
:1049f0002400200054e789000080fa00000006002f
:104a00000000fa002400200054e78900c4ce2300ef
:104a1000b5cfb300054a780044e781000402e800fe
:104a20008042eb00054a78000080fa000000060092
:104a30000000fa008709070020c0b300cdfb070083
:104a4000efff0700690907000080fa000000060078
:104a50000000fa001400200054e78900c4ce2300af
:104a6000b5cfb300054a78000080fa0000000600c8
:104a70000000fa007709070020c0b300bdfb070063
:104a8000f3ff0700590907000080fa000000060044
:104a90000200fa00f438220014427800e04f52007d
:104aa0000a003a004f00070000427800044f7800e7
:104ab0009e4278000582fb0054458800f4382200ad
:104ac00015c0b300054a780001003700000000005f
:104ad0000080fa00000006000000fa0024e78100d0
:104ae00094427800849c2300054a780024e78100e2
:104af0000402e80094427800949c2300054a780060
:104b000024e781000482e80094427800a49c2300fa
:104b1000054a7800deff0700c4ce23008042eb0088
:104b2000054a78000080fa00000006000000fa0044
:104b3000cb0707000080fa00000006000000fa0022
:104b4000130907000080fa00000006000200fa00c6
:104b500010c0b30087fb0700a49c23001442780018
:104b60008440780090c2b3001d320700e438220070
:104b70008042eb00054a7800a4fb0700949c2300c8
:104b8000144278000482fb000402e9004f22de0098
:104b900007c92100157b250015437800150020006a
:104ba000870178000641780080c0eb0020392200a0
:104bb000b52d07000002780084427800e438220016
:104bc000054a78009e427800c49c2300054a78007c
:104bd000e438220014427800044078000080fa0093
:104be000000006000200fa009d070700004278005e
:104bf000044f78001e427800e04f520040003a0017
:104c000010c0b3005bfb0700a49c23001442780093
:104c10008440780090c2b300f1310700a49c2300c7
:104c200014427800e84f520002003a00a0cab300d4
:104c300080310700e43822008042eb00054a78000a
:104c400072fb0700849c230014427800e04f52005e
:104c500013003a00949c2300144278000482fb0065
:104c60000402e9004f22de0007c92100157b250060
:104c70001543780015002000870178000641780070
:104c800080c0eb00203922007f2d07000002780051
:104c900084427800e4382200054a78001200370088
:104ca000949c2300144278000482fb000402e90073
:104cb0004f22de0007c92100157b2500154378002f
:104cc00015002000870178000641780080c0eb00c5
:104cd000203922005e2e070000027800844278000e
:104ce000e4382200054a7800a49c2300144278008e
:104cf000e84f520002003a00b0cab3004d3107003d
:104d0000c49c23001e4a7800a1080700e438220052
:104d100014427800044078000080fa000000060089
:104d20000000fa00020007000080fa000000060000
:104d30000200fa000042eb00044f78000042eb0052
:104d40001447980024e7810014427800e04f520095
:104d500003003a000002eb00c4198900b3003700d9
:104d600024e7810014427800e14f520006003a0027
:104d7000c4198100e20f520009003a0000c2eb00a2
:104d8000044f7800a900370024e78100144278001e
:104d9000e24f520002003a000002eb00c419890001
:104da00034e78100e80f520003003e0094cfb300c7
:104db000044f78009d003700c41981001447980003
:104dc000c41981000402e800c41989001e42900041
:104dd0008482fb0024e781000402e8001443780089
:104de000a402200004aab90084027800a43322009f
:104df00004824200064a78001e4290008482fb0032
:104e000024e781000482e80014437800a402200013
:104e100004aab90084027800a4332200048242006c
:104e2000164298001e4290008482fb0024e7810015
:104e30006302420014437800a402200004aab900cf
:104e400084027800c433220004824200064a7800bb
:104e50001e4290008483fb0024e78100640242002c
:104e6000144278000482fb0005002000a602200006
:104e700006bbb90086037800e635220006834300ae
:104e8000048bbe001e4290000480fb001e42900076
:104e90008482fb00a402200004aab9000402780066
:104ea0004502200084824200a43322000482420092
:104eb0001403be0024e7810065024200144278001a
:104ec0000482fb004822dd00cfa2de000402730052
:104ed00085827300a60220000683b900860378004d
:104ee000e635220006834300048bbe001e4290007c
:104ef0008482fb0024e781006602420014437800ac
:104f0000a402200004aab9008402780024362200fa
:104f100004824200064a78001e4290008482fb0010
:104f200024e781006702420014437800a4022000b5
:104f300004aab900840278002436220004824200c8
:104f40001642980034e78100690352001e42900027
:104f50008482fb00a402200004aab90004027800a5
:104f60008502200084824200a43322000482420091
:104f7000144278000482fb00e70242008400200013
:104f8000110009008402d80000027800840f530049
:104f90000300310094cfb300044f780023003700a2
:104fa0001e4290008482fb00a402200004aab900e3
:104fb000040278008502200084824200a43322008b
:104fc00004824200144278000482fb00e70242009f
:104fd00084002000110009008402d800000278003b
:104fe0008403780024e78100680342001e42900099
:104ff0008482fb00a402200004aab9000402780005
:105000008482e800a4332200048242000402e80003
:10501000070178008600780004007800bff20700de
:1050200050fe07000042eb00044f78000002eb0046
:1050300054e78900c4ce23001e4a78000080fa009d
:10504000000006000000fa000208070010c0b300cc
:1050500048fa0700510007000080fa00000006002f
:105060001200fa00200798003107980042079800c4
:1050700053079800444f9800554f980076079800c2
:10508000070f98000042eb00044f78000042eb004d
:1050900014479800390037000042eb00244798007d
:1050a0001e4290000482fb0004024200de029000d7
:1050b000048042001e4290000483fb000700200091
:1050c0002e029000be0290000603420087834a0031
:1050d0008e0a9000000278000601be00de489000b3
:1050e0004e009000592b070000427800044f7800d2
:1050f0002e4290000442e800244798001e427800a7
:10510000e04f52000300320000202e00410020003a
:105110009f5c07002e429000e64f520007003e00c1
:105120001e427800e04f520004003200fcf90700f4
:1051300000027800e00f5200d9ff3a00649c23007f
:1051400014427800e04f520002003200c4cbb3009a
:10515000044f78001e427800e04f520004003200f5
:105160007e0290001e4a78001e4290000800370020
:105170001e4290000442e800144798009e429000ae
:105180004e4a900084cf5200c3ff39001e42900067
:10519000044078000080fa00000006000800fa00d1
:1051a0000042eb00044f78000042eb007447980087
:1051b00024e78100944278001547980024e7810095
:1051c0000402e80004007800345607000002be0024
:1051d000140798002507980034e7810069025200ff
:1051e0000402d100644798001d06070000427800c1
:1051f000744798007e429000e04f52003a003a0017
:1052000015fa0700e438220014427800e04f5200fb
:1052100003003a00f4cbb300744798003200370023
:1052200024e781006502420014427800e04f5200fa
:105230000f003a0024e78100660242001442780021
:10524000e04f52000a003a0024e781006702420062
:1052500014427800e04f520005003a0024e7810034
:105260006802420014427800e04f52000b00320006
:1052700024e78100e5024200f4c381008500780044
:1052800004007800ec290700004278007447980079
:105290007e429000e04f520012003a0044e7810045
:1052a0000402e80025e78100e9804200f0c38100a4
:1052b000e702470084037800050378009e429000cf
:1052c0006e42900081017800000178001e0090007d
:1052d000ae00900062ff070000427800044f7800a3
:1052e000010037000000000029070700240020000b
:1052f00054e7890044e781001e4a7800fe4290008e
:10530000c4ce2300054a78000080fa0000000600a1
:105310000400fa000002eb001407980025e7810062
:1053200024cf2300144278000482fb0004024200d0
:105330006702420004824200144278008482fb002b
:1053400026e7810024cf2300144278000482fb006a
:105350006402420004024200040243001442780046
:105360000482fb004822dd000502720084027800fe
:10537000a4e7810004826a00a4e78900a5e7810010
:105380005408800004826a00a4e7890024cf230027
:10539000144278008442e80024cf2300054a7800b4
:1053a00024cf230014427800e54f5200030036005a
:1053b00024cf23008042eb00054a7800a4e7810057
:1053c00004427800044f7800a4e781004822de0000
:1053d00004427800144798000e82e80017c0b3001a
:1053e0000043eb008042eb008001eb000201200053
:1053f0008e00780000c9b300223507000080fa0053
:10540000000006001400fa006022b800140798009b
:105410002507980024e781000402e8001442780080
:105420000482fb00050020001e039000ae039000e4
:105430000602420087824a00140798002507980058
:1054400024e781000482e800144278000483fb0012
:1054500007002000483add00c832de0085027200f5
:105460004832dd001e039000ae03900006024200a9
:1054700087824a00140798002507980024e78100d6
:1054800063024200144278000482fb000500200001
:10549000c022dd00040020001e039000ae03900037
:1054a0000602420087824a001407980025079800e8
:1054b00024e78100144278000482fb006123b900d4
:1054c0000082eb008082eb000602420087824a00e5
:1054d000f600200007002000860f5200878f5a0038
:1054e000f0013e00046001000f0037004b00370060
:1054f000ec01370079003700dd003700e9013700a3
:10550000e80137001c01370063013700e50137006f
:10551000e4013700e3013700e2013700e101370021
:10552000e00137008701370034e78100e30f5200c4
:1055300006003e00c4ce230095cfb300054a780094
:105540003400200054e78900e3013700c10607005a
:105550001e019000ae01900070c1b3005e300700e4
:10556000b4c8b300044f7800973207001e42780099
:105570007b424200044f78001e407800f73207005b
:105580000042780064479800f1024700700247002b
:1055900005017800840078000000eb006533070007
:1055a0000e5290000482fb006f026200ed0f520069
:1055b000030034001e427800f44f4200ebff350038
:1055c000893207003400200054e7890044e7810055
:1055d0008e529000efc26200054a780044e78100d5
:1055e0000402e8008e5290008582fb00c42ade008f
:1055f00085427800054a780044e781000482e8008b
:105600009e529000054a7800c4ce23008042eb00f1
:10561000054a780075060700af01370034e78100be
:10562000e40f520006003e00c4ce230095cfb30025
:10563000054a78002400200054e78900a6013700bd
:10564000840607001e019000ae01900070c1b300f7
:10565000213007004d34070000027800440798000d
:1056600010c0b300fe3107000a34070000027800c2
:10567000540798000040eb00f93107002400200097
:1056800054e7890044e78100de029000054378007a
:10569000ce0290008542780085425300054a78008a
:1056a00044e781000402e800de029000c82ade0020
:1056b00005437800ce029000c82ade0085427800bb
:1056c00085425300054a7800c4ce23008042eb0097
:1056d000054a7800450607007f01370034e781005e
:1056e000e50f520006003e00c4ce230095cfb30064
:1056f000054a78001400200054e78900760137003d
:1057000024e781006402420014427800e04f520016
:105710000e003200048823008042eb00054a780026
:10572000347b25008042eb00054a78001e02900081
:10573000ae029000c4bd8a00d5bd8a001e03900051
:10574000ae039000a6bd8a00b7bd8a00048823007e
:10575000144278008442e80004882300054a780057
:10576000347b2500144278008442e800347b250015
:10577000054a7800048823009442780054c3b3009b
:1057800084cf52000c0036000488230055c3b300b8
:10579000054a78001400200054e7890044e781009e
:1057a0008042eb00054a7800c4ce230080c2eb00a3
:1057b000054a780048013700048823001442780025
:1057c0000482fb000402e900c222dd0024882300d9
:1057d000048242001e039000ae039000068abe00c1
:1057e00024e781006502420094427800247b250072
:1057f000054a7800c6bd8200d7bd82001e02900017
:10580000ae029000840f5300858f5b0004003100ce
:105810001e029000ae029000c4bd8a00d5bd8a0071
:10582000a6bd8200b7bd82001e029000ae029000ad
:10583000840f5300858f5b00040036001e03900028
:10584000ae039000a6bd8a00b7bd8a0014002000f8
:1058500054e7890044e781008042eb00054a780064
:10586000c4ce23008042eb00054a78001a013700bd
:1058700044e78100257b250095427800054a7800a1
:1058800044e781000403e800a4bd8200b5bd8200a6
:1058900004427800044b780044e781000483e80068
:1058a000a4bd8200b5bd8200c82bdd004822de0009
:1058b00004827300c82ade0004427800044b78009a
:1058c00044e7810063034200a4bd8200b5bd8200ad
:1058d000402ade0004427800044b780044e781004f
:1058e00064034200c4bd8200d5bd8200044278003a
:1058f000044b780044e7810065034200c4bd820088
:10590000d5bd8200c82bdd004822de000482730072
:10591000c82ade0004427800044b780044e7810086
:1059200066034200c4bd8200d5bd8200402ade006d
:1059300004427800044b780044e78100670242008b
:105940000588230095427800054a780044e78100e5
:1059500068024200357b250095427800054a7800b0
:105960009400200054e78900c4ce23008042eb005d
:10597000054a7800d800370034e78100e70f52006d
:1059800006003e00c4ce230095cfb300054a780040
:105990001400200054e78900cf00370024e781007d
:1059a0000402e800144278000482fb00f4bd8a007f
:1059b00024e781000482e800144278000482fb009e
:1059c0004822dd0084027800f4bd820005027200e6
:1059d000f4bd8a0024e7810063024200144278008b
:1059e0000482fb00e4bd8a0024e7810064024200d7
:1059f000144278000482fb004822dd008402780013
:105a0000e4bd820005027200e4bd8a0024e7810043
:105a100065024200144278000482fb0014ce890023
:105a200024e7810066024200144278000482fb00f1
:105a30004822dd008402780014ce81000502720045
:105a400014ce890024e781006702420014427800e6
:105a500084427800049c2300054a7800140020004a
:105a600054e7890044e781008042eb00054a780052
:105a7000e5bd820014032000848f520002003e0026
:105a800024032000e4bd8a00c4ce23008042eb0042
:105a9000054a7800900037007400200054e7890020
:105aa00044e78100f5bd820085427800054a780010
:105ab00044e781000402e800f5bd8200c82ade0048
