:020000040000fa
:080000000002040000000000f2
:020000040000fa
:1000080046030000460300004603000046030000c4
:1000180046030000460300004603000046030000b4
:1000280046030000460300004603000046030000a4
:10003800460300004603000046030000d6fe000009
:10004800aefe000046030000460300002ac200007e
:100058004603000046030000460300004603000074
:100068004603000046030000460300004603000064
:10007800b88d000046030000460300004603000058
:100088004603000046030000460300004603000044
:10009800460300004603000078c200004603000043
:1000a8004603000046030000460300004603000024
:1000b8004603000046030000460300004603000014
:1000c8004603000046030000460300004603000004
:1000d80046030000460300004603000046030000f4
:1000e80046030000460300004603000046030000e4
:1000f80046030000460300004603000046030000d4
:1001080046030000460300004603000046030000c3
:1001180046030000460300004603000046030000b3
:100128004603000000c2000046030000460300002a
:100138004603000046030000460300004603000093
:100148004603000046030000460300004603000083
:100158004603000046030000460300004603000073
:1001680046030000cac200000cc30000460300009a
:100178004603000046030000ce00000046030000ce
:1001880076c3000046030000460300004603000053
:100198004603000046030000460300004603000033
:1001a8004603000046030000460300004603000023
:1001b8004603000046030000460300004603000013
:1001c8004603000046030000460300004603000003
:1001d80046030000460300004603000046030000f3
:1001e80046030000460300004603000046030000e3
:0801f80046030000460300006d
:020000040000fa
:1002080046030000460300004603000046030000c2
:1002180046030000460300004603000046030000b2
:1002280046030000460300004603000046030000a2
:10023800460300004603000046030000d6fe000007
:10024800aefe000046030000460300002ac200007c
:100258004603000046030000460300004603000072
:100268004603000046030000460300004603000062
:10027800b88d000046030000460300004603000056
:100288004603000046030000460300004603000042
:10029800460300004603000078c200004603000041
:1002a8004603000046030000460300004603000022
:1002b8004603000046030000460300004603000012
:1002c8004603000046030000460300004603000002
:1002d80046030000460300004603000046030000f2
:1002e80046030000460300004603000046030000e2
:1002f80046030000460300004603000046030000d2
:1003080046030000460300004603000046030000c1
:1003180046030000460300004603000046030000b1
:100328004603000000c20000460300004603000028
:100338004603000046030000460300004603000091
:100348004603000046030000460300004603000081
:100358004603000046030000460300004603000071
:1003680046030000cac200000cc300004603000098
:100378004603000046030000ce00000046030000cc
:1003880076c3000046030000460300004603000051
:100398004603000046030000460300004603000031
:1003a8004603000046030000460300004603000021
:1003b8004603000046030000460300004603000011
:1003c8004603000046030000460300004603000001
:1003d80046030000460300004603000046030000f1
:1003e80046030000460300004603000046030000e1
:0803f80046030000460300006b
:020000040000fa
:100400008f2a24000eff27000e0188000000000044
:10041000000020000000e000020032000001200087
:10042000200288000c000700c0bc2e000100200044
:100430000f000700000020000000e0000200320072
:10044000000002000000000008cc020000000000d4
:100450000040da000000fe00c05720000000e0006d
:1004600002003200002020009001880000000600f9
:10047000a1028800800078000000eb001a0037001d
:10048000e280400054a0b4009101ba00e280400034
:1004900054a0b4009102ba00e280400054a0b4001d
:1004a0000002eb00472bde00f507b200a601880032
:1004b000602ce10008003a000049eb000201e8006e
:1004c000020039003420ec0002f0a0008301e900b2
:1004d000f9ff3e00040037006128e100010032000e
:1004e0000082eb00040007001101ba000200e000e6
:1004f000e3ff3a000000060004d0a300e20f490029
:100500001c003900810278003549ba000201e80078
:10051000020039003420ec0002f0a0008301e90061
:100520000f0032002549ba000201e800020039003c
:100530003420ec0002f0a0008301e9000800320042
:100540000400e0000600320015c9ba000201e8000c
:10055000020039003420ec0002f0a0008301e90021
:100560008180e80054a0b4000300e000e2ff3a00fc
:10057000000006009102ba00055978008301e900e5
:10058000f7ff3200c82ade00055978008301e90030
:10059000f3ff32000400e000f1ff320011d9ba008d
:1005a000eeff37000225040000000000762a040058
:1005b00000000000ee2504000000000022330400cb
:1005c00000000000102d040000000000a22b040019
:1005d00000000000642e0400000000009c2f0400b6
:1005e000000000003231040000000000e437040085
:1005f000000000005639040000000000fa39040031
:10060000000000007025040000000000643a0400af
:1006100000000000b8290400000000003e2704008c
:10062000000000004826040000000000d22d040055
:10063000000000000c2e0400000000002e2e04001c
:1006400000000000c03a0400000000002c3c040040
:100650000000000000020400000000000000040090
:1006600000000000e6a8040000000000f0a904005b
:100670000000000016cb0400000000001ecb0400a8
:100680000000000026cb0400000000000040da005b
:100690000000fe000002eb000a00fa00b4bf9f0059
:1006a000c0bf9f000082eb006a805700d1bf9f004f
:1006b000e2bf9f00f4bf9f00b00d07007fb8970016
:1006c000e10f400002003a006400200064f088005e
:1006d0000080fa0000000600440020000a00fa0032
:1006e000c0bf9f00f1bf9f006a805700b4bf9f004a
:1006f000d2bf9f00e3bf9f00a20d07005fb8970025
:10070000efb897000080fa000000060014002000f7
:100710000a00fa00c0bf9f00b4bf9f006a80570064
:100720009a0d07004fb897000080fa0000000600fd
:100730000a00fa00e20f500022003e0034d8810087
:10074000e10f5200060032008723200046232000dc
:100750002423200005232000e08f530004003a00ea
:10076000872220004622200024222000052220008b
:10077000000028001500600003003a00800b78009c
:1007800007002800958a73000540200094826200cb
:1007900001003a0014a0a000820278000600370091
:1007a000940378000710b200fdff3200b103fb0094
:1007b000070b78008502e900e08f5200f8ff3a004d
:1007c0000800370034002000c0bf9f00e2bf9f0038
:1007d000b4bf9f00d1bf9f006a8057006d0d070016
:1007e0006fb99700020078000080fa000000060050
:1007f000540020000a00fa00c0bf9f00b4bf9f0051
:100800006a805700650d07005fb897000080fa0006
:1008100000000600889fbe008004780040d8810058
:10082000e00f500004003a000e0007000084eb00c7
:10083000e00f50000800350048d88100e08f5400d8
:10084000050032000900440006000700e00f5000d8
:1008500001003d000084eb00080078004f04be005a
:1008600000000600e00f500004003a00a4b023008e
:1008700044d8890000027800060037000082eb00af
:10088000852a2400850f500002003e0040d88900d0
:100890000002eb0004007800000006000000fa00ef
:1008a0001411800004427800614262000440780024
:1008b0000080fa00000006000000fa009411800099
:1008c0000442780061426200044078000080fa002f
:1008d000000006000000fa00941280000442780034
:1008e00061426200044078000080fa0000000600c7
:1008f0000000fa0094158000044278006142620012
:10090000044078000080fa00000006000000fa00b1
:100910000411800066026200e60f520002003a00f5
:10092000341180000300370035118000f40f2000df
:1009300004826200040078000080fa0000000600d3
:100940000000fa008411800066026200e60f520087
:1009500002003a00b411800003003700b511800096
:10096000f40f200004826200040078000080fa0086
:10097000000006000000fa00841280006602620097
:10098000e60f520002003a00b41280000300370064
:10099000b5128000f40f2000048262000400780089
:1009a0000080fa00000006000000fa0084158000b4
:1009b00066026200e60f520002003a00b4158000a1
:1009c00003003700b5158000f40f20000482620098
:1009d000040078000080fa00000006008f1fd1009c
:1009e000970207008f87e9000000e0000000060082
:1009f000809feb00920207008f87e9000000e00073
:100a0000000006002800fa00889fbe008a9fbe00f2
:100a10008c9fbe0003866b008f0007006400e1001e
:100a2000440032006408e1004a0032006100e10045
:100a3000460032006108e10049003200ec06470040
:100a40006000b8003d02be003d03be00f4865700c2
:100a50006011b8003d04be003d05be007d032000ce
:100a60000b0037000000a0008d06e90013003200e3
:100a70000402420085824a0006034b0087834b0034
:100a80000000400081804800020149008381490044
:100a90000802520089825a000a035b008b835b00c4
:100aa000f0ff3b000802420089824a000a034b0023
:100ab0008b834b008d06e900edff3a0084827200c3
:100ac00086827200f707b20087827200010032004e
:100ad000150020001e0490003e0b900006035400f9
:100ae000e63fb0000368a300070032000000a70043
:100af0000500a0008301d1000281d3008180d300d2
:100b00000080d3000603e8008301d1000281d300f6
:100b10008180d3000080d3000002eb000482d20069
:100b20002100070003f0a1000cf0a70003f0a000d3
:100b30005d003700640247006408e100570032009e
:100b40003400be003401be00f6ff37006108e1004a
:100b5000520032006011b8006000b800f1ff3700a9
:100b600003ff270002002000fbff3700839f68007f
:100b70000100e00002003d0060001000e08018006d
:100b80000300e00002003d0060011100e081190057
:100b9000400107004f00e00002003b006000100031
:100ba000e080180000000600180020005700200018
:100bb000080453000d003d000600200097fc2f00a4
:100bc0000740e1001e003400848272006102600070
:100bd0008301d1000281d3008180d3000080d30043
:100be0000804e800f8ff3a004700200061046000b4
:100bf00005047400040464000d003200610040002c
:100c0000e080480060014900e081490003b8a50088
:100c1000070032000603e8006538e10004003a00ee
:100c20008301d1000281d3008180d3000080d300f2
:100c3000f87f20000830e100030035000803780049
:100c40006000b8006011b8004433dd00f300b2006a
:100c50008301730000000600680447000294be0090
:100c60000094be00fc0447008694be008494be003d
:100c7000090078003b0207000800780039020700ed
:100c800099007800814f70000b003b000800be0007
:100c9000140207004f00b10003003700f3ff2700e4
:100ca000f2ff2f006110b9004f06be004f05be00d5
:100cb0004f04be000080fa00000006001400fa0095
:100cc000889fbe008a9fbe008c9fbe000004be00ad
:100cd0000205be00680047000a90be000890be00f2
:100ce000200207000070a7000bf0a1003043200095
:100cf0009e02900080825200b0fe2f000028e1008a
:100d000011003d00b0fc2f000028e1001500340068
:100d10001e0990008e0890007e0090000501b00032
:100d20000201d1008180d3000080d3008502e80059
:100d3000fbff3a000b00e000dbff3b00600010000f
:100d4000e0801800d8ff3700f0ff2f00f1ff2700e8
:100d50000b00e000d4ff3b00010028000000200051
:100d6000d1ff37006000b800cfff37004f89de00a9
:100d700082017800220237006011b800300237008b
:100d80002800fa00889fbe008a9fbe008c9fbe008c
:100d900003866b00b0ff07000028a30064003a0040
:100da0000128a30067003a000008a30062003a008f
:100db0000108a30065003a001e009000be089000e4
:100dc00081064000ed3fb100f4805700ee01900035
:100dd000111ab8008e099000311bb8009e099000ce
:100de000311cb800511db800f485570046000700bb
:100df000fe0190003a0007008b85e8003e000700e6
:100e00008e09900040000700ee01900034000700ba
:100e10008b85e800380007008e099000400007002d
:100e20009e0990001b18b800890440000a854800fc
:100e3000fe019000340007008b85e80038000700b1
:100e4000ee019000300007008e0990001b18b800da
:100e5000890440000a8548000a98a30008003a0067
:100e60000402420085824a0006034b0087834b0040
:100e700008044c0089844c000a054d008d06e900e9
:100e800084827200850273004c3add008502720094
:100e90000100320015002000443ade001400b200c8
:100ea0004538de00cb45dd000b007000c540de009c
:100eb000cb4ddd008b8070004549de00cb55dd0059
:100ec0000b017100c551de000d03780036ff0700ed
:100ed00003f0a1000cf0a70003f0a00072ff3700a0
:100ee0001b18b8008502400006834800e0834b00d1
:100ef00060044c00070037001b18b80006034000d0
:100f000087834800faff37001b18b80087034000aa
:100f100008844800e0844c0060054d000000060095
:100f20001b18b8000804400089844800faff370005
:100f30000108a30059ff3a005800be005801be0046
:100f4000e3ff37000008a30054ff3a0009047800cb
:100f5000f9ff37001400fa00889fbe008a9fbe0088
:100f60008c9fbe000004be000205be006800470062
:100f70000a90be000890be007a0107000078a30026
:100f80003d003a006100e1003c0032000bf8a30094
:100f90003d003a006400e100380032006c03470075
:100fa0001e009000f03fb1003602be001603be00e6
:100fb0000008a300040032000402420085824a00b7
:100fc00006034b0087834b00100798008e1f7800a4
:100fd0006000b8006011b8005c0020006d012000c6
:100fe0006e002000020037008d86e900fc00200022
:100ff0000402420085824a0006034b0087834b00af
:1010000000044000818448000205490083854900ae
:101010006060e1001d60ad000804520089845a0040
:101020000a055b008b855b00030039001e60ad0084
:101030000802be000a03be000c06e900ecff3b00fc
:101040000e87e900e8ff3b004f077800610260006f
:10105000840278008301d1000281d3008180d30013
:101060000080d3001e03900041b3de00f63fb000c5
:10107000cdfe07000cff37000b30a0000800be00bb
:101080000a01be0008ff37001202200062f088004b
:1010900002ff37006022b800060220000000d000e6
:1010a0008180d2000482d2008582d2000000a0009c
:1010b0000202520083825a00030031000202420001
:1010c00083824a000000a1000603e900f3ff3a0012
:1010d00000000600889fbe008a9fbe003004be004c
:1010e0002005be000404440085844c0006054d0024
:1010f00087854d000898be000a90be000440e100bc
:1011000005c8e10006d0e10007d8e1000200310087
:10111000680040001008e8004f05be004f04be0004
:10112000000006001000fa00889fbe008a9fbe00e3
:10113000110020000605be000404be003002be00ff
:101140002003be00c4b79f00d5b79f00e6b79f003d
:10115000f7b79f000802520089825a000a035b0019
:101160008b835b0084bf9f0095bf9f00a6bf9f003d
:10117000b7bf9f000498be000698be004fb297000c
:10118000dfb297006fb39700ffb397000820e1002c
:1011900009a8e1000ab0e1000bb8e1000100390044
:1011a0008000eb004f05be00108810004f04be0009
:1011b0000080fa00000006001400fa00889fbe00bc
:1011c0008a9fbe008c9fbe000006eb003e00070019
:1011d000ccb79f00bcb79f00acb79f009cb79f00e7
:1011e0008cb79f000605be000404be000d0420005d
:1011f0004fb39700bfb29700860343002fb297000a
:10120000e00f530004003d003d0007000f004000c8
:10121000b0ff070003003700390007000f0040004f
:10122000c0ff0700cfb2970095bf9f00e08f52002c
:10123000090035002b0007001400200005002000e5
:101240006033b800000072008180720002017300f8
:10125000838173001c0007000c06e8008d0f560008
:10126000e3ff3a001fba9700e00f520005003d006f
:101270000802be000a03be0000fe2f000f0040005f
:1012800094ff07004faa9700e00f520008003a00b1
:101290000fb497009fb497002fb59700bfb5970084
:1012a000d8b79f00e9b79f00fab79f008bbf9f0098
:1012b0000c0007004f06be004f05be004f04be00e5
:1012c0000080fa0000000600010007000000060090
:1012d00090b79f00a1b79f00b2b79f00c3b79f0010
:1012e0000000060001000700000006001fb0970084
:1012f000afb097003fb19700cfb197000000060054
:101300004f2bde00f9ff07008683730085824200c1
:101310004f23de00a7b79f008682720004024200be
:1013200095b79f00ffaa97004f2bde0085824200f1
:101330000602720084b79f006faa97004f23de0059
:101340000402420086827200f5af9f004f18de0053
:1013500000027200e5ff0700e4af9f0000004000bc
:101360008180480002014900838149000802be00d3
:101370000a03be00d6ff070000fe2f000000060093
:10138000881f780018002000881f78008aff070057
:101390008f87e9004f04780000000600889fbe0098
:1013a0008a9fbe008c1f78000006eb00e00f500003
:1013b000e08f5800e00f5900e08f590007003d0012
:1013c0006044b8006055b8001c00200000005400c4
:1013d00081805c0002015d0083815d00e00f5200ae
:1013e000e08f5a00e00f5b00e08f5b0007003d00dc
:1013f0006044b8006055b8000c00a200040254001c
:1014000085825c0006035d0087835d00b7000700ee
:10141000e00f5600060032006022b8006033b800ca
:101420000000520081805a0002015b0083815b0052
:101430004f0678004f05be004f04be0000000600b6
:10144000889fbe008a9fbe008c9fbe000404be0021
:101450000605be00809fbe00829fbe002f000700d1
:10146000040678000800be000a01be002b00070039
:10147000840678004f03be004f02be008d4f7600f9
:101480007fb0970013003300f0ff2f008b8f6b00ad
:1014900006003b000d0666000c00a7000a0037009e
:1014a00007f0a600100020000a003700880f520045
:1014b000898f5a008a0f5b008b8f5b000300390015
:1014c0001000200001003e000000200007f0a700ef
:1014d0000000ea004f06be004f05be004f04be00ec
:1014e00000000600e48240001078a30007003200ec
:1014f000640240001178a3003400be001401be0055
:10150000040032000330a700000006003500be00d2
:101510001501be000330a0000000060005ff2700f3
:1015200005826100070032000428e100010032005a
:10153000240005000600070001003a0044000500f1
:101540000408050002000700f9ff3a001400050036
:101550006f82610081027000850271008502720055
:1015600000000600800078005002be005003be005c
:101570004439de00f700b200f37f20000301610070
:10158000090032000218e10016003a0085017200dd
:1015900083017300838173000008200015003a0066
:1015a00040002000130037008501720083017300a2
:1015b0008381730005003a0004a8be0006a8be009f
:1015c000100020000b0037000201e9000402420075
:1015d00085824a0006034b0087834b000748a3001f
:1015e000f9ff32000740a00004a8be0006a8be0014
:1015f0002000200080009800920098000000060063
:10160000881f7800030478000300e00007003d0015
:1016100060001000e080180060011900e0811900ee
:1016200002003b0001f02d0003003700040007001a
:1016300008f0a70003f0a0004f04780000000600a7
:10164000889fbe0000827000040271000482710055
:101650002400320036432000c50020008383cf00e1
:101660000a0039000541b1008283cf00070039002c
:101670000541b1008183cf00040039000541b1006c
:101680008083cf00010039000541b10085c35300bc
:101690006022b800120032000a003b00848272000f
:1016a000610260008301d1000281d3008180d300f8
:1016b0000080d3000603e8008743e800f7ff3a0004
:1016c0000700370000004000818048000201490007
:1016d000838149000603e9008743e900f9ff3a00e6
:1016e00031fd07004f04be0000000600889fbe00c9
:1016f0008a9fbe008c9fbe000404b8000506b80097
:101700008904460060854e000606b8000a054600ba
:10171000e0854e000706b8008b054600040eb800b1
:10172000890446000a854e00e0854d00050eb8008c
:101730000a0546008b854e00060eb8008b05460054
:101740000416b8000a0546008b854e000516b80041
:101750008b054600041eb8008b0546000800be003d
:101760000a01be004f06be004f05be004f04be007a
:101770000000060004c2b300889fbe008a9fbe001e
:101780003044780080047800844f5400fcff32001d
:10179000e94f5400faff3200d4c2b300844f540022
:1017a00003003a00394478001ac0b300050037003e
:1017b0000045eb00b4c2b300844f540001003a006e
:1017c000394478006000b8000bcdb3000900370041
:1017d000a200200003002000840907000b424400ff
:1017e000394478000482fb0005002000040040001a
:1017f000858048000882fb000403b100e90f520015
:10180000f3ff3600e04f5500020032006000100088
:10181000e08018004f05be004f04be000000060027
:1018200000027800d0162000e30262000e003a00a9
:1018300045062000110009000582d800e0162000ae
:10184000e08f500008003a00c412b00005192000d3
:10185000110009000582d800d0162000e08f50004a
:1018600001003a000000e80000000600c20320006a
:1018700003002000889fbe001004be000800be00c8
:1018800048090700c203200003002000e0d58900ba
:101890000800be00b5fc0700c203200003002000c2
:1018a0000004be003f090700c2032000030020001f
:1018b000f0d589000800be00acfc070082012000c2
:1018c000030020000004be0036090700820120004a
:1018d0000300200000d689000800be00a3fc07001a
:1018e000740020000004be00e402400069042000ef
:1018f000110009008402d8000102780044d6890052
:1019000002003700000454008904e8000900780050
:10191000c3ff0700800f5400faff3d0039d689004d
:101920006240600058d689000002eb00e6ac23005c
:10193000040037000080fb00050454000402e800a6
:101940000000d100e6427a00854270008582fb00eb
:10195000850f5400f7ff3d0024d6890024ac2300f6
:10196000080ae800660052004f04be0000000600ae
:10197000b5d781000400fa0044fc2f0004aab90086
:1019800030034200a0834a0064805700e6bf9f00f6
:10199000f7bf9f00b5ff07000080fa0000000600b7
:1019a000889fbe00000478008a1f780038029000eb
:1019b0000080eb00630262002a0032000800780019
:1019c0002b0007003805900084ef2f0028009000be
:1019d0000402650034049800e00f50000400320057
:1019e000e804650002003a00a804070029049800f2
:1019f0004800900045fb0700e10f4000190032004d
:101a0000b80490000080eb000902b20015003a0013
:101a1000000021000000650012003200e0d78100c4
:101a2000e00f50000f003200042a2000902a90009e
:101a3000888f520006003a006dfb0700e4d7810052
:101a40000000eb0089044200902c9800050037004c
:101a50004905b0004005b000848f5400f3ff3a0000
:101a60000000eb004f0578004f04be0000000600a8
:101a7000881f780000047800380090000002780089
:101a80001420b200e10f520005003a000002eb0002
:101a90001404980028029000040c78001900370004
:101aa00080027800242020002520b2000000eb00f6
:101ab000848f520016003a00a8009000808f5000da
:101ac0001300320018019000800f51001000320006
:101ad0004800900016fb070018029000840f500089
:101ae00003003200380290000403b300340498006d
:101af000380090000002eb001404980028029000c7
:101b0000040c78000002b200010032000080eb00fb
:101b10004f0478000000060044a823001402780057
:101b2000630262000a003a0004a92300140278004c
:101b30006302620008003a00c4a9230062a92300de
:101b400014027800630262000500320003003700cf
:101b5000e2a7230001003700a2a8230002003700fb
:101b60000400780000000600889fbe000204780090
:101b70008a9fbe0001057800800578000800780083
:101b800087ff07003802900025c7b3006802620093
:101b9000340498001a427800854f52000b0032003e
:101ba000e5c24200854f520005003200f6c25200e5
:101bb0008044eb00854f520062003a00010037007c
:101bc00019c0b3008944e800010037008044eb00ed
:101bd0008a02780027c6b3000045eb00b6c2b30006
:101be0000c003700874f520004003a003802900082
:101bf0000470a0003404980006003700864f52009d
:101c000007003a00380290003400b3003404980012
:101c10002ac0b30055427800e04f5200f1ff3a006d
:101c2000e1cf540003003200e2cf540015003a0027
:101c30000a00370011002000e04f5500010032007b
:101c400021002000621b20000b00780091fa0700a1
:101c500040049800e00f50000f003d00621b200080
:101c6000210020000b0078008afa07004004980049
:101c7000e00f500008003500e04f5500060032002c
:101c8000a2fa07008a80fb00621b20000b0078008c
:101c900080fa07004004980048029000e00f5200cc
:101ca00004003d000002eb003404980004047800b6
:101cb00025003700380290006c02620004003a00f0
:101cc000e503070024002000200498005404980035
:101cd00028029000e10f420007003a008004eb0068
:101ce000480090002904980088fa070039049800f9
:101cf0000904780014003700040c78000002eb009f
:101d00001404980038029000e0cf5400050032001f
:101d10002420b30034049800e1cf54000a003a00b4
:101d2000030037000400a0003404980006003700c8
:101d3000210020006011b80008007800380007007a
:101d4000010037000004eb00080078004f05be00da
:101d50004f04be0000000600881f780000047800d1
:101d60008a9fbe008c9fbe006011b80018007800ea
:101d70001100200058fa07006011b8000006be00ec
:101d8000180078002100200053fa07000c01be0063
:101d90000005be00180078008000eb004efa070036
:101da0004f06be000a00be004f05be004f0478007b
:101db00000000600881f7800000478001100200051
:101dc0006011b8004800900043fa07001802900024
:101dd000e00f520002003d000002eb0014049800e6
:101de0002802900098029000e00f52000700320095
:101df000380290000420b20004003200612ab900c9
:101e00000000420081804a0003003700612ab900c7
:101e100004005000858058004f0478000000060040
:101e20000400fa00881f780000047800380290004f
:101e30000440a1003404980028029000e00f5200f2
:101e400009003a004800900023fa070001006000f2
:101e50000082ea0004f0a7000402ea000400e9009e
:101e60004f80de0048003700e18f5000050032004f
:101e7000e28f500008003200e08f50001000320066
:101e80004000370008007800d2bf9f00e3bf9f00ea
:101e9000c8ff07000600370008007800d2bf9f0087
:101ea000e3bf9f00f2fe070068004400aaff07009e
:101eb0005fb99700efb997000201400083814800a5
:101ec000d2bf9f00e3bf9f0008007800b9ff070062
:101ed0005fb99700efb99700000251008182590065
:101ee000030032003803900006b0a00036049800ca
:101ef0003803900063036300e10f53000d003a00c4
:101f0000e00f5200e08f5a000a00350018039000dd
:101f10006130b900800f5200818f5a0005003c00eb
:101f200004035300180c4200160498000000eb0054
:101f300015003700380290000420b200090032007a
:101f400018029000e00f520006003200d2bf9f003e
:101f5000e3bf9f0008007800c5fe0700efb99700b7
:101f60005fb997008000eb002802900011049800f0
:101f7000040c780048009000d7f907004f88de0075
:101f8000010037000080eb004f0478000080fa0069
:101f900000000600810378008001780007027800c5
:101fa0000100370085017800110009000282d80085
:101fb0008302e80000027800e00f5200f9ff3a00c7
:101fc000844a7800110009008283d80080027800da
:101fd0000142780085037800e94f52000100340087
:101fe0006742420001c3b30081514200e08f5200ba
:101ff000f4ff3a000300780000000600881f780014
:1020000000047800e08f500005003d0008007800d3
:10201000d4c2b3008100ea00045878000100370000
:1020200008007800dbff0700080078004f04780004
:102030000000060044ae2300e487470025d7810056
:10204000889fbe008a9fbe008c9fbe008e1f7800b6
:10205000e08f52000b003a0024029800e402420094
:10206000c4d7890025d78900d5d78900a44290001c
:102070000504a00025429800e44290000504a00059
:102080006542980067044000a4b0230025002000aa
:102090004244de00892a24004244dd008484540046
:1020a00005074400110009008504d800bc2a24005b
:1020b000c2d781000406560080bf9f000e0747006c
:1020c0000003eb00e4054400080646000200370068
:1020d000160020000d01780022429000610262008b
:1020e000020032000a0037001509780092027800d9
:1020f0002542900061026200fbff320008024100ad
:10210000848f520002003900e00f54003f003d0070
:10211000920678000d00a100828f5600edff3e0070
:10212000e10f5300eaff3a000fba9700840f540002
:1021300002003600890f540010003900614ab900ce
:10214000b0ff2f00010020006143b80004025000de
:1021500085825800840f5300858f5b000200350094
:102160000b05780006003700110009000986d80029
:102170000982b90004057800010037000e057800d7
:102180000a007800a3f90700e10f400005003a00bb
:102190000b0578000b0078009ef90700e10f400066
:1021a0002b003200d4d78100000a7800d4d78100f8
:1021b00064034200a4429000860f500002003200e7
:1021c0000504a000010037000504a1002542980085
:1021d0006405550044ae23000a0540000a08780053
:1021e000dad78900040d7800d5d781000003eb0011
:1021f000254290000404a000a442980020429000d0
:102200000404a10024409800b2ff3700c4d789001d
:10221000848f5200070036001403be008042eb009a
:1022200096d78900a7d78900120a7800c4d7810001
:102230002542980022429000c7d781000404a000e4
:10224000070978002441980064004100010037002c
:102250000000eb004f0778004f06be004f05be00a0
:102260004f04be004f00b10000000600e00f500018
:102270000800320064005000c4d78100840f500071
:1022800001003100c0d78900204290000404a10061
:102290002440980000000600e68747008e1f780063
:1022a00066875700d0bf9f00012f78000e003700cf
:1022b0005fbb9700efba9700164078001542780090
:1022c0000201e900844f5000040032000080fb004e
:1022d0000482fb0004005000060037000603e800fb
:1022e000d6bf9f00050fe800e00f5100f0ff3a0055
:1022f000020078004f0778006f00b1000000060070
:102300000002780002003700315a78000201e9002b
:10231000e00f5100fcff3a000000060000027800c8
:10232000808f50000800310082824000808f520070
:102330000500360002024000456278000201e90013
:10234000fdff3a0000000600e00f510003003200dc
:10235000315a78000201e900fbff37000000060057
:102360000002780002003700015a78000201e900fb
:10237000e00f5100fcff3a000000060004192000a5
:1023800000037800110009000483d8001400200025
:10239000e08f50000b003200e30263000002eb000c
:1023a000848f520007003a00440620001100090003
:1023b0000483d80001f0a7008100ea000102ea00ce
:1023c0004f22de00040078000000060014bf200049
:1023d0000480b90014442f0000004200440620008d
:1023e000110009000480d800000006000419200034
:1023f000881f7800d2162000000478001100090020
:102400000484d8004243de00000278000241b80094
:102410000500200006034200e0834a004406200035
:102420000603410087834900110009000484d80095
:102430004f0478008002780005005300e0805b00c4
:1024400000000600889fbe00810478008a9fbe00bd
:1024500000047800020578000900e800dbff0700af
:102460000a0540000b002000e18f54000a003600ee
:1024700008007800c1ff07002400200005002000ac
:10248000e00f500002003200140020000500200080
:102490000405550085855d000800e900d3ff0700ad
:1024a0000000450081804d004f05be004f04be0076
:1024b00000000600889fbe00000478008a9fbe00ce
:1024c000d80490008c9fbe00a5fb2f00898242009b
:1024d0000080eb008080eb00e4102000848f52002d
:1024e00032003e0038019000c0762000c800900005
:1024f00000804400d3ff0700120020000006be0049
:102500008000eb00207b2000ceff0700720020003f
:10251000030020000005560081855e000c06e900de
:102520000a00be001f060700720020000300200002
:1025300064004000e08048001a060700600498002c
:10254000b076200000804400a8ff07008201200030
:1025500003002000000656000a00be007c0498001c
:1025600022060700c203200003002000280290007a
:10257000cfa2de000000420081804a001b06070057
:1025800018029000c203200003002000cfa2de004a
:102590000000420081804a001406070018027800fb
:1025a000cfa2de000000420081804a004f06be003c
:1025b0004f05be004f04be0000000600889fbe000d
:1025c0000004be00050037000000fb008900780011
:1025d00053050700e10f4000040032003840780046
:1025e000e04f5000f8ff3a000000eb004f04be003f
:1025f00000000600a1a82300881f7800efff070055
:10260000a1a8230000047800a000200044050700d2
:10261000080078004f0478000000060000027800ef
:1026200084027800050278000043eb00b44f1300e9
:10263000fbff3a0031427800845a7800e04f5200a4
:10264000fcff3a0000000600b042780031c25200a0
:1026500002003a00e0cf5200fbff3a000400fb000a
:102660000000060000027800b1427800055a7800a8
:10267000e0cf5200fcff3a00000006000000fa0024
:10268000889fbe008a9fbe008c9fbe00a7ad23001e
:1026900000067800efb29700748257005ac2b30068
:1026a00087047800240037008502e8008a4f530031
:1026b00020003a00354178000482e9000203fb0063
:1026c0000603b10007003a00140378000100370048
:1026d000015e7800b6407800e0cf5000fcff3a0081
:1026e0001500370094067800060343008c0178003b
:1026f0000703430016047800110009008806d8007b
:102700004604780081067800110009008806d80088
:102710000004780000c3b30080594400890f5300bf
:10272000f4ff3a000201fb000203b100020646007a
:1027300001003700065e780015437800e04f530033
:10274000d9ff3a00064e78004f06be004f05be0086
:102750004f04be000080fa0000000600889fbe0003
:102760008100e9008a9fbe00000478008c9fbe00b3
:10277000820478008e1f7800030578003eaa2300ab
:1027800001064400880578008e06e800090137003c
:102790008904e80054c2b300844f5300ff003a009c
:1027a00039427800a5c5b300854f5200e3003200de
:1027b00028003c00edc25200854f52008a003200d2
:1027c00012003c00ebc25200854f5200550032000f
:1027d00007003c00859e2300864f5200eb0032002c
:1027e00015c4b300854f5200da003a0042003700aa
:1027f00085c4b300854f52006a0032008542e8006c
:10280000854f5200d3003a006800370075c5b30009
:10281000854f52008800320007003c00e4c252009d
:10282000854f52007800320085c2e800854f520083
:10283000c8003a007600370085c5b300854f5200c6
:10284000a30032008542e800854f5200c1003a00e3
:10285000b1003700a5c6b300854f52005b003200bf
:102860000f003c00e8c25200854f520029003200a0
:1028700004003c008542e900854f5200b5003a0053
:102880001900370035c6b300854f520029003200c9
:102890008542e800854f5200ae003a003e00370006
:1028a00075c7b300854f52007200320007003c002c
:1028b000eac25200854f520048003200e3c2420093
:1028c000854f5200a3003a004900370085c7b30086
:1028d000854f52006b0032008542e800854f520060
:1028e0009c003a00850037006a02900065a423002e
:1028f00004024200030037006a0290002599230079
:1029000004024200e5027a00a00037008404780047
:102910001f0037004a029000059d23000402420078
:10292000f8ff37004a029000059423000402420099
:10293000f4ff3700da0290001a009000c4762000fd
:10294000aa009000849f42003a0290009a1f7800eb
:10295000059d2300801f7800811f7800841f780068
:102960004a0290000402420020aa2300e51f7a00d8
:102970006a02900065a4230004024200e51f7a0069
:10298000149f2300841f78003cff0700f087570046
:1029900025aa23007d003700ba029000851f780029
:1029a0005b0037002a00900021003700aa00900049
:1029b000c4002000110009008400d800e08f5000fe
:1029c00052003a0084007800500037007a029000ec
:1029d000841fe80094a02300530037004a029000af
:1029e000841fe8004a0037009a0090004700370033
:1029f0002a029000b59e2300eb0f520063003400c2
:102a0000e59e2300610037009a1f780040003700e0
:102a10007a00900074002000ea0290001100090082
:102a20000400d800858f5000010034000000e80049
:102a3000801f7800360037007a0390007400200071
:102a4000ea029000110009000403d800e682420067
:102a50000103780080037800110009008402d80087
:102a6000810f5300010034008703e800871f7800be
:102a700027003700ea009000c4a02300811f7800df
:102a800029003700da029000c4762000849f4200bb
:102a90003a029000059d2300841f78004a029000ae
:102aa0000402420020aa2300e51f7a006a02900077
:102ab00065a4230004024200e51f7a00f4a023006d
:102ac000841f7800edfe0700ea875700b0ff37004b
:102ad0009a1f78002a0090009a029000d4a1230047
:102ae000851f7800801f780020aa2300841f7800ab
:102af000e2fe0700e8875700a5ff3700da029000e2
:102b000044062000110009008402d800811f7800cb
:102b100064a0230004003700c4762000da0290008d
:102b2000849f420064a22300841f780020aa23000f
:102b3000d2fe0700e487570095ff37000a0a90008d
:102b4000a59e2300e00f52001000320085d78100bf
:102b50000e00370054c2b30021aa23008448780035
:102b600009027800c4427800804eeb00054f7800df
:102b7000e0cf520065ff3200810278000300370089
:102b80008c8f550007003200845d78003542780054
:102b9000e04f5200faff3a00060037008c8f5500d4
:102ba00003003a00804deb000000eb000600370008
:102bb000865d780019437800e04f5300f4fe3a0038
:102bc000864d7800088055004f0778004f06be00fc
:102bd0004f05be004f04be00000006000002780052
:102be0008042eb00b4cf1200fdff3a000080ea0003
:102bf0000000420000000600889fbe000004be00e6
:102c00000c00370009007800f4ff07008900780005
:102c1000000178000800780005040700e00f50006c
:102c20000a0032000800e8009900fb001b000700c2
:102c300000047800e00f5400040032000042eb0072
:102c4000984f1200efff3a000004eb0008007800f4
:102c50004f04be000000060020d88100e00f5000a5
:102c6000030032001002780024d8890002003700e7
:102c700020002000e7f60700e10f400002003a00c4
:102c8000946e260064f088000000060024d88100bd
:102c900020d8890004087800000006000002eb003c
:102ca000881f78006103b800060478006121b8002d
:102cb00006004100e842790081cf52000400320052
:102cc0000402e800e0cf5200f8ff3a000000eb00f9
:102cd0004f047800000006000c00fa00889fbe0038
:102ce000f4ff270000047800d4bf9f008004eb00ad
:102cf00088bf9f0099bf9f00a8bf9f00240c2000a1
:102d000078815700b4bf9f00cfb097007080570004
:102d1000070007000fba9700094a78000fba97001a
:102d2000080052004f04be000080fa0000000600b8
:102d3000ef03b000889fbe008a9fbe008c9fbe003c
:102d4000800678008e1f78000007eb00d1af9f004f
:102d5000a2b79f0066033700dfa8970054c2b300f4
:102d60008100e800d1af9f00844f500006003a0078
:102d7000010278000006eb0001c3b30000c2b300fb
:102d8000b7c2b3000e0037003d0290000404b20049
:102d9000040032001d027800004a7800840ee8002a
:102da000050037000000fb008d0078005c03070081
:102db000e10f40004e0332000e07e8004c033700dd
:102dc00084027800d2c2b30034437800824f5300ab
:102dd0000900320005003c00804f5300080032001b
:102de000874f53000c003a0007003700814f530013
:102df00009003a00060037000c30a000f0ff370051
:102e00000c00a000eeff37000c10a000ecff370014
:102e10000c20a000eaff37006202660001003200c9
:102e20000c00a10068026600010032000c20a10025
:102e30000602fb000403b100e90f52000c003e0043
:102e4000050378000002eb00b603fb006a22b9001c
:102e50000703b10086027800048243009603fb005a
:102e60000703b100e98f5300f7ff36000800370071
:102e70000002eb00a7c2b300874f530004003a00e2
:102e8000afb197008502e80043027800a3b79f0026
:102e90000003eb0096b79f00e6c2b300954f130006
:102ea0000c003a000ce0a00064435300d54f13001f
:102eb00003003200050378000000eb000900370032
:102ec000afb397008502e80047047800a7b79f00da
:102ed00098b79f0005037800090037006a00b90021
:102ee0000080430086027800b603fb000703b100b0
:102ef000e98f5300f9ff360090b79f00f5ff3700c8
:102f0000b6427800cac6b300d6af9f008acf52003f
:102f1000250032000f003c0036c6b30086cf5200b9
:102f20009e00320004003c00e0cf5200f502320067
:102f30006b4353000f00370046c6b30086cf5200e4
:102f4000170032006543430086cf5200b2003a00ba
:102f50001300370036c7b30086cf52001f0032007f
:102f600007003c006443530086cf52001400320037
:102f70000643e80086cf5200a7003a00130037004e
:102f800056c7b30086cf5200aa0032006343430005
:102f900086cf5200a0003a00e5779f000d00370071
:102fa000e5779f00a5003700f003660005012000cb
:102fb00001003200050028000c867200d0ff3700a7
:102fc000e5779f000c60a0009c003700e5779f002c
:102fd0000c50a0000c70a00098003700afb597000f
:102fe000e5779f00cb027800abb79f00b5b79f0095
:102ff000e08f520002003a0061a72300b1b79f00a2
:103000003fb397008002eb00010037008502e80023
:10301000e6c37a00e0cf5300fcff3a00c5b79f003b
:103020001fb19700e00f510005003200cfb19700ab
:10303000830f51000200310082027800c5b79f0063
:10304000cfb297000004eb00850f5200010036005c
:10305000050452006806660009c2b3000f00320082
:10306000290037003d0290000404b2000400320041
:103070001d027800094a7800840ee8000500370038
:103080008d00780000022000a5020700e10f40003b
:10309000010032000e07e8000804e900e00f5400c8
:1030a000f0ff3a000084eb0017003700bd029000eb
:1030b0000504b20009003200880278009d03780000
:1030c00035437800864b780005047800870ee800c9
:1030d000e04f53000a003a001100370088027800e0
:1030e0008d0078003500fb0084bf9f000504780048
:1030f0008b0207000fba9700e10f40000800320072
:103100000e07e800060037000c0278000806780079
:103110003fb49700cfb497005fb59700efb5970025
:10312000890278008504e900e08f5200dfff3a0051
:10313000b8b79f00c9b79f00dab79f00ebb79f00f1
:103140000c04780009c2b30004067800e00f5600b2
:103150000f003a00660237003d0290000404b200fe
:10316000040032001d027800094a7800840ee8004d
:10317000050037008d00780000022000680207007b
:10318000e10f4000010032000e07e8000804e900ea
:10319000e00f5400f0ff3a0055023700afb097003f
:1031a0007003660041047800a1b79f00cfc4de0021
:1031b000090578008a0578000800be000a01be00f3
:1031c0004800de00c80add0000807200e0779f0042
:1031d000e00f530009003200e04f500007003200ba
:1031e000e14f40000500320026002000f0779f00ec
:1031f000887f9f00c6b79f0003003700170020009c
:10320000c7b79f00f8779f0078fb2f00088447001e
:10321000b8b79f0082ff370069fb2f001a0020001b
:1032200089844700e5779f00b9b79f00cab79f0020
:103230007bff3700e5779f000c0cb3008c02780011
:10324000050cb2003b003a00e00f560005003d00bf
:10325000afb297004501be004500be00a5b79f0074
:103260000f003700f0026600120032002fb4970002
:103270004803be00f69f9f0087a79f00a8b79f0046
:1032800098029000cfaade0095a79f00a5a79f00f7
:103290007f9897008fa097001fa19700afa197007c
:1032a000b0b79f00c1b79f00d2b79f00e3b79f00a0
:1032b0000b003700afb09700c1027800050478001a
:1032c000cfc4de00090578008a057800a1b79f0009
:1032d000b8b79f00c9b79f00dab79f00ebb79f0050
:1032e0003fb09700cfb097005fb19700efb1970064
:1032f000e00f5000e08f5800e00f5900e08f5900b8
:1033000032003d006000b8006011b8003fb4970083
:10331000cfb497005fb59700efb597003c00b300be
:1033200008045000898458000a0559008b8559000b
:1033300022003700e00f560005003d00afb29700b5
:103340004501be004500be00a5b79f000f00370035
:10335000f0026600120032002fb497008004eb00e8
:103360004803be000005eb0096af9f00a7af9f008b
:10337000b9af9f00caaf9f001fa89700afa89700e2
:103380003fa99700cfa99700a8b79f00b0b79f00ab
:10339000c1b79f00d2b79f00e3b79f000b00370073
:1033a000afb09700c1027800a1b79f000504780074
:1033b000090020000a0020000b002000b8b79f0081
:1033c000c9b79f00dab79f00ebb79f009fb4970083
:1033d000e08f54000d003a001a0020003fb0970023
:1033e000cfb097005fb19700efb197009ab79f00f9
:1033f000e00f5000e08f5800e00f5900e08f5900b7
:10340000020032008000eb0091b79f000c017800b1
:1034100005042000020cb20082b79f00850f510006
:103420003400320003003c00e00f5100080032007d
:1034300048003700050820008fb19700858f5100a4
:1034400014003200050c2000858f510041003a0025
:103450002685230015c0b3003600be003601be002d
:103460003fb49700cfb497005fb59700efb59700d2
:103470000040e10001c8e10002d0e10003d8e10012
:10348000330039008542e800f4cf5200f2ff3a00e1
:103490002f00370015c0b3000001200001002000fc
:1034a0006011b8003fb49700cfb497005fb59700a4
:1034b000efb597000040e10001c8e10002d0e10053
:1034c00003d8e10022003900490020000000d000ac
:1034d0008180d2000281d2008381d2008904e90078
:1034e000faff3a008542e800f0cf5200edff3a00c3
:1034f0001700370015c0b300800020000100200035
:103500006011b8003fb49700cfb497005fb5970043
:10351000efb597000040e10001c8e10002d0e100f2
:1035200003d8e1000a003900390020000000d00073
:103530008180d2000281d2008381d2008904e90017
:10354000faff3a008542e800f5cf5200edff3a005d
:10355000e5779f006f7597009fb597008a02fb0083
:103560008b8f520002003d00eb779f000400370074
:103570001fb09700850f500001003d0095b79f00d8
:10358000e00f520003003200e30266000100320047
:103590000402e900050024008502660006003200ee
:1035a0009fb09700810f52000200340001025200c8
:1035b000010037000002eb006f7197008001eb0003
:1035c0008202fb00f3af9f00850f5200020034001f
:1035d00085025200f5af9f00640266003b00320096
:1035e000e202660061026600e08f520011003200c4
:1035f000bd0290000504b200080032009d02780070
:10360000b6c2b300e00f52000100320006c3e8006a
:10361000864a7800850ee80015003700b0022000c9
:10362000e00f5200010032000080e8008d007800b9
:103630000c003700e00f52000e0032003d029000f7
:103640000404b200050032001d02780005c2b30078
:10365000054a7800840ee800050037008d007800e8
:10366000000220002e010700e10f4000010032009f
:103670000e07e8007faa9700e00f52004f003200cb
:1036800008c3b300840478003d0290000404b20033
:10369000040032001d027800084a7800840ee80019
:1036a000050037008d007800000320001c01070092
:1036b000e10f4000010032000e07e8008904e90034
:1036c000f1ff3a00f9af9f003c003700ffaa9700d6
:1036d000e08f5200140032006802660012003a00c7
:1036e00008c2b300850478003d0290000404b200d3
:1036f000040032001d027800084a7800840ee800b9
:10370000050037008d00780000022000040107004a
:10371000e10f4000010032000e07e8008904e900d3
:10372000f1ff3a00f9af9f00e20266006102660015
:10373000e08f520011003200bd0290000504b2007b
:10374000080032009d027800b6c2b300e00f5200bc
:103750000100320006c3e800864a7800850ee800c2
:1037600015003700b0022000e00f520001003200c7
:103770000080e8008d0078000c003700e00f520058
:103780000e0032003d0290000404b2000500320039
:103790001d02780005c2b300054a7800840ee800d7
:1037a000050037008d00780000022000dc000700d3
:1037b000e10f4000010032000e07e8001fb3970040
:1037c000a58423000602e900f0046600c223dd00a0
:1037d0000c057800c7a79f000a02b2006323b90056
:1037e000e99f9f00060478004322dd00b8a79f00f0
:1037f00085024200da9f9f00e5af9f00a3003700db
:103800009fb597000fb097008b05e90001042000d9
:103810009bb79f00810f50007300320003003c00f3
:10382000e00f5000080032007e003700040820003e
:103830000fb19700840f510056003200040c200095
:10384000840f510077003a00e00f56001f003d0042
:10385000efa997003304be002305be003fb09700d8
:10386000cfb097005fb19700efb197000802be009c
:103870000a03be00c2f607000802be000a03be002b
:10388000e0779f000000fb00cf80de0001017800a0
:1038900082017800c1f607003fb29700cfb29700cf
:1038a0005fb39700efb397000002520081825a0085
:1038b00002035b0083835b00b4b79f00c5b79f0022
:1038c000d6b79f00e7b79f002e003700ef9a97000a
:1038d000e08f5200220032006fab97003fb297009a
:1038e000cfb297003604be002605be000400be001d
:1038f0000801be0084bf9f00f5b79f000005eb00e4
:10390000e4f507000801be00e0779f000000fb001f
:10391000cf80de00350107000fba9700ffb2970095
:103920008aaf9f000004520081845a00d8a79f00ec
:10393000e9a79f008004eb00f9a79f005fa0970014
:10394000efa097007fa197008fa99700b0b79f00c5
:10395000c1b79f00d2b79f00e3b79f0009003700af
:10396000efa897003fb197001102780011000900fd
:103970000481d800a4002000110009000480d800b0
:10398000e1779f00ef7197000343b000e3779f005a
:103990002400370054a62300df9a9700e08f5200de
:1039a0000100320044a523003fb09700cfb097003c
:1039b0005fb19700efb197004fa397000603e900ae
:1039c000050033008301d1000281d3008180d30040
:1039d0000080d300f9ff37006f006000644078007a
:1039e000e0779f000f0037003fb29700cfb29700fb
:1039f0005fb39700efb397003fa497000804e90076
:103a0000050033008703d1000683d3008582d300ed
:103a10000482d300f9ff3700674262000443b0001c
:103a2000e4779f003d0290000404b20007003200da
:103a30009d0278006f729700844a7800850ee80036
:103a4000e04f520007003a0007003700ef7497007c
:103a50008d0078000900fb0031000700e10f4000f5
:103a6000010032000e07e8004fa59700bfa59700a0
:103a70006fa8970064055500e38555006800500065
:103a8000caa79f00bba79f00e0af9f009fb0970011
:103a9000e08f50005aff3a006806660014003200ba
:103aa0007fa99700e00f51001100340008c2b30055
:103ab000820478003d0290000404b2000400320049
:103ac0001d027800084a7800840ee80005003700df
:103ad0008d0078000002200011000700e10f400077
:103ae000010032000e07e8008904e900f1ff3a0006
:103af000dfa9970013407800e0779f00e04f500067
:103b000095fc3a000e0078004f0778004f06be0083
:103b10004f05be004f04be00ef03b10000000600d9
:103b2000889fbe00010478008084eb00380290007a
:103b3000e20262003b003200040378009802900029
:103b40000620b20002003a00e08f520035003a0031
:103b50000490a0008004780034049800f90fb200ab
:103b6000e08f520002003a00a8029000050c780095
:103b7000ea8f540005003a000408b20003003a003e
:103b800088007800d0002000e5ff070018029000b0
:103b9000d8029000850f52000b0032000402e800aa
:103ba00015c0b3001404980018027800094a780080
:103bb000040ce800e4af2300054a7800ea8f5400c3
:103bc00018003a00050037000940780088007800a6
:103bd00028000700800478001200370038029000a7
:103be0000410b2000f00320018019000a8009000ed
:103bf00048009000cef2070018029000840f500099
:103c000004003200380290000403b300340498002a
:103c10008084eb000002eb0014049800280290005e
:103c2000040c7800090078004f04be000000060074
:103c30000b00370030427800e04f520003003200a2
:103c40000201e900b14f5200050032000480fb0080
:103c5000954278008582fb000500500000000600b8
:103c600081027800e00f5100f2ff3a000200780074
:103c7000000006000200fa00889fbe0001047800e0
:103c8000a0ff9f0038029000840278000504b20073
:103c9000020032000000fb0035003700e202620043
:103ca00005003a000403b30015049800340498009a
:103cb0000080eb002e003700d8049000e08f540005
:103cc00006003a0012002000e680570048009000ed
:103cd00097f207001904980023003700a80290000b
:103ce000e08f520008003a0025b023000430a00005
:103cf00025049800050c7800340498002500200065
:103d0000550498001504980018019000a800900030
:103d10004800900086f20700280290008082eb00a5
:103d200015049800affa9700054a7800040ce800e3
:103d30002ffa9700ea4f52000b003a003802900029
:103d40000410b2000800320018019000a800900092
:103d50004800900076f207000002eb00a8029000f5
:103d600014049800050c78002ffa97000400fb005b
:103d70004f04be000080fa000000060000c0da0018
:103d80000000060000c0da000000060000c0da00f3
:103d90000000060000c0da000000060000c0da00e3
:103da00000000600811f78000100e00002003d00d5
:103db00060001000e08018000300e00002003d00f9
:103dc00060011100e0811900050007004f00e000cc
:103dd00002003b0060001000e080180000000600b8
:103de000acf407000400be0000000600020ab9009f
:103df000001bb9000200b8008100420081004300ae
:043e000000000600b8
:020000040000fa
:103e0400426c00006f71000075650000696f00006e
:103e1400206300006f6d0000202500003032000098
:103e240058250000303200005825000030320000d0
:103e340058200000652000006f70000065720000cb
:103e4400616400006f200000706f000072200000a9
:103e540025300000325800002530000032580000a0
:103e640025300000325800002052000020250000b8
:103e7400303200006420000041200000256400006e
:103e84000a000000417000006167000061640000e6
:103e94006f0a0000004f00007065000072610000ae
:103ea400646f0000723d00000025000063250000df
:103eb4006325000063250000632d000048610000b5
:103ec40044610000646f0000733f00000053000071
:103ed400696d00000a0000004e6100006f0a0000d6
:103ee4000025000063250000632500006325000011
:103ef400632d0000656e00007669000061720000a9
:103f040044610000646f000073000000256300003a
:103f14002563000025630000256300002d41000097
:103f24007061000067610000724400006164000079
:103f34006f73000000450000706f000063680000ac
:103f44003d000000486f0000726100003f00000067
:103f5400486f000072610000206400006f200000c0
:103f64004c650000697400006f720000203d000081
:103f74002025000073200000257300000a000000c3
:103f84004d61000071750000696e00006120000041
:103f94006f70000065720000616400006120000021
:103fa400706f0000723a00002530000032580000a3
:103fb400253000003258000025300000325800003f
:103fc4002065000020700000617200006164000040
:103fd40061200000706500006c6f0000206f00001d
:103fe40020700000656400006573000074720000b6
:103ff400653a0000253000003258000025300000ea
:1040040032580000253000003258000020650000be
:10401400206600006f720000616d0000206c0000db
:104024006964000061730000202500006420000022
:1040340074610000677300002061000073200000b9
:104044002573000020250000730a000000300000e2
:10405400302500006325000063250000632500006f
:10406400632c000025300000325800002530000089
:104074003258000025300000325800002c25000082
:10408400303200005825000030320000582500006e
:1040940030320000582c0000257300002c2500004d
:1040a400730a0000000a0000496e00006963000002
:1040b40069610000204f000070650000726100001b
:1040c400636100006f20000064610000206500004f
:1040d4006d700000696c0000686100006465000098
:1040e40072690000610a0000006e0000756c000037
:1040f4006f000000303000003a300000303a000019
:1041040000300000383a0000303000003a0000006f
:10411400313600003a300000303a0000004500001b
:104124006d700000696c0000686100006465000047
:104134006972000061200000666f000069200000c1
:10414400626c00006f71000075650000616400001e
:10415400610a0000004f00007065000072610000f9
:10416400646f000072200000656e0000747200002d
:104174006f750000206e0000612000006d6100007a
:1041840071750000696e0000610a0000004f0000b4
:104194007065000072610000647200006f2000000e
:1041a4007361000069750000206400006120000054
:1041b4006d61000071750000696e0000610a000005
:1041c400004f00007065000072610000646f000021
:1041d400723d000025630000256300002563000094
:1041e400256300002d2500006325000063250000e1
:1041f400630a0000000000004d6f0000646f0000bf
:1042040020640000652000006f70000065720000eb
:1042140061630000616f0000203d00002055000034
:104224006e690000636f00000a0000004d6f00001b
:10423400646f000020640000652000006f700000bf
:104244006572000061630000616f0000203d0000a2
:10425400204d0000756c000074690000706c000053
:104264006f0a0000004d00006f6400006f20000022
:1042740064650000206f000070650000726100003a
:10428400636100006f200000696e00007661000029
:104294006c690000646f00000a00000041740000b3
:1042a40072610000736f00002070000061720000f2
:1042b4006120000064650000677200006164000012
:1042c40061630000616f0000203d000020250000b4
:1042d400640a00000052000065700000657400006c
:1042e40069630000616f0000206400006520000025
:1042f4006c650000697400007572000061200000a4
:104304003d200000256400000a0000005365000001
:104314006e73000069620000696c0000696400004b
:1043240061640000652000003d2000002564000059
:104334000a000000546500006d7000006f2000004a
:104344007061000072610000206600006563000077
:104354006861000072200000756d0000206d00008f
:104364006f760000696d0000656e0000746f0000d8
:10437400206f000075200000616200006f72000071
:104384007461000072200000746100006720000066
:104394003d200000256400000a0000004e75000066
:1043a4006d650000726f000020640000652000004d
:1043b400616e0000746500006e61000073200000ef
:1043c4006c69000064610000732000003d2000005f
:1043d400256400000a000000536500006d20000001
:1043e4005749000045470000414e0000440a0000c0
:1043f4000057000049450000474100004e440000ba
:1044040020700000617200006120000061760000ed
:10441400616c000069610000722000006c6500009e
:104424006974000075720000617300000a000000e6
:104434005749000045470000414e00004420000059
:104444007061000072610000207000006f72000053
:10445400746100006c0a00000046000072650000f0
:1044640071750000656e0000636900006120000042
:104474003d200000256400004d6800007a0a000019
:10448400004600007265000071750000656e000052
:1044940063690000612000003d200000416e0000bf
:1044a40061740000656c00000a000000506f000099
:1044b40072740000616c000020640000652000003c
:1044c40065780000636c000075730000616f000084
:1044d400206c000069670000616400006f0a00003e
:1044e400005000006f720000746100006c20000036
:1044f4006465000020650000786300006c750000ae
:10450400736100006f20000064650000736c00009c
:1045140069670000616400006f0a00000043000046
:104524006170000061630000697400006f72000034
:10453400657300003a200000436900006e2000000b
:104544003d200000256400002c200000436500008d
:104554006e2000003d200000256400002c20000097
:10456400436f000075740000203d0000202500000a
:10457400640a0000002500003032000058000000ea
:104584003132000033000000415300003339000091
:1045940039330000205200006561000064650000aa
:1045a4007220000046690000726d0000776100000f
:1045b400726500007c7c0000415300003339000028
:1045c4003933000020460000455200004d490000e8
:1045d4002052000065610000646500007220000044
:1045e4004861000072640000776100007265000099
:1045f400203100002e300000004100005333000041
:104604003939000033200000526500006164000065
:104614006572000020460000697200006d7700009a
:1046240061720000652000002568000068780000c1
:104634002e25000068680000782e00002568000020
:1046440068780000206f00006e20000041530000d5
:104654003339000039330000204600004552000081
:104664004d490000205200006561000064650000af
:10467400722000004861000072640000776100004d
:1046840072650000203100002e3000000a00000096
:10469400080200000200000025300000326400001f
:1046a4002f25000030320000642f0000323000005b
:1046b4002530000032640000002500003032000084
:1046c400643a000025300000326400003a250000fe
:1046d4003032000064000000537500006e000000da
:1046e4004d6f00006e00000054750000650000006e
:1046f4005765000064000000546800007500000065
:10470400467200006900000053610000740000005c
:104714004a6100006e00000046650000620000006f
:104724004d61000072000000416200007200000050
:104734004d610000630000004a7500006e00000037
:104744004a7500006c00000041670000750000001d
:10475400536500006e0000004f6300007400000009
:104764004e6f000076000000446500006300000006
:1047740025300000326400002f2500003032000094
:10478400642f000032300000253000003264000045
:1047940000250000483a0000254d00003a2500009d
:1047a40053000000256100000025000062000000a5
:1047b40025300000326400003a2500003032000049
:1047c400643a00002530000032640000000000005c
:1047d40061700000706c000046690000726d00009a
:1047e4007761000072650000496e0000666f00008a
:1047f400726d000061740000696f00006e2000009b
:104804006e6f00007420000073750000707000006b
:104814006f72000074650000640000002530000021
:104824003278000025300000327800002530000086
:104834003278000025300000327800002530000076
:1048440032780000253000003278000000000000bb
:10485400436f00006e740000726f00006c2d000046
:1048640055700000004d00006172000073200000cc
:104874004f6e00006500000044610000646f00009a
:10488400733a0000004800006561000070200000d9
:10489400766100007a6900006f21000000000000ca
:1048a40072000000466900006c650000204e0000a4
:1048b4006f740000204600006f7500006e640000f5
:1048c40021000000400200004202000044020000f7
:1048d400480200006002000062020000640200005e
:1048e400680200002573000025730000000000002a
:0848f400051000001a0000008d
:020000040000fa
:1048fc000e00fa0064922f00d5002000048fbe0039
:10490c00d50e07001e01be0070c1b30096900200c8
:10491c00000000002c99020000000000000278004a
:10492c000500200044cc880055cc880010c0b30092
:10493c007e94020000000000002c210001002000e9
:10494c00f6fe020000000000ac980200000000001f
:10495c0000027800240798000040eb007e940200cf
:10496c0000000000ae029000f40f200004826200f0
:10497c00340798002e0290004822de00440798006d
:10498c00be0290003e02900004aab9000403780015
:10499c00ce0290004e02900004aab90004027800e6
:1049ac000402430005002000540798006507980096
:1049bc005e029000ee02900064cc880075cc8800fa
:1049cc005e039000ee039000c4fd2f000500200054
:1049dc00840f5300858f5b0004003600c4fd2f004c
:1049ec000500200064cc880075cc88007b0e070085
:1049fc000080fa00000006000000fa00f4cb8000f2
:104a0c00e00f520002003a00140020000f003700a3
:104a1c0078fe02000000000000027800f5cb800058
:104a2c00850f52000800390082fe020000000000d1
:104a3c0014c0b3000443780005982100864a78001e
:104a4c000002eb0001003700140020000400780085
:104a5c000080fa00000006000200fa00004f780007
:104a6c00c4992100144278009e4f52001600320067
:104a7c00c4992100144278000482fb00e10f52001b
:104a8c0003003a00248c02000000000001003700f3
:104a9c00000000009e4278000582fb00e10f5200ee
:104aac0004003a0020d72100188c020000000000fe
:104abc0001003700000000009e427800c4992100dc
:104acc00054a780001003700000000000080fa0061
:104adc00000006000000fa00020007000080fa0047
:104aec00000006000000fa00b4cfb30004437800c5
:104afc0085992100864a78000080fa0000000600a3
:104b0c000200fa000002eb00040f78000a003700e4
:104b1c009e027800a402200004aab9008402780046
:104b2c00047e21000482420004007800a27b020073
:104b3c00000000001e0fe800f4be80009e0278000a
:104b4c00848f5200f2ff35000080fa00000006004e
:104b5c000000fa00eaff0700265022008002eb005a
:104b6c0014002000860178000041eb0011c0b30056
:104b7c005013230008880200000000000002780097
:104b8c00044278000443780045832100864a78006b
:104b9c0044832100144278000482fb00c4e888009e
:104bac004483210014427800e04f5200020032008e
:104bbc0054132300c4c1880044832100144278009c
:104bcc000482fb00040078000080fa00000006005c
:104bdc000000fa00020007000080fa000000060046
:104bec000000fa0084cc8000144278000482fb00a0
:104bfc00e00f520004003200f50f2000850f520028
:104c0c000b00320013003700130e07000040eb00be
:104c1c007e94020000000000f00d07000042eb0043
:104c2c000443780085992100864a78000e003700ed
:104c3c00090e070010c0b3007e94020000000000b3
:104c4c000042eb000443780085992100864a7800e5
:104c5c000500370094cfb3000443780085992100f8
:104c6c00864a780000000000a4cc80008042eb0053
:104c7c00054a780014002000b4cc88000080fa00ab
:104c8c00000006000000fa00020007000080fa0095
:104c9c00000006000000fa00a4cc80006200200096
:104cac008000eb0004007800b0110200000000004e
:104cbc0084cc800014427800e04f5200180032007f
:104ccc0094ef8000e00f52001500320084cc80007d
:104cdc000402e8001442780004437800a5d82100af
:104cec00864a7800a4d8210014427800ff4f520065
:104cfc0004003600f4c1b30004437800a5d82100a9
:104d0c00864a7800a4d82100144278000441780027
:104d1c0011c0b30020df210078af020000000000ba
:104d2c0084cc80000482e80014427800e04f5200ea
:104d3c0018003200a4ef8000e00f52001500320082
:104d4c0084cc800063024200144278000443780053
:104d5c00b5d82100864a7800b4d8210014427800d6
:104d6c00ff4f520004003600f4c1b3000443780036
:104d7c00b5d82100864a7800b4d8210014427800b6
:104d8c000441780021c0b30020df210078af02007d
:104d9c000000000084cc80006402420014427800c1
:104dac00e04f520018003200b4ef8000e00f5200c8
:104dbc001500320084cc8000650242001442780059
:104dcc0004437800c5d82100864a7800c4d8210055
:104ddc0014427800ff4f520004003600f4c1b300b7
:104dec0004437800c5d82100864a7800c4d8210035
:104dfc00144278000441780041c0b30020df210048
:104e0c0078af020000000000a4cc80008042eb00d0
:104e1c00054a7800a4cc80000402e800a5d8210043
:104e2c0095427800054a7800a4cc800063024200c9
:104e3c00b5d8210095427800054a7800a4cc8000b2
:104e4c0065024200c5d8210095427800054a7800d9
:104e5c0064002000b4cc88000042eb0004437800ce
:104e6c0085992100864a78000080fa00000006002f
:104e7c000000fa00780d070003000700570d07002b
:104e8c000080fa00000006000600fa0084cc8000c6
:104e9c00144278006f4262004447980084cc800032
:104eac00144278000482fb004422de005447980030
:104ebc000002eb00040f78000002eb0014079800ce
:104ecc005e429000e04f520004003a0024df2100c3
:104edc00040f7800a4d82100140798001e02780053
:104eec00e00f5200370032004e4290000482fb006b
:104efc00e20f520010003200e30f52001900320092
:104f0c00e10f520022003a0010c0b3007e94020060
:104f1c0000000000420620009e0090001e00780059
:104f2c0078b20200000000000040eb007e9402000a
:104f3c00000000001700370010c0b3007e94020080
:104f4c00000000009e0090001e0078002cb30200b0
:104f5c00000000000040eb007e9402000000000006
:104f6c000c00370010c0b3007e940200000000005b
:104f7c009e0090001e00780020b40200000000008b
:104f8c000040eb007e94020000000000010037009e
:104f9c00000000001e029000244390001e029000ae
:104fac00944290001e0290001442780086417800d2
:104fbc0005417800844078001e007800dcb40200c3
:104fcc00000000000002eb00b4cc88000042eb00b3
:104fdc000443780085992100864a78000080fa0005
:104fec00000006000a00fa000002eb00140798000b
:104ffc000002eb00240798006022b80034079800e8
:10500c004507980084cc80000402e8001442780024
:10501c000482fb00050020003e039000ce039000ac
:10502c000602420087824a00340798004507980020
:10503c0084cc80000482e800144278000483fb00d6
:10504c0007002000483add00c832de0085027200fd
:10505c004832dd003e039000ce0390000602420071
:10506c0087824a00340798004507980084cc80005a
:10507c0063024200144278000482fb000500200009
:10508c00c022dd00040020003e039000ce039000ff
:10509c000602420087824a003407980045079800b0
:1050ac00c4212300144f780044c3b3009e427800ff
:1050bc0084cf52000200360044c3b300044f780082
:1050cc009e4278000582fb00c222dd00e421230011
:1050dc00048242003e039000ce039000068abe007c
:1050ec009e4378008782fb00e42e2300048242005a
:1050fc008042eb00054a780084cc800064024200b8
:10510c0014427800e04f52003a0032001e42780000
:10511c000483fb009e4278000582fb00250d2000d5
:10512c0084824200c421230004824200144278008d
:10513c008442e800e42e230004024300054a780070
:10514c009e4378000783fb0084cc800065024200fc
:10515c00944278002432230004024300054a78006c
:10516c001e4278000483fb0084cc8000660242005f
:10517c0094427800a438230004024300054a7800c6
:10518c009e4278000583fb0084cc800067024200bd
:10519c0094427800243f230004024300054a78001f
:1051ac0084cc800068024200144278000482fb0028
:1051bc001407980084cc80006902420014427800e5
:1051cc000482fb004822dd009e0290000482420013
:1051dc00140798001e4378000682fb00f411b000ff
:1051ec0084024200c4212300048242009e039000ea
:1051fc00070a780084cc80006a02420014427800ce
:10520c00e04f52003a0032001e4278000483fb004b
:10521c009e4278000582fb00250d2000848242000e
:10522c00c4212300048242001442780084c2e800a6
:10523c00e42e230004024300054a78009e437800c4
:10524c000783fb0084cc80006b0242009442780000
:10525c006435230004024300054a78001e4278009e
:10526c000483fb0084cc80006c02420094427800e2
:10527c00e43b230004024300054a78009e42780078
:10528c000583fb0084cc80006d02420094427800c0
:10529c006442230004024300054a780084cc800059
:1052ac006e024200144278000482fb00240798002e
:1052bc0084cc80006f024200144278000482fb0010
:1052cc004822dd00ae0290000482420024079800c0
:1052dc001e4378000682fb003415b00084024200a5
:1052ec00c421230004824200ae039000070a780018
:1052fc009e4278000582fb00250d2000848242002e
:10530c00c42123000482420014427800e04f520072
:10531c0005003200c4212300144278008442e800c6
:10532c00c4212300054a7800c4212300944278004c
:10533c0034c3b30084cf520005003600c4212300cf
:10534c0045c3b300054a780054c3b30002003700cc
:10535c00c421230014427800044078000080fa0035
:10536c00000006000000fa00020007000080fa00ae
:10537c00000006000000fa00a4cc800032002000df
:10538c008000eb0004007800b01102000000000067
:10539c000042eb000443780085992100864a78008e
:1053ac0084cc8000144278000482fb00e10f520090
:1053bc0011003200e20f52001d003200e00f5200cb
:1053cc0037003a00a4cc80008042eb00054a7800fc
:1053dc00a4cc80000402e80045c3b300054a780061
:1053ec00a4cc80000482e800c521230095427800fb
:1053fc00054a780036003700d42123008042eb00a8
:10540c00054a7800c42123008042eb00054a78004d
:10541c00a4cc800015c0b300054a7800a4cc800051
:10542c000402e80045c3b300054a780028003700a1
:10543c0094cc8000ef0f520005003e0094cfb300d7
:10544c000443780085992100864a780009003700ca
:10545c00e4fe07000042780045c3b300854f5200bc
:10546c000400360000c2eb0004437800859921004b
:10547c00864a7800a4cc800025c0b300054a780089
:10548c00a4cc80000402e800c521230095427800da
:10549c0046c3b30085425300054a78000c00370020
:1054ac00a4cc800080c2eb00054a7800a4cc80001c
:1054bc000402e80045c3b300054a7800b4cfb3003a
:1054cc000443780085992100864a7800000000008a
:1054dc0034002000b4cc88000080fa0000000600e4
:1054ec000000fa00020007000080fa00000006002d
:1054fc000200fa000042eb00044f780084cc8000dc
:10550c0014427800e04f52001000320084cc80002e
:10551c000402e80014427800e34f52000300360006
:10552c0094cfb300044f780008003700ca0b070073
:10553c0084cc80000402e800144278000443780014
:10554c0055982100864a7800a40b0700a4cc800053
:10555c00a2002000f10f200004007800b01102001e
:10556c0000000000a4cc8000d5c5b300054a78002b
:10557c00a4cc80000402e800b5c18000854278000c
:10558c00054a7800a4cc80000482e8008042eb003d
:10559c00054a7800a4cc80006302420015c0b30019
:1055ac00054a7800a4cc8000640242008042eb00e3
:1055bc00054a7800a4cc8000650242008042eb00d2
:1055cc00054a7800a4cc8000e602420094ef8000eb
:1055dc0004f0a7000402ea000402ea004f22de00f5
:1055ec0004437800a4ef8000e00f520002003a0060
:1055fc000042eb000100370024c0b30004437300e9
:10560c00b4ef8000e00f520002003a000042eb00c1
:10561c000100370044c0b30004427300844a780090
:10562c00a4cc800067024200559821009542780076
:10563c00054a7800a4cc80006802420025c0b30063
:10564c00054a7800a4cc8000690242008042eb003d
:10565c00054a7800b4cc8000ea0f520002003600f4
:10566c00a4002000b4cc88001e42780004437800cb
:10567c0085992100864a78000080fa000000060017
:10568c000600fa00004f78001147980012079800a6
:10569c0023079800700b07001e427800e04f520061
:1056ac00050035009e4090001e4078000a8f0200d5
:1056bc0000000000030037001e407800268e020018
:1056cc00000000002e0290008042eb00054a78009a
:1056dc001e02900015002000050a78000042eb0025
:1056ec00044078000080fa00000006000600fa0072
:1056fc00004f78001107980022079800560b0700fe
:10570c001e407800ae8e02000000000000427800bf
:10571c00ae029000844a78001e0290001500200012
:10572c00050a78002d0b07000042eb0004407800be
:10573c000080fa00000006000000fa00460b07008b
:10574c0003000700250b07000080fa00000006008c
:10575c000000fa00881f780084cc80001442780086
:10576c00e04f52000600320084cc80000402e800b6
:10577c0014427800044078000a96020000000000f1
:10578c0094002000b4cc8800a4cc80000404e80071
:10579c00609502000000000000427800044c780084
:1057ac000042eb000443780085992100864a78007a
:1057bc004f0478000080fa00000006000000fa0098
:1057cc00c499210014427800e14f520004003a00c1
:1057dc000042eb0004437800c5992100864a78000a
:1057ec0084cc800014427800e04f52000600320056
:1057fc0084cc80000402e800144278000443780052
:10580c0035d72100864a780084cc80000482e800d9
:10581c0014427800e04f52000600320084cc800025
:10582c0063024200144278000443780045d72100fb
:10583c00864a780084cc80006402420014427800ce
:10584c00e04f52000600320084cc8000650242001a
:10585c00144278000443780075d72100864a7800fa
:10586c0084cc80006602420014427800e04f520063
:10587c000600320084cc800067024200144278009b
:10588c000443780055d72100864a780084cc8000e8
:10589c006802420014427800e04f520006003200c9
:1058ac0084cc8000690242001442780004437800e2
:1058bc0025d72100864a780084cc80006a024200f9
:1058cc0014427800e04f52000600320084cc800075
:1058dc006b024200144278000443780095d72100f3
:1058ec00864a780084cc80006c0242001442780016
:1058fc00e04f52000600320084cc80006d02420062
:10590c00144278000443780065d72100864a780059
:10591c0084cc80006e02420014427800e04f5200aa
:10592c000600320084cc80006f02420014427800e2
:10593c000443780085d72100864a7800a4cc8000e7
:10594c00020120008000eb0004007800b01102007e
:10595c000000000004012000b4cc88000042eb00e1
:10596c000443780085992100864a7800a4cc8000f5
:10597c000402e80035d7210095427800054a7800ea
:10598c00a4cc80006302420045d7210095427800e8
:10599c00054a7800a4cc80006502420075d721002e
:1059ac0095427800054a7800a4cc8000670242003a
:1059bc0055d7210095427800054a7800a4cc800088
:1059cc006902420025d7210095427800054a7800eb
:1059dc00a4cc80006b02420095d721009542780040
:1059ec00054a7800a4cc80006d02420065d72100e6
:1059fc0095427800054a7800a4cc80006f024200e2
:105a0c0085d7210095427800054a78000080fa007d
:105a1c00000006000000fa0068ff07000080fa0092
:105a2c00000006000600fa00881f78001007980096
:105a3c00210798000042eb0014479800860a0700e3
:105a4c000042eb00044f78002b0037001e42780018
:105a5c00ef4f5200270032001e427800fd4f5200db
:105a6c000400360014c2b3009e42780084cf52006a
:105a7c002000360024c2b3009e42780084cf52002e
:105a8c000400360084c2b3009e42780084cf5200da
:105a9c0018003600e4c2b3009e42780084cf520056
:105aac000400360024c3b3009e42780084cf520019
