:020000040000fa
:080000000002040000000000f2
:020000040000fa
:100008005a0300005a0300005a0300005a03000074
:100018005a0300005a0300005a0300005a03000064
:100028005a0300005a0300005a0300005a03000054
:100038005a0300005a0300005a030000507d0100d3
:10004800287d01005a0300005a0300004c3d0100be
:100058005a0300005a0300005a0300005a03000024
:100068005a0300005a0300005a0300005a03000014
:100078006aeb00005a0300005a0300005a0300000c
:100088005a0300005a0300005a0300005a030000f4
:100098005a0300005a030000d03d01005a03000033
:1000a8005a0300005a0300005a0300005a030000d4
:1000b8005a0300005a0300005a0300005a030000c4
:1000c8005a0300005a0300005a0300005a030000b4
:1000d8005a0300005a0300005a0300005a030000a4
:1000e8005a0300005a0300005a0300005a03000094
:1000f8005a0300005a0300005a0300005a03000084
:100108005a0300005a0300005a0300005a03000073
:100118005a0300005a0300005a0300005a03000063
:100128005a030000223d0100923d01005a030000dd
:100138005a0300005a0300005a0300005a03000043
:100148005a0300005a0300005a0300005a03000033
:100158005a0300005a0300005a0300005a03000023
:100168005a0300007c3e0100ce3e01005a03000005
:100178005a0300005a030000c00000005a030000a0
:100188003e3f0100463f01005a0300005a030000a9
:100198005a0300005a0300005a0300005a030000e3
:1001a8005a0300005a0300005a0300005a030000d3
:1001b8005a0300005a0300005a0300005a030000c3
:1001c8005a0300005a0300005a0300005a030000b3
:1001d8005a0300005a0300005a0300005a030000a3
:1001e8005a0300005a0300005a0300005a03000093
:0801f8005a0300005a03000045
:020000040000fa
:100208005a0300005a0300005a0300005a03000072
:100218005a0300005a0300005a0300005a03000062
:100228005a0300005a0300005a0300005a03000052
:100238005a0300005a0300005a030000507d0100d1
:10024800287d01005a0300005a0300004c3d0100bc
:100258005a0300005a0300005a0300005a03000022
:100268005a0300005a0300005a0300005a03000012
:100278006aeb00005a0300005a0300005a0300000a
:100288005a0300005a0300005a0300005a030000f2
:100298005a0300005a030000d03d01005a03000031
:1002a8005a0300005a0300005a0300005a030000d2
:1002b8005a0300005a0300005a0300005a030000c2
:1002c8005a0300005a0300005a0300005a030000b2
:1002d8005a0300005a0300005a0300005a030000a2
:1002e8005a0300005a0300005a0300005a03000092
:1002f8005a0300005a0300005a0300005a03000082
:100308005a0300005a0300005a0300005a03000071
:100318005a0300005a0300005a0300005a03000061
:100328005a030000223d0100923d01005a030000db
:100338005a0300005a0300005a0300005a03000041
:100348005a0300005a0300005a0300005a03000031
:100358005a0300005a0300005a0300005a03000021
:100368005a0300007c3e0100ce3e01005a03000003
:100378005a0300005a030000c00000005a0300009e
:100388003e3f0100463f01005a0300005a030000a7
:100398005a0300005a0300005a0300005a030000e1
:1003a8005a0300005a0300005a0300005a030000d1
:1003b8005a0300005a0300005a0300005a030000c1
:1003c8005a0300005a0300005a0300005a030000b1
:1003d8005a0300005a0300005a0300005a030000a1
:1003e8005a0300005a0300005a0300005a03000091
:0803f8005a0300005a03000043
:020000040000fa
:100400004fa127000eff27000e018800000000000a
:10041000000020000000e000020032000001200087
:10042000200288000c000700e06226001100200076
:100430000f000700000020000000e0000200320072
:100440000000020000000000600102000100000046
:100450000040da000000fe00e04921000000e0005a
:1004600002003200002020009001880000000600f9
:10047000a1028800800078000000eb001a0037001d
:10048000e280400054a0b4009101ba00e280400034
:1004900054a0b4009102ba00e280400054a0b4001d
:1004a0000002eb00472bde00f507b200a601880032
:1004b000602ce10008003a000049eb000201e8006e
:1004c000020039003420ec0002f0a0008301e900b2
:1004d000f9ff3e00040037006128e100010032000e
:1004e0000082eb00040007001101ba000200e000e6
:1004f000e3ff3a000000060004d0a300e20f490029
:100500001c003900810278003549ba000201e80078
:10051000020039003420ec0002f0a0008301e90061
:100520000f0032002549ba000201e800020039003c
:100530003420ec0002f0a0008301e9000800320042
:100540000400e0000600320015c9ba000201e8000c
:10055000020039003420ec0002f0a0008301e90021
:100560008180e80054a0b4000300e000e2ff3a00fc
:10057000000006009102ba00055978008301e900e5
:10058000f7ff3200c82ade00055978008301e90030
:10059000f3ff32000400e000f1ff320011d9ba008d
:1005a000eeff37004e870400000000009c8c040022
:1005b00000000000328804000000000034950400b0
:1005c000000000001c8f040000000000c48d040027
:1005d000000000006890040000000000b6910400d4
:1005e000000000004a93040000000000ce990400bf
:1005f000000000003e9b040000000000e09b04009f
:1006000000000000b887040000000000489c0400bf
:1006100000000000e68b0400000000006e8904006a
:10062000000000008688040000000000de8f040047
:10063000000000001490040000000000349004004a
:10064000000000009a9c040000000000049e0400ca
:100650000000000000020400000000000000040090
:1006600000000000ee32040001000000f833040036
:100670000100000012fa0400000000001afa040051
:100680000000000022fa040000000000a0a90400fd
:1006900000000000b0a9040000000000d8a9040078
:1006a00000000000c0a9040000000000cca9040064
:1006b000000000000040da000000fe001004b1005d
:1006c000070035009001b100040034007000b10053
:1006d000030035009001b10001003c00100005004e
:1006e000000005006900e100040035006d00e10034
:1006f000030034000002b1000100320000000500d8
:10070000100005001004b100030035009001b10095
:1007100001003c001000050000000500800078008a
:100720001104b100030035009101b10001003c004b
:100730000050a000000006000a00fa00e00f500080
:1007400027003a0094938300e10f52000600320024
:100750008723200066232000252320000423200077
:10076000e08f530004003a00872220006622200018
:100770002522200004222000000028001400600030
:1007800003003a00800b780007002800148a7300e9
:10079000020278000c0037008703e9009501780019
:1007a0006180610002003a00e08f5300faff3a00d6
:1007b00015007800e103600007003200960378001e
:1007c0000402e90087587800e00f5200020032006e
:1007d000070a2000f1ff370004005100080037002d
:1007e00024002000c0bf9f00b4bf9f006a80570054
:1007f000d1bf9f00e2bf9f00531007006fb8970062
:100800000080fa00000006000002eb000a00fa0077
:10081000b4bf9f00c0bf9f000082eb006a805700fa
:10082000d1bf9f00e2bf9f00f4bf9f0048100700a8
:100830007fb89700e10f400002003a0064002000fa
:10084000844088000080fa00000006004400200078
:100850000a00fa00c0bf9f00f1bf9f006a805700e6
:10086000b4bf9f00d2bf9f00e3bf9f003a100700b4
:100870005fb89700efb897000080fa00000006000c
:10088000140020000a00fa00c0bf9f00b4bf9f0000
:100890006a805700321007004fb897000080fa00b6
:1008a000000006000a00fa00e20f500022003e009d
:1008b00094938300e10f520006003200872320004a
:1008c000462320002423200005232000e08f53002e
:1008d00004003a0087222000462220002422200023
:1008e00005222000000028001500600003003a00e7
:1008f000800b780007002800958a730005402000cf
:100900009482620001003a0014a0a00082027800e4
:1009100006003700940378000710b200fdff320094
:10092000b103fb00070b78008502e900e08f52005d
:10093000f8ff3a000800370034002000c0bf9f00d5
:10094000e2bf9f00b4bf9f00d1bf9f006a805700e5
:10095000051007006fb99700020078000080fa00c8
:1009600000000600540020000a00fa00c0bf9f00eb
:10097000b4bf9f006a805700fd0f07005fb8970063
:100980000080fa0000000600889fbe008004780006
:10099000a0938300e00f500004003a000e0007000f
:1009a0000084eb00e00f500008003500a89383009e
:1009b000e08f5400050032000900440006000700e3
:1009c000e00f500001003d000084eb0008007800bb
:1009d0004f04be0000000600e00f500004003a0083
:1009e00064272700a4938b000002780006003700dc
:1009f0000082eb0045a12700850f500002003e0059
:100a0000a0938b000002eb000400780000000600b9
:100a10000000fa0014118000044278006142620074
:100a2000044078000080fa00000006000000fa0090
:100a30009411800004427800614262000440780012
:100a40000080fa00000006000000fa009412800006
:100a50000442780061426200044078000080fa009d
:100a6000000006000000fa0094158000044278009f
:100a700061426200044078000080fa000000060035
:100a80000000fa000411800066026200e60f5200c6
:100a900002003a0034118000030037003511800055
:100aa000f40f200004826200040078000080fa0045
:100ab000000006000000fa00841180006602620057
:100ac000e60f520002003a00b41180000300370024
:100ad000b5118000f40f2000048262000400780049
:100ae0000080fa00000006000000fa008412800076
:100af00066026200e60f520002003a00b412800063
:100b000003003700b5128000f40f20000482620059
:100b1000040078000080fa00000006000000fa00df
:100b20008415800066026200e60f520002003a005f
:100b3000b415800003003700b5158000f40f2000c5
:100b400004826200040078000080fa0000000600c1
:100b50008f1fd100970207008f87e9000000e00097
:100b600000000600809feb00920207008f87e900db
:100b70000000e000000006002800fa00889fbe0088
:100b80008a9fbe008c9fbe0003866b008f0007000b
:100b90006400e100440032006408e1004a003200d1
:100ba0006100e100460032006108e10049003200c6
:100bb000ec0647006000b8003d02be003d03be00e9
:100bc000f48657006011b8003d04be003d05be002c
:100bd0007d0320000b0037000000a0008d06e90017
:100be000130032000402420085824a0006034b00d3
:100bf00087834b00000040008180480002014900cb
:100c0000838149000802520089825a000a035b006e
:100c10008b835b00f0ff3b000802420089824a00a0
:100c20000a034b008b834b008d06e900edff3a0071
:100c30008482720086827200f707b2008782720097
:100c400001003200150020001e0490003e0b9000b1
:100c500006035400e63fb0000368a300070032001b
:100c60000000a7000500a0008301d1000281d3008d
:100c70008180d3000080d3000603e8008301d10007
:100c80000281d3008180d3000080d3000002eb00fa
:100c90000482d2002100070003f0a1000cf0a7009d
:100ca00003f0a0005d003700640247006408e10023
:100cb000570032003400be003401be00f6ff37009a
:100cc0006108e100520032006011b8006000b80015
:100cd000f1ff370003ff270002002000fbff370071
:100ce000839f68000100e00002003d0060001000ea
:100cf000e08018000300e00002003d0060011100e8
:100d0000e0811900400107004f00e00002003b00b5
:100d100060001000e08018000000060018002000ad
:100d200057002000080453000d003d00060020007d
:100d300097fc2f000740e1001e00340084827200ff
:100d4000610260008301d1000281d3008180d30061
:100d50000080d3000804e800f8ff3a0047002000b4
:100d60006104600005047400040464000d00320096
:100d700061004000e080480060014900e0814900d6
:100d800003b8a500070032000603e8006538e1005b
:100d900004003a008301d1000281d3008180d30096
:100da0000080d300f87f20000830e1000300350008
:100db000080378006000b8006011b8004433dd001b
:100dc000f300b200830173000000060068044700ce
:100dd0000294be000094be00fc0447008694be004e
:100de0008494be00090078003b02070008007800e8
:100df0003902070099007800814f70000b003b001a
:100e00000800be00140207004f00b10003003700c5
:100e1000f3ff2700f2ff2f006110b9004f06be005c
:100e20004f05be004f04be000080fa00000006001f
:100e30001400fa00889fbe008a9fbe008c9fbe00ef
:100e40000004be000205be00680047000a90be0014
:100e50000890be00200207000070a7000bf0a10060
:100e6000304320009e02900080825200b0fe2f008e
:100e70000028e10011003d00b0fc2f000028e10037
:100e8000150034001e0990008e0890007e0090002e
:100e90000501b0000201d1008180d3000080d300a1
:100ea0008502e800fbff3a000b00e000dbff3b009f
:100eb00060001000e0801800d8ff3700f0ff2f001e
:100ec000f1ff27000b00e000d4ff3b0001002800e9
:100ed00000002000d1ff37006000b800cfff3700ce
:100ee0004f89de0082017800220237006011b800cd
:100ef000300237002800fa00889fbe008a9fbe009b
:100f00008c9fbe0003866b00b0ff07000028a30083
:100f100064003a000128a30067003a000008a3001b
:100f200062003a000108a30065003a001e0090002c
:100f3000be08900081064000ed3fb100f4805700ec
:100f4000ee019000111ab8008e099000311bb80014
:100f50009e099000311cb800511db800f48557005f
:100f600046000700fe0190003a0007008b85e8006c
:100f70003e0007008e09900040000700ee0190003f
:100f8000340007008b85e800380007008e099000c8
:100f9000400007009e0990001b18b800890440001b
:100fa0000a854800fe019000340007008b85e800a8
:100fb00038000700ee019000300007008e09900015
:100fc0001b18b800890440000a8548000a98a3004d
:100fd00008003a000402420085824a0006034b00e2
:100fe00087834b0008044c0089844c000a054d009f
:100ff0008d06e90084827200850273004c3add00a0
:10100000850272000100320015002000443ade0023
:101010001400b2004538de00cb45dd000b00700047
:10102000c540de00cb4ddd008b8070004549de0001
:10103000cb55dd000b017100c551de000d037800ba
:1010400036ff070003f0a1000cf0a70003f0a0009a
:1010500072ff37001b18b800850240000683480065
:10106000e0834b0060044c00070037001b18b800f9
:101070000603400087834800faff37001b18b800ba
:101080008703400008844800e0844c0060054d0060
:10109000000006001b18b8000804400089844800be
:1010a000faff37000108a30059ff3a005800be00bc
:1010b0005801be00e3ff37000008a30054ff3a00c8
:1010c00009047800f9ff37001400fa00889fbe0079
:1010d0008a9fbe008c9fbe000004be000205be00b9
:1010e000680047000a90be000890be007a01070021
:1010f0000078a3003d003a006100e1003c003200ae
:101100000bf8a3003d003a006400e1003800320013
:101110006c0347001e009000f03fb1003602be0095
:101120001603be000008a3000400320004024200bf
:1011300085824a0006034b0087834b001007980006
:101140008e1f78006000b8006011b8005c002000bd
:101150006d0120006e002000020037008d86e9003e
:10116000fc0020000402420085824a0006034b0076
:1011700087834b0000044000818448000205490039
:10118000838549006060e1001d60ad0008045200e5
:1011900089845a000a055b008b855b0003003900d7
:1011a0001e60ad000802be000a03be000c06e90086
:1011b000ecff3b000e87e900e8ff3b004f0778009b
:1011c00061026000840278008301d1000281d300b3
:1011d0008180d3000080d3001e03900041b3de0065
:1011e000f63fb000cdfe07000cff37000b30a0002b
:1011f0000800be000a01be0008ff370012022000ee
:101200008240880002ff37006022b80006022000fa
:101210000000d0008180d2000482d2008582d200fa
:101220000000a0000202520083825a000300310035
:101230000202420083824a000000a1000603e90086
:10124000f3ff3a0000000600889fbe008a9fbe00a0
:101250003004be002005be000404440085844c0018
:1012600006054d0087854d000898be000a90be0017
:101270000440e10005c8e10006d0e10007d8e10024
:1012800002003100680040001008e8004f05be0071
:101290004f04be00000006001000fa00889fbe0048
:1012a0008a9fbe00110020000605be000404be0097
:1012b0003002be002003be00c4b79f00d5b79f0018
:1012c000e6b79f00f7b79f000802520089825a00d4
:1012d0000a035b008b835b0084bf9f0095bf9f0068
:1012e000a6bf9f00b7bf9f000498be000698be002f
:1012f0004fb29700dfb297006fb39700ffb397002c
:101300000820e10009a8e1000ab0e1000bb8e10003
:10131000010039008000eb004f05be00108810006e
:101320004f04be000080fa00000006001400fa001e
:10133000889fbe008a9fbe008c9fbe000006eb0007
:101340003e000700ccb79f00bcb79f00acb79f0022
:101350009cb79f008cb79f000605be000404be002a
:101360000d0420004fb39700bfb2970086034300df
:101370002fb29700e00f530004003d003d0007002e
:101380000f004000b0ff07000300370039000700de
:101390000f004000c0ff0700cfb2970095bf9f002d
:1013a000e08f5200090035002b00070014002000d8
:1013b000050020006033b8000000720081807200d8
:1013c00002017300838173001c0007000c06e80013
:1013d0008d0f5600e3ff3a001fba9700e00f52004e
:1013e00005003d000802be000a03be0000fe2f00fb
:1013f0000f00400094ff07004faa9700e00f520033
:1014000008003a000fb497009fb497002fb59700db
:10141000bfb59700d8b79f00e9b79f00fab79f0004
:101420008bbf9f000c0007004f06be004f05be009b
:101430004f04be000080fa00000006000100070013
:101440000000060090b79f00a1b79f00b2b79f00b1
:10145000c3b79f000000060001000700000006005f
:101460001fb09700afb097003fb19700cfb1970082
:10147000000006004f2bde00f9ff07008683730093
:10148000858242004f23de00a7b79f00868272004c
:101490000402420095b79f00ffaa97004f2bde0081
:1014a000858242000602720084b79f006faa9700ef
:1014b0004f23de000402420086827200f5af9f00d7
:1014c0004f18de0000027200e5ff0700e4af9f0046
:1014d00000004000818048000201490083814900ea
:1014e0000802be000a03be00d6ff070000fe2f0060
:1014f00000000600881f780018002000881f780070
:101500008aff07008f87e9004f047800000006007b
:10151000889fbe008a9fbe008c1f78000006eb00eb
:10152000e00f5000e08f5800e00f5900e08f5900a5
:1015300007003d006044b8006055b8001c00200062
:101540000000540081805c0002015d0083815d0029
:10155000e00f5200e08f5a00e00f5b00e08f5b006d
:1015600007003d006044b8006055b8000c00a200c0
:101570000402540085825c0006035d0087835d00e1
:10158000b7000700e00f5600060032006022b800e6
:101590006033b8000000520081805a0002015b00f5
:1015a00083815b004f0678004f05be004f04be00ec
:1015b00000000600889fbe008a9fbe008c9fbe0070
:1015c0000404be000605be00809fbe00829fbe00d0
:1015d0002f000700040678000800be000a01be00c4
:1015e0002b000700840678004f03be004f02be00a8
:1015f0008d4f76007fb0970013003300f0ff2f006f
:101600008b8f6b0006003b000d0666000c00a700e8
:101610000a00370007f0a600100020000a0037007b
:10162000880f5200898f5a008a0f5b008b8f5b00f6
:10163000030039001000200001003e0000002000df
:1016400007f0a7000000ea004f06be004f05be00ed
:101650004f04be0000000600e48240001078a300a2
:1016600007003200640240001178a3003400be007d
:101670001401be00040032000330a7000000060081
:101680003500be001501be000330a00000000600ba
:1016900005ff270005826100070032000428e100f1
:1016a00001003200240005000600070001003a0096
:1016b000440005000408050002000700f9ff3a0095
:1016c000140005006f8261008102700085027100c4
:1016d0008502720000000600800078005002be0003
:1016e0005003be004439de00f700b200f37f200053
:1016f00003016100090032000218e10016003a00ff
:10170000850172008301730083817300000820004b
:1017100015003a00400020001300370085017200d8
:10172000830173008381730005003a0004a8be00a2
:1017300006a8be00100020000b0037000201e900df
:101740000402420085824a0006034b0087834b0057
:101750000748a300f9ff32000740a00004a8be001c
:1017600006a8be002000200080009800920098008b
:1017700000000600881f7800030478000300e000e2
:1017800007003d0060001000e080180060011900b3
:10179000e081190002003b0001f02d00030037003a
:1017a0000400070008f0a70003f0a0004f04780031
:1017b00000000600889fbe000082700004027100d5
:1017c000048271002400320036432000c50020004e
:1017d0008383cf000a0039000541b1008283cf0026
:1017e000070039000541b1008183cf0004003900b2
:1017f0000541b1008083cf00010039000541b100ef
:1018000085c353006022b800120032000a003b007a
:1018100084827200610260008301d1000281d300e2
:101820008180d3000080d3000603e8008743e800ee
:10183000f7ff3a00070037000000400081804800b1
:1018400002014900838149000603e9008743e9005a
:10185000f9ff3a0031fd07004f04be00000006000a
:10186000889fbe008a9fbe008c9fbe000404b80003
:101870000506b8008904460060854e000606b800db
:101880000a054600e0854e000706b8008b054600b5
:10189000040eb800890446000a854e00e0854d001c
:1018a000050eb8000a0546008b854e00060eb800ee
:1018b0008b0546000416b8000a0546008b854e00cd
:1018c0000516b8008b054600041eb8008b054600bf
:1018d0000800be000a01be004f06be004f05be0054
:1018e0004f04be000000060006c2b30000027800ec
:1018f00004007800b042780086cf5200fbff32002f
:10190000e9cf5200f9ff3200d6c2b30086cf5200b1
:1019100003003a000002780016c0b300050037004b
:101920000043eb00b7c2b30087cf520001003a007a
:10193000000278000000eb00020037006a00b900e6
:1019400000804200b402fb000503b100e98f5200a1
:10195000faff3600e04f5300010032000000ea00b9
:101960000000060004c2b300889fbe008a9fbe002c
:101970003044780080047800844f5400fcff32002b
:10198000e94f5400faff3200d4c2b300844f540030
:1019900003003a00394478001ac0b300050037004c
:1019a0000045eb00b4c2b300844f540001003a007c
:1019b000394478006000b8000bcdb300090037004f
:1019c000a200200003002000fd0b07000b42440092
:1019d000394478000482fb00050020000400400028
:1019e000858048000882fb000403b100e90f520023
:1019f000f3ff3600e04f5500020032006000100097
:101a0000e08018004f05be004f04be000000060035
:101a100000027800d0162000e30262000e003a00b7
:101a200045062000110009000582d800e0162000bc
:101a3000e08f500008003a00c412b00005192000e1
:101a4000110009000582d800d0162000e08f500058
:101a500001003a000000e80000000600c203200078
:101a600003002000889fbe001004be000800be00d6
:101a7000c10b0700c203200003002000908f8b00e1
:101a80000800be0096fc0700c203200003002000ef
:101a90000004be00b80b0700c203200003002000b2
:101aa000a08f8b000800be008dfc07008201200083
:101ab000030020000004be00af0b070082012000dd
:101ac00003002000b08f8b000800be0084fc0700dc
:101ad000740020000004be00e402400069042000fd
:101ae000110009008402d80001027800f48f8b00f5
:101af00002003700000454008904e800090078005f
:101b0000c3ff0700800f5400faff3d00e98f8b00f0
:101b10006240600008908b000002eb000621270065
:101b2000040037000080fb00050454000402e800b4
:101b30000000d100e6427a00854270008582fb00f9
:101b4000850f5400f7ff3d00d48f8b00841f2700c2
:101b5000080ae800660052004f04be0000000600bc
:101b6000f59283000400fa0044fc2f0004aab90097
:101b700030034200a0834a0064805700e6bf9f0004
:101b8000f7bf9f00b5ff07000080fa0000000600c5
:101b9000889fbe00000478008a1f780038029000f9
:101ba0000080eb00630262002a0032000800780027
:101bb0002b0007003805900084ef2f0028009000cc
:101bc0000402650034049800e00f50000400320065
:101bd000e804650002003a00e204070029049800c6
:101be0004800900026fb0700e10f4000190032007a
:101bf000b80490000080eb000902b20015003a0022
:101c000000002100000065001200320030938300c4
:101c1000e00f50000f003200042a2000902a9000ac
:101c2000888f520006003a004efb07003493830071
:101c30000000eb0089044200902c9800050037005a
:101c40004905b0004005b000848f5400f3ff3a000e
:101c50000000eb004f0578004f04be0000000600b6
:101c6000881f780000047800380090000002780097
:101c70001420b200e10f520005003a000002eb0010
:101c80001404980028029000040c78001900370012
:101c900080027800242020002520b2000000eb0004
:101ca000848f520016003a00a8009000808f5000e8
:101cb0001300320018019000800f51001000320014
:101cc00048009000f7fa070018029000840f5000b7
:101cd00003003200380290000403b300340498007b
:101ce000380090000002eb001404980028029000d5
:101cf000040c78000002b200010032000080eb000a
:101d00004f047800000006006412270014027800d7
:101d1000630262000a003a002413270014027800cc
:101d20006302620008003a00e413270082132700d0
:101d300014027800630262000500320003003700dd
:101d40000212270001003700c212270002003700ec
:101d50000400780000000600889fbe00020478009e
:101d60008a9fbe0001057800800578000800780091
:101d700087ff07003802900025c7b30068026200a1
:101d8000340498001a427800854f52000b0032004c
:101d9000e5c24200854f520005003200f6c25200f3
:101da0008044eb00854f520062003a00010037008a
:101db00019c0b3008944e800010037008044eb00fb
:101dc0008a02780027c6b3000045eb00b6c2b30014
:101dd0000c003700874f520004003a003802900090
:101de0000470a0003404980006003700864f5200ab
:101df00007003a00380290003400b3003404980021
:101e00002ac0b30055427800e04f5200f1ff3a007b
:101e1000e1cf540003003200e2cf540015003a0035
:101e20000a00370011002000e04f55000100320089
:101e300021002000621b20000b00780072fa0700ce
:101e400040049800e00f50000f003d00621b20008e
:101e5000210020000b0078006bfa07004004980076
:101e6000e00f500008003500e04f5500060032003a
:101e700083fa07008a80fb00621b20000b007800b9
:101e800061fa07004004980048029000e00f5200f9
:101e900004003d000002eb003404980004047800c4
:101ea00025003700380290006c02620004003a00fe
:101eb0001f04070024002000200498005404980008
:101ec00028029000e10f420007003a008004eb0076
:101ed000480090002904980069fa07003904980026
:101ee0000904780014003700040c78000002eb00ad
:101ef0001404980038029000e0cf5400050032002e
:101f00002420b30034049800e1cf54000a003a00c2
:101f1000030037000400a0003404980006003700d6
:101f2000210020006011b800080078003800070088
:101f3000010037000004eb00080078004f05be00e8
:101f40004f04be0000000600881f780000047800df
:101f50008a9fbe008c9fbe006011b80018007800f8
:101f60001100200039fa07006011b8000006be0019
:101f7000180078002100200034fa07000c01be0090
:101f80000005be00180078008000eb002ffa070063
:101f90004f06be000a00be004f05be004f04780089
:101fa00000000600881f780000047800110020005f
:101fb0006011b8004800900024fa07001802900051
:101fc000e00f520002003d000002eb0014049800f4
:101fd0002802900098029000e00f520007003200a3
:101fe000380290000420b20004003200612ab900d7
:101ff0000000420081804a0003003700612ab900d6
:1020000004005000858058004f047800000006004e
:102010000400fa00881f780000047800380290005d
:102020000440a1003404980028029000e00f520000
:1020300009003a004800900004fa0700010060001f
:102040000082ea0004f0a7000402ea000400e900ac
:102050004f80de0048003700e18f5000050032005d
:10206000e28f500008003200e08f50001000320074
:102070004000370008007800d2bf9f00e3bf9f00f8
:10208000c8ff07000600370008007800d2bf9f0095
:10209000e3bf9f00f2fe070068004400aaff0700ac
:1020a0005fb99700efb997000201400083814800b3
:1020b000d2bf9f00e3bf9f0008007800b9ff070070
:1020c0005fb99700efb99700000251008182590073
:1020d000030032003803900006b0a00036049800d8
:1020e0003803900063036300e10f53000d003a00d2
:1020f000e00f5200e08f5a000a00350018039000ec
:102100006130b900800f5200818f5a0005003c00f9
:1021100004035300180c4200160498000000eb0062
:1021200015003700380290000420b2000900320088
:1021300018029000e00f520006003200d2bf9f004c
:10214000e3bf9f0008007800c5fe0700efb99700c5
:102150005fb997008000eb002802900011049800fe
:10216000040c780048009000b8f907004f88de00a2
:10217000010037000080eb004f0478000080fa0077
:1021800000000600810378008001780007027800d3
:102190000100370085017800110009000282d80093
:1021a0008302e80000027800e00f5200f9ff3a00d5
:1021b000844a7800110009008283d80080027800e8
:1021c0000142780085037800e94f52000100340095
:1021d0006742420001c3b30081514200e08f5200c8
:1021e000f4ff3a000300780000000600881f780022
:1021f00000047800e08f500005003d0008007800e2
:10220000d4c2b3008100ea0004587800010037000e
:1022100008007800dbff0700080078004f04780012
:102220000000060064222700e48747003591830000
:10223000889fbe008a9fbe008c9fbe008e1f7800c4
:10224000e08f52000b003a0024029800e4024200a2
:1022500004938b0035918b0015938b00a442900062
:102260000504a00025429800e44290000504a00067
:10227000654298006704400064272700250020007d
:102280004244de0049a127004244dd00848454001a
:1022900005074400110009008504d8007ca127002f
:1022a000029383000406560080bf9f000e0747007c
:1022b0000003eb00e4054400080646000200370076
:1022c000160020000d017800224290006102620099
:1022d000020032000a0037001509780092027800e7
:1022e0002542900061026200fbff320008024100bb
:1022f000848f520002003900e00f54003f003d007f
:10230000920678000d00a100828f5600edff3e007e
:10231000e10f5300eaff3a000fba9700840f540010
:1023200002003600890f540010003900614ab900dc
:10233000b0ff2f00010020006143b80004025000ec
:1023400085825800840f5300858f5b0002003500a2
:102350000b05780006003700110009000986d80037
:102360000982b90004057800010037000e057800e5
:102370000a00780084f90700e10f400005003a00e8
:102380000b0578000b0078007ff90700e10f400093
:102390002b00320014938300000a7800149383000a
:1023a00064034200a4429000860f500002003200f5
:1023b0000504a000010037000504a1002542980093
:1023c00064055500642227000a0540000a087800c9
:1023d0001a938b00040d7800159383000003eb0023
:1023e000254290000404a000a442980020429000de
:1023f0000404a10024409800b2ff370004938b002e
:10240000848f5200070036001403be008042eb00a8
:1024100086928b0097928b00120a780004938300b7
:102420002542980022429000079383000404a000f4
:10243000070978002441980064004100010037003a
:102440000000eb004f0778004f06be004f05be00ae
:102450004f04be004f00b10000000600e00f500026
:10246000080032006400500004938300840f500081
:102470000100310000938b00204290000404a10071
:102480002440980000000600e68747008e1f780071
:1024900066875700d0bf9f00012f78000e003700dd
:1024a0005fbb9700efba970016407800154278009e
:1024b0000201e900844f5000040032000080fb005c
:1024c0000482fb0004005000060037000603e80009
:1024d000d6bf9f00050fe800e00f5100f0ff3a0063
:1024e000020078004f0778006f00b100000006007e
:1024f0000002780002003700315a78000201e9003a
:10250000e00f5100fcff3a000000060000027800d6
:10251000808f50000800310082824000808f52007e
:102520000500360002024000456278000201e90021
:10253000fdff3a0000000600e00f510003003200ea
:10254000315a78000201e900fbff37000000060065
:102550000002780002003700015a78000201e90009
:10256000e00f5100fcff3a000000060004192000b3
:1025700000037800110009000483d8001400200033
:10258000e08f50000b003200e30263000002eb001a
:10259000848f520007003a00440620001100090011
:1025a0000483d80001f0a7008100ea000102ea00dc
:1025b0004f22de00040078000000060014bf200057
:1025c0000480b90014442f0000004200440620009b
:1025d000110009000480d800000006000419200042
:1025e000881f7800d216200000047800110009002e
:1025f0000484d8004243de00000278000241b800a3
:102600000500200006034200e0834a004406200043
:102610000603410087834900110009000484d800a3
:102620004f0478008002780005005300e0805b00d2
:1026300000000600889fbe00810478008a9fbe00cb
:1026400000047800020578000900e800dbff0700bd
:102650000a0540000b002000e18f54000a003600fc
:1026600008007800c1ff07002400200005002000ba
:10267000e00f50000200320014002000050020008e
:102680000405550085855d000800e900d3ff0700bb
:102690000000450081804d004f05be004f04be0084
:1026a00000000600889fbe00000478008a9fbe00dc
:1026b000d80490008c9fbe00a5fb2f0089824200a9
:1026c0000080eb008080eb00e4102000848f52003b
:1026d00032003e0038019000c0762000c800900013
:1026e00000804400d3ff0700120020000006be0057
:1026f0008000eb00207b2000ceff0700720020004e
:10270000030020000005560081855e000c06e900ec
:102710000a00be0098080700720020000300200095
:1027200064004000e08048009308070060049800bf
:10273000b076200000804400a8ff0700820120003e
:1027400003002000000656000a00be007c0498002a
:102750009b080700c203200003002000280290000d
:10276000cfa2de000000420081804a0094080700ea
:1027700018029000c203200003002000cfa2de0058
:102780000000420081804a008d080700180278008e
:10279000cfa2de000000420081804a004f06be004a
:1027a0004f05be004f04be0000000600889fbe001b
:1027b0000004be00050037000000fb00890078001f
:1027c00096070700e10f400004003200384078000f
:1027d000e04f5000f8ff3a000000eb004f04be004d
:1027e00000000600c1122700881f7800efff0700d5
:1027f000c112270000047800a0002000870707000e
:10280000080078004f0478000000060000027800fd
:1028100084027800050278000043eb00b44f1300f7
:10282000fbff3a0031427800845a7800e04f5200b2
:10283000fcff3a0000000600000278000400780067
:1028400000027800b442780081cf520003003200c9
:10285000e0cf5200f9ff3a000000eb000000060054
:10286000b042780031c2520002003a00e0cf52007c
:10287000fbff3a000400fb000000060000027800a5
:10288000b1427800055a7800e0cf5200fcff3a00d0
:10289000000006000000fa00889fbe008a9fbe006c
:1028a0008c9fbe00c721270000067800efb297007a
:1028b000748257005ac2b30087047800240037009e
:1028c0008502e8008a4f530020003a003541780025
:1028d0000482e9000203fb000603b10007003a008e
:1028e0001403780001003700015e7800b6407800dc
:1028f000e0cf5000fcff3a00150037009406780046
:10290000060343008c017800070343001604780097
:10291000110009008806d800460478008106780076
:10292000110009008806d8000004780000c3b30035
:1029300080594400890f5300f4ff3a000201fb0064
:102940000203b1000206460001003700065e78006f
:1029500015437800e04f5300d9ff3a00064e780047
:102960004f06be004f05be004f04be000080fa00b7
:1029700000000600889fbe008100e9008a9fbe001b
:10298000000478008c9fbe00820478008e1f7800bf
:1029900003057800fe192700010644008805780029
:1029a0008e06e800090137008904e80054c2b3002c
:1029b000844f5300ff003a0039427800a5c5b300a8
:1029c000854f5200e300320028003c00edc2520067
:1029d000854f52008a00320012003c00ebc25200c8
:1029e000854f52005500320007003c00c5ff26000d
:1029f000864f5200eb00320015c4b300854f5200e1
:102a0000da003a004200370085c4b300854f520017
:102a10006a0032008542e800854f5200d3003a0038
:102a20006800370075c5b300854f5200880032003a
:102a300007003c00e4c25200854f5200780032008b
:102a400085c2e800854f5200c8003a007600370082
:102a500085c5b300854f5200a30032008542e800cf
:102a6000854f5200c1003a00b1003700a5c6b3003f
:102a7000854f52005b0032000f003c00e8c252005c
:102a8000854f52002900320004003c008542e900d5
:102a9000854f5200b5003a001900370035c6b30023
:102aa000854f5200290032008542e800854f5200d0
:102ab000ae003a003e00370075c7b300854f5200a4
:102ac0007200320007003c00eac25200854f5200fb
:102ad00048003200e3c24200854f5200a3003a0092
:102ae0004900370085c7b300854f52006b003200a4
:102af0008542e800854f52009c003a00850037006f
:102b00006a029000a5092700040242000300370072
:102b10006a02900065fa260004024200e5027a008b
:102b2000a0003700840478001f0037004a0290009c
:102b300045fe260004024200f8ff37004a029000da
:102b400025e5260004024200f4ff3700da02900077
:102b50001a009000c4762000aa009000849f4200d2
:102b60003a0290009a1f780045fe2600801f7800e8
:102b7000811f7800841f78004a02900004024200fe
:102b8000e0192700e51f7a006a029000a5092700d6
:102b900004024200e51f7a0054002700841f7800d9
:102ba0003cff0700f0875700e51927007d0037003c
:102bb000ba029000851f78005b0037002a00900061
:102bc00021003700aa009000c40020001100090075
:102bd0008400d800e08f500052003a008400780052
:102be000500037007a029000841fe800d4012700cb
:102bf000530037004a029000841fe8004a00370063
:102c00009a009000470037002a029000f5ff260046
:102c1000eb0f5200630034002500270061003700ed
:102c20009a1f7800400037007a009000740020005e
:102c3000ea029000110009000400d800858f5000be
:102c4000010034000000e800801f780036003700e3
:102c50007a03900074002000ea029000110009003d
:102c60000403d800e6824200010378008003780064
:102c7000110009008402d800810f530001003400c4
:102c80008703e800871f780027003700ea009000dc
:102c900004022700811f780029003700da02900023
:102ca000c4762000849f42003a02900045fe260030
:102cb000841f78004a02900004024200e0192700b5
:102cc000e51f7a006a029000a5092700040242006d
:102cd000e51f7a0034022700841f7800edfe07000c
:102ce000ea875700b0ff37009a1f78002a0090004b
:102cf0009a02900014032700851f7800801f780037
:102d0000e0192700841f7800e2fe0700e8875700db
:102d1000a5ff3700da0290004406200011000900e8
:102d20008402d800811f7800a40127000400370026
:102d3000c4762000da029000849f4200a40327009a
:102d4000841f7800e0192700d2fe0700e4875700af
:102d500095ff37000a0a9000e5ff2600e00f5200b9
:102d600010003200f59183000e00370054c2b3000a
:102d7000e11927008448780009027800c4427800ed
:102d8000804eeb00054f7800e0cf520065ff320027
:102d900081027800030037008c8f55000700320055
:102da000845d780035427800e04f5200faff3a0027
:102db000060037008c8f550003003a00804deb0071
:102dc0000000eb0006003700865d780019437800ac
:102dd000e04f5300f4fe3a00864d7800088055001d
:102de0004f0778004f06be004f05be004f04be00df
:102df00000000600000278008042eb00b4cf120011
:102e0000fdff3a000080ea000000420000000600da
:102e10000b00370030427800e04f520003003200d0
:102e20000201e900b14f5200050032000480fb00ae
:102e3000954278008582fb000500500000000600e6
:102e400081027800e00f5100f2ff3a0002007800a2
:102e500000000600889fbe000004be000c00370082
:102e600009007800e3ff070089007800000178007e
:102e700008007800e6ff0700e00f50000a0032006b
:102e80000800e8009900fb006bfe070000047800d2
:102e9000e00f5400040032000042eb00984f120093
:102ea000efff3a000004eb00080078004f04be007a
:102eb00000000600889fbe000004be00e00f540022
:102ec00003003a0028938300e00f540015003200fd
:102ed0000800be0028060700000444000042eb0082
:102ee000984f120003003a000004eb0028938b0077
:102ef0000c0037000800be000c060700000044006c
:102f00000042eb0020938b00904f12000300320030
:102f10000058eb0020938b00020037000002eb000a
:102f200024938b00080078004f04be0000000600c8
:102f300070938300e00f500003003200100278000d
:102f400074938b0002003700200020008ef60700eb
:102f5000e10f400002003a00946e26008440880091
:102f6000000006007493830070938b0004087800bf
:102f700000000600c01227000000fa006881570018
:102f8000cfb89700a80107000080fa0000000600f3
:102f90000c00fa00889fbe00f4ff270000047800b0
:102fa000d4bf9f008004eb0088bf9f0099bf9f00a3
:102fb000a8bf9f00240c200078815700b4bf9f0059
:102fc000cfb0970070805700970107000fba9700a5
:102fd000094a78000fba9700080052004f04be005b
:102fe0000080fa00000006000c00fa00a0bf9f005d
:102ff000c0bf9f007fff0700140c2000b0bf9f00e0
:10300000f0bf9f00d4bf9f0074815700efb09700be
:103010006c805700340007000080fa0000000600b2
:10302000881f780080938300fb0407000004780069
:1030300008007800abf50700e00f5000f9ff3a00f8
:10304000e10f440003003200819383000800780000
:10305000dc0507004f04780000000600889fbe00d2
:10306000000478008a1f7800814478000205780007
:1030700004fd2f0008024200e90f520002003e004a
:10308000040478000f003700080078009df5070061
:10309000e00f500005003200e00f55000300320041
:1030a000080078009df5070000047800080078000b
:1030b00082f5070000c2eb00e00f5000060032006e
:1030c0007805b1008984fb0000c2eb00890f540031
:1030d00001003d00084278004f0578000440780068
:1030e0004f04be00000006000002eb00f08747001e
:1030f00080938b00889fbe00044478008a9fbe00a6
:10310000810478008c9fbe00020578008e1f780035
:10311000e4b79f0088f79f00380137008885fb00df
:103120008904e8000b0078006ef50700e00f5000fe
:1031300002003200baff07003001370055c2b30069
:10314000854f540020013a000044780024c0b300a9
:1031500000477800844578000900780004003700b3
:103160004bc0b300010037002bc0b300090078004a
:103170003942780095c6b300854f5200970032005f
:103180001b003e00e6c25200854f5200690032002b
:1031900010003e00f7c25200854f52002e00320050
:1031a00006003e00e04f520027003200a5c2b300e7
:1031b000854f520076003a002500370085c5b300e0
:1031c000854f520072003a009bef9f0014002000d0
:1031d0001a00370045c6b300854f52007f00320009
:1031e000e4c24200854f520069003a00deff37001a
:1031f00035c7b300854f52001b00320007003e0068
:10320000e7c25200854f520013003200e3c2420071
:10321000854f52005e003a007400370055c7b30076
:10322000854f52006d003200e3c24200854f5200cc
:1032300057003a009bef9f000002eb00e4b79f00ad
:1032400005c1b3006b0037000ff497008200370010
:103250000e47e800c5ff3700e2cf5500c0ff32003f
:103260008bc0b300c1ff37006dff0700e04f570070
:1032700002003a004a027800f4b79f00809383006e
:103280006504070080057800e18f450013003a00cf
:103290000ff497000b007800d50037001902fb00ef
:1032a000848f550004003a008c0278008904e800fd
:1032b000f5b79f0017003700e04f570001003a00b4
:1032c0000b5e78000844e9000d0032008093830013
:1032d0005104070080057800010037007fb6970091
:1032e0000b02e800e10f5200080036000b007800e6
:1032f000fcf40700e00f5000e8ff32000300370045
:103300008c027800f5b79f00020037000c027800ad
:10331000f4b79f00e04f5700b8003a008ff29700d3
:103320007fb297008542e80085f79f000e4a78003b
:10333000b2003700e04f570005003a008ff29700c7
:103340008542e80085f79f00ca0578000100370034
:10335000ffb59700809383002f040700e10f400022
:1033600002003a000ff49700a1003700e04f570029
:1033700001003a00805d78000844e9004240a9005d
:10338000f4ff3c008b027800f5b79f009b003700ec
:103390000484fb0004fd2f0008024200e90f5200e4
:1033a00009003e0050f90700090278000044780047
:1033b00084047800b402fb000503b100e98f5200d9
:1033c000fbff360069ff370080938300120407007b
:1033d000800f540080003a0088003700a4c0b3007a
:1033e0009bef9f00a4ef9f00030037009bef9f001f
:1033f00085c0b300a5ef9f0009ff070080938300fd
:10340000050407000042eb008005780084ef9f0070
:10341000d4022000848f550005003a008093830079
:10342000fd03070015c0b3008005780085ef9f00fd
:103430006fb19700afe897000b00780007ff070017
:10344000e14f40000c003a000ff497008193830095
:103450000b007800db040700e04f54006b003a00db
:103460008493830034009000700060006800320094
:103470000080eb006600370004032000848f5500b5
:1034800015003a0080938300e303070084072000bf
:10349000840f500004003a006fb29700e00f520012
:1034a000070032000a00370084052000840f500016
:1034b00007003a00efb29700e08f5200040032009c
:1034c00080938300d4030700800578000200370052
:1034d00081938300bb040700afea97000582fb00dd
:1034e00005002000a4b79f00b5b79f006066b80034
:1034f0002fb19700bfb197000c00be000844e9004f
:103500002f0507006fb197000006be00afe89700d7
:103510000b007800d1fe07000080fb0001002000b6
:103520000006460081864e00e04f5400090032003c
:1035300080938300b80307006fb19700800578007f
:10354000afe897000b007800c4fe0700e14f400091
:10355000e7ff3a006fb19700afe897000b007800e3
:10356000befe0700e14f400003003a008193830054
:103570000b007800930407000fea9700e04f520019
:103580000200320060061600e0861e00e04f570081
:103590001a003a008ff297000a85e9008542e80098
:1035a0001fea970085f79f00e44f520003003a009e
:1035b0001a0278000c8abe00100037001a02780048
:1035c0000c0a78000d0037008093830092030700f7
:1035d000808f5500090032000ff49700e10f400082
:1035e0000300320081938300760407000700370050
:1035f000e04f540005003a000500370019447800f8
:10360000e04f5400c5fe3a000ff497000880fb001d
:103610004f0778004f06be004f05be004f04be00a6
:103620000f01b10000000600ef03b000889fbe004c
:103630008a9fbe008c9fbe00800678008e1f780097
:103640000007eb00d1af9f00a2b79f0066033700d1
:10365000dfa8970054c2b3008100e800d1af9f00fb
:10366000844f500006003a00010278000006eb008b
:1036700001c3b30000c2b300b7c2b3000e003700ed
:103680003d0290000404b200040032001d027800e4
:10369000004a7800840ee800050037000000fb00b7
:1036a0008d007800dd030700e10f40004e0332007b
:1036b0000e07e8004c03370084027800d2c2b30042
:1036c00034437800824f53000900320005003c006b
:1036d000804f530008003200874f53000c003a001f
:1036e00007003700814f530009003a0006003700f9
:1036f0000c30a000f0ff37000c00a000eeff3700f8
:103700000c10a000ecff37000c20a000eaff3700ef
:1037100062026600010032000c00a100680266002f
:10372000010032000c20a1000602fb000403b100de
:10373000e90f52000c003e00050378000002eb0088
:10374000b603fb006a22b9000703b10086027800c5
:10375000048243009603fb000703b100e98f530086
:10376000f7ff3600080037000002eb00a7c2b300e5
:10377000874f530004003a00afb197008502e8007c
:1037800043027800a3b79f000003eb0096b79f00a9
:10379000e6c2b300954f13000c003a000ce0a00005
:1037a00064435300d54f1300030032000503780033
:1037b0000000eb0009003700afb397008502e80076
:1037c00047047800a7b79f0098b79f0005037800cb
:1037d000090037006a00b9000080430086027800c3
:1037e000b603fb000703b100e98f5300f9ff360071
:1037f00090b79f00f5ff3700b6427800cac6b30005
:10380000d6af9f008acf5200250032000f003c0047
:1038100036c6b30086cf52009e00320004003c0042
:10382000e0cf5200f50232006b4353000f00370027
:1038300046c6b30086cf52001700320065434300ee
:1038400086cf5200b2003a001300370036c7b300eb
:1038500086cf52001f00320007003c006443530033
:1038600086cf5200140032000643e80086cf520093
:10387000a7003a001300370056c7b30086cf5200a6
:10388000aa0032006343430086cf5200a0003a00f2
:10389000e5779f000d003700e5779f00a500370012
:1038a000f003660005012000010032000500280039
:1038b0000c867200d0ff3700e5779f000c60a000f7
:1038c0009c003700e5779f000c50a0000c70a00012
:1038d00098003700afb59700e5779f00cb027800de
:1038e000abb79f00b5b79f00e08f520002003a00cf
:1038f000a10c2700b1b79f003fb397008002eb00f7
:10390000010037008502e800e6c37a00e0cf5300eb
:10391000fcff3a00c5b79f001fb19700e00f5100b0
:1039200005003200cfb19700830f51000200310033
:1039300082027800c5b79f00cfb297000004eb0069
:10394000850f52000100360005045200680666002b
:1039500009c2b3000f003200290037003d02900079
:103960000404b200040032001d027800094a780005
:10397000840ee800050037008d007800000220006a
:1039800026030700e10f4000010032000e07e800a7
:103990000804e900e00f5400f0ff3a000084eb0057
:1039a00017003700bd0290000504b2000900320084
:1039b000880278009d03780035437800864b7800b4
:1039c00005047800870ee800e04f53000a003a0033
:1039d00011003700880278008d0078003500fb0068
:1039e00084bf9f00050478000c0307000fba9700fe
:1039f000e10f4000080032000e07e8000600370023
:103a00000c027800080678003fb49700cfb4970006
:103a10005fb59700efb59700890278008504e9004b
:103a2000e08f5200dfff3a00b8b79f00c9b79f0090
:103a3000dab79f00ebb79f000c04780009c2b3000f
:103a400004067800e00f56000f003a0066023700c7
:103a50003d0290000404b200040032001d02780010
:103a6000094a7800840ee800050037008d007800d0
:103a700000022000e9020700e10f400001003200cf
:103a80000e07e8000804e900e00f5400f0ff3a00d8
:103a900055023700afb0970070036600410478000c
:103aa000a1b79f00cfc4de00090578008a05780021
:103ab0000800be000a01be004800de00c80add00a2
:103ac00000807200e0779f00e00f53000900320091
:103ad000e04f500007003200e14f40000500320087
:103ae00026002000f0779f00887f9f00c6b79f00c8
:103af0000300370017002000c7b79f00f8779f002a
:103b000078fb2f0008844700b8b79f0082ff37007a
:103b100069fb2f001a00200089844700e5779f0089
:103b2000b9b79f00cab79f007bff3700e5779f00ba
:103b30000c0cb3008c027800050cb2003b003a007c
:103b4000e00f560005003d00afb297004501be00f2
:103b50004500be00a5b79f000f003700f0026600c9
:103b6000120032002fb497004803be00f69f9f005a
:103b700087a79f00a8b79f0098029000cfaade00f9
:103b800095a79f00a5a79f007f9897008fa09700fb
:103b90001fa19700afa19700b0b79f00c1b79f00ca
:103ba000d2b79f00e3b79f000b003700afb097007c
:103bb000c102780005047800cfc4de000905780052
:103bc0008a057800a1b79f00b8b79f00c9b79f00ca
:103bd000dab79f00ebb79f003fb09700cfb09700d8
:103be0005fb19700efb19700e00f5000e08f5800f1
:103bf000e00f5900e08f590032003d006000b8002e
:103c00006011b8003fb49700cfb497005fb597003c
:103c1000efb597003c00b3000804500089845800b9
:103c20000a0559008b85590022003700e00f560025
:103c300005003d00afb297004501be004500be0043
:103c4000a5b79f000f003700f00266001200320097
:103c50002fb497008004eb004803be000005eb0082
:103c600096af9f00a7af9f00b9af9f00caaf9f005c
:103c70001fa89700afa897003fa99700cfa997006a
:103c8000a8b79f00b0b79f00c1b79f00d2b79f00f1
:103c9000e3b79f000b003700afb09700c102780078
:103ca000a1b79f0005047800090020000a00200049
:103cb0000b002000b8b79f00c9b79f00dab79f007c
:103cc000ebb79f009fb49700e08f54000d003a00bf
:103cd0001a0020003fb09700cfb097005fb1970067
:103ce000efb197009ab79f00e00f5000e08f5800a7
:103cf000e00f5900e08f5900020032008000eb0015
:103d000091b79f000c01780005042000020cb2005e
:103d100082b79f00850f51003400320003003c0041
:103d2000e00f51000800320048003700050820006d
:103d30008fb19700858f510014003200050c2000d0
:103d4000858f510041003a0046d6260015c0b300c9
:103d50003600be003601be003fb49700cfb49700d6
:103d60005fb59700efb597000040e10001c8e100a2
:103d700002d0e10003d8e100330039008542e800b9
:103d8000f4cf5200f2ff3a002f00370015c0b30005
:103d900000012000010020006011b8003fb497002e
:103da000cfb497005fb59700efb597000040e100f2
:103db00001c8e10002d0e10003d8e100220039008f
:103dc000490020000000d0008180d2000281d20092
:103dd0008381d2008904e900faff3a008542e800b5
:103de000f0cf5200edff3a001700370015c0b300c6
:103df00080002000010020006011b8003fb497004f
:103e0000cfb497005fb59700efb597000040e10091
:103e100001c8e10002d0e10003d8e1000a00390046
:103e2000390020000000d0008180d2000281d20041
:103e30008381d2008904e900faff3a008542e80054
:103e4000f5cf5200edff3a00e5779f006f759700c0
:103e50009fb597008a02fb008b8f520002003d0045
:103e6000eb779f00040037001fb09700850f5000cc
:103e700001003d0095b79f00e00f520003003200a3
:103e8000e3026600010032000402e900050024009c
:103e900085026600060032009fb09700810f520035
:103ea0000200340001025200010037000002eb0062
:103eb0006f7197008001eb008202fb00f3af9f005f
:103ec000850f52000200340085025200f5af9f00ba
:103ed000640266003b003200e20266006102660096
:103ee000e08f520011003200bd0290000504b200c4
:103ef000080032009d027800b6c2b300e00f520005
:103f00000100320006c3e800864a7800850ee8000a
:103f100015003700b0022000e00f5200010032000f
:103f20000080e8008d0078000c003700e00f5200a0
:103f30000e0032003d0290000404b2000500320081
:103f40001d02780005c2b300054a7800840ee8001f
:103f5000050037008d00780000022000af01070047
:103f6000e10f4000010032000e07e8007faa970031
:103f7000e00f52004f00320008c3b3008404780001
:103f80003d0290000404b200040032001d027800db
:103f9000084a7800840ee800050037008d0078009c
:103fa000000320009d010700e10f400001003200e6
:103fb0000e07e8008904e900f1ff3a00f9af9f001d
:103fc0003c003700ffaa9700e08f52001400320037
:103fd0006802660012003a0008c2b3008504780047
:103fe0003d0290000404b200040032001d0278007b
:103ff000084a7800840ee800050037008d0078003c
:104000000002200085010700e10f4000010032009e
:104010000e07e8008904e900f1ff3a00f9af9f00bc
:10402000e202660061026600e08f52001100320079
:10403000bd0290000504b200080032009d02780025
:10404000b6c2b300e00f52000100320006c3e80020
:10405000864a7800850ee80015003700b00220007f
:10406000e00f5200010032000080e8008d0078006f
:104070000c003700e00f52000e0032003d029000ad
:104080000404b200050032001d02780005c2b3002e
:10409000054a7800840ee800050037008d0078009e
:1040a000000220005d010700e10f40000100320026
:1040b0000e07e8001fb39700c5d526000602e900e9
:1040c000f0046600c223dd000c057800c7a79f003e
:1040d0000a02b2006323b900e99f9f00060478003a
:1040e0004322dd00b8a79f0085024200da9f9f00af
:1040f000e5af9f00a30037009fb597000fb0970072
:104100008b05e900010420009bb79f00810f500040
:104110007300320003003c00e00f50000800320042
:104120007e003700040820000fb19700840f510073
:1041300056003200040c2000840f510077003a0032
:10414000e00f56001f003d00efa997003304be00aa
:104150002305be003fb09700cfb097005fb1970036
:10416000efb197000802be000a03be00e1f40700a9
:104170000802be000a03be00e0779f000000fb00bb
:10418000cf80de000101780082017800e0f40700b2
:104190003fb29700cfb297005fb39700efb397009d
:1041a0000002520081825a0002035b0083835b009d
:1041b000b4b79f00c5b79f00d6b79f00e7b79f0071
:1041c0002e003700ef9a9700e08f52002200320055
:1041d0006fab97003fb29700cfb297003604be0096
:1041e0002605be000400be000801be0084bf9f007b
:1041f000f5b79f000005eb0003f407000801be00bf
:10420000e0779f000000fb00cf80de00ec0107009c
:104210000fba9700ffb297008aaf9f0000045200c8
:1042200081845a00d8a79f00e9a79f008004eb0073
:10423000f9a79f005fa09700efa097007fa19700cc
:104240008fa99700b0b79f00c1b79f00d2b79f005a
:10425000e3b79f0009003700efa897003fb1970030
:1042600011027800110009000481d800a400200088
:10427000110009000480d800e1779f00ef719700da
:104280000343b000e3779f0024003700940b27001e
:10429000df9a9700e08f520001003200840a270065
:1042a0003fb09700cfb097005fb19700efb1970094
:1042b0004fa397000603e900050033008301d100f6
:1042c0000281d3008180d3000080d300f9ff370042
:1042d0006f00600064407800e0779f000f003700b7
:1042e0003fb29700cfb297005fb39700efb397004c
:1042f0003fa497000804e900050033008703d100bc
:104300000683d3008582d3000482d300f9ff3700ef
:10431000674262000443b000e4779f003d029000d2
:104320000404b200070032009d0278006f7297000b
:10433000844a7800850ee800e04f520007003a00fa
:1043400007003700ef7497008d0078000900fb002c
:10435000b2000700e10f4000010032000e07e80044
:104360004fa59700bfa597006fa89700640555005b
:10437000e385550068005000caa79f00bba79f00b7
:10438000e0af9f009fb09700e08f50005aff3a00c7
:1043900068066600140032007fa99700e00f510004
:1043a0001100340008c2b300820478003d0290007e
:1043b0000404b200040032001d027800084a7800ac
:1043c000840ee800050037008d0078000002200010
:1043d00092000700e10f4000010032000e07e800e4
:1043e0008904e900f1ff3a00dfa997001340780043
:1043f000e0779f00e04f500095fc3a000e007800f7
:104400004f0778004f06be004f05be004f04be00a8
:10441000ef03b10000000600881f78000004780058
:1044200038029000f1026200e18f520006003a006b
:10443000840278000520b200080032009802900043
:10444000e08f520005003200380290000080eb003f
:104450000440a00034049800200037000490a1001c
:104460003404980018029000e00f52000700340056
:104470000402e900140498001802780094427800bd
:10448000040ce8000580fb000500370038029000ae
:104490000404b200ecff3a000800780011000700a5
:1044a000380290000408b2000c003a00fa0f5000e5
:1044b00008003a0028029000e00f5200e2ff3200ac
:1044c00018029000180ce9000402e8001404980097
:1044d000ddff3700ed0f5000e2ff32004f0478009f
:1044e000000006000200fa00889fbe000004780069
:1044f0000002eb008a9fbe00140498000080eb00cd
:1045000038029000610262004000320084262700d9
:104510008042eb0094cf12000f0032004b142700b2
:104520002a102000c9fd2f008b844400390290001e
:104530002410b2008a0f520002003a0009007800ed
:10454000c7f50700ec8444008b8f5400f7ff3a0056
:1045500084262700004aeb0058019000e00f51002c
:104560000e003a0012049800ea8057001200200062
:104570004800900070f00700e10f500003003a007f
:104580006ff297000480fb00200037003802900093
:104590000440a0003404980013003700a8009000e5
:1045a0004800900064f0070010049800e00f5000ed
:1045b00003003200e10f40000d003a000300370015
:1045c000380290000440a00002003700380290003a
:1045d0000403b30034049800a80290000002eb002a
:1045e000050c7800140498000080eb0007003700e9
:1045f000280290000000e900040c780010049800e4
:1046000094427800040ce8000580fb004f05be00d2
:104610004f04be000080fa0000000600889fbe0024
:10462000010478008084eb0038029000e20262000e
:104630003b00320004037800980290000620b2008c
:1046400002003a00e08f520035003a000490a000ca
:104650008004780034049800f90fb200e08f520013
:1046600002003a00a8029000050c7800ea8f54007e
:1046700005003a000408b20003003a008800780000
:10468000d0002000e5ff070018029000d80290003b
:10469000850f52000b0032000402e80015c0b30081
:1046a0001404980018027800094a7800040ce80005
:1046b00084262700054a7800ea8f540018003a0043
:1046c0000500370009407800880078005c0007008a
:1046d0008004780012003700380290000410b20005
:1046e0000f00320018019000a800900048009000d0
:1046f0006cf0070018029000840f50000400320094
:10470000380290000403b300340498008084eb0066
:104710000002eb001404980028029000040c7800ba
:10472000090078004f04be0000000600889fbe000c
:10473000800478008a1f78000004eb0001057800ef
:10474000010037000804e800b9407800e0cf5000cd
:10475000050032008100fb000a00780036f80700ef
:10476000e00f5000f7ff3200080078004f05780096
:104770004f04be0000000600889fbe008004780041
:104780008a1f78000004eb00010578000100370063
:104790000804e800b9407800e0cf5000050032007e
:1047a0008100fb000a00780023f80700e00f5000aa
:1047b000f7ff3a00080078004f0578004f04be006c
:1047c00000000600e10f40001c00320031029000a2
:1047d0001420b200e10f520015003a0021039000ae
:1047e000e00f53001200320011029000d10290003d
:1047f000850f52001000320091027800868f52001f
:1048000002003a008508e800020037000402e800d0
:10481000940098009102e900310290008508780028
:104820000404b20005003a00804a78000000060047
:104830000080eb00000006000080eb000000060096
:104840000200fa00889fbe0001047800a0ff9f00cc
:1048500038029000840278000504b20002003200a1
:104860000000fb0035003700e202620005003a005c
:104870000403b30015049800340498000080eb0092
:104880002e003700d8049000e08f540006003a0054
:1048900012002000e68057004800900001f0070059
:1048a0001904980023003700a8029000e08f5200fe
:1048b00008003a00c52627000430a000250498000f
:1048c000050c780034049800250020005504980059
:1048d0001504980018019000a8009000480090006e
:1048e000f0ef0700280290008082eb00150498008a
:1048f000affa9700054a7800040ce8002ffa9700f9
:10490000ea4f52000b003a00380290000410b20047
:104910000800320018019000a800900048009000a4
:10492000e0ef07000002eb00a802900014049800da
:10493000050c78002ffa97000400fb004f04be001e
:104940000080fa000000060000c0da000000060047
:1049500000c0da000000060000c0da000000060017
:1049600000c0da000000060000c0da000000060007
:1049700000c0da0000000600811f78000100e0009e
:1049800002003d0060001000e08018000300e0001d
:1049900002003d0060011100e081190005000700e0
:1049a0004f00e00002003b0060001000e0801800b3
:1049b0000000060014f207000400be00000006001c
:1049c000020ab900001bb9000200b80081004200d1
:0849d000810043000000060015
:020000040000fa
:1049d800234300004d440000002300004f4b00001b
:1049e8002c250000640d00000a000000234f000081
:1049f8004b2c000025300000336400000d0a000035
:104a0800002300004f4b00002c250000303500002b
:104a1800640d00000a000000234f00004b2c00002a
:104a2800257300000d0a00000046000069720000ae
:104a38006d7700006172000065200000257300009a
:104a48000d0a0000004f00004b0d00000a00000096
:104a58004e4f00004b0d00000a000000234f0000dd
:104a68004b2c000025300000336400002c2500008a
:104a780030330000642c000025300000336400004f
:104a88000d0a0000002300004f4b00002c250000f9
:104a980030330000642e000025300000336400002d
:104aa8002e25000030330000642e00002530000061
:104ab800336400000d0a000000250000642e000089
:104ac800256400002e250000642e000025640000e7
:104ad800004900004e490000434900004f0d000006
:104ae8000a0000004d4f0000444f00002044000021
:104af800452000004f50000045520000414300008f
:104b0800414f00003a20000020200000202500002e
:104b180030330000640d00000a000000415400001a
:104b280052410000534f0000204400004547000058
:104b3800204c000045490000545500005241000037
:104b48003a2000002025000030330000640d0000ea
:104b58000a0000005245000050450000544900007a
:104b6800434100004f2000004c450000495400001c
:104b780055520000413a0000202000002025000086
:104b880030330000640d00000a00000053450000a7
:104b98004e53000049420000494c000049440000bf
:104ba80041440000453a0000202000002020000079
:104bb800202000002025000030330000640d000094
:104bc8000a000000544500004d5000004f2000002e
:104bd800494e0000415400002e20000054410000be
:104be800473a000020200000202000002025000077
:104bf80030330000640d00000a0000004e5500002c
:104c08004d200000414e0000544500004e41000078
:104c18005320000041540000495600004153000051
:104c28003a2000002025000030330000640d000009
:104c38000a000000534900004e5400004f4e000087
:104c4800494100002043000041500000204100007d
:104c58004e540000203100003a20000020250000ba
:104c680030330000642c00002025000030330000a1
:104c7800642c00002025000030330000642c000064
:104c88002025000030350000750d00000a000000e6
:104c9800534900004e5400004f4e000049410000a7
:104ca8002043000041500000204100004e54000005
:104cb800203200003a200000202500003033000098
:104cc800642c00002025000030330000642c000014
:104cd8002025000030330000642c0000202500004f
:104ce80030350000750d00000a000000534900002f
:104cf8004e5400004f4e0000494100002043000080
:104d080041500000204100004e54000020330000b4
:104d18003a2000002025000030330000642c0000f9
:104d28002025000030330000642c000020250000fe
:104d380030330000642c00002025000030350000ce
:104d4800750d00000a000000534900004e54000091
:104d58004f4e000049410000204300004150000030
:104d6800204100004e540000203400003a2000008a
:104d78002025000030330000642c000020250000ae
:104d880030330000642c0000202500003033000080
:104d9800642c00002025000030350000750d00004f
:104da8000a000000534900004e5400004f4e000016
:104db800494100002043000041500000204100000c
:104dc8004e540000203500003a2000002025000045
:104dd80030330000642c0000202500003033000030
:104de800642c00002025000030330000642c0000f3
:104df8002025000030350000750d00000a00000075
:104e0800534900004e5400004f4e00004941000035
:104e18002043000041500000204100004e54000093
:104e2800203600003a200000202500003033000022
:104e3800642c00002025000030330000642c0000a2
:104e48002025000030330000642c000020250000dd
:104e580030350000750d00000a00000053490000bd
:104e68004e5400004f4e000049410000204300000e
:104e780041500000204100004e540000203700003f
:104e88003a2000002025000030330000642c000088
:104e98002025000030330000642c0000202500008d
:104ea80030330000642c000020250000303500005d
:104eb800750d00000a000000534900004e54000020
:104ec8004f4e0000494100002043000041500000bf
:104ed800204100004e540000203800003a20000015
:104ee8002025000030330000642c0000202500003d
:104ef80030330000642c000020250000303300000f
:104f0800642c00002025000030350000750d0000dd
:104f18000a000000465200004551000055450000b7
:104f28004e43000049410000204f0000504500005a
:104f380052410000434100004f3a00002025000084
:104f480030320000640d00000a00000049440000ef
:104f5800204400004f2000004c4500004954000048
:104f68004f5200003a2000002020000020200000be
:104f78002020000020250000632500006325000094
:104f880063250000630d00000a000000495000007e
:104f980020520000454d00004f5400004f200000f3
:104fa80050520000494e0000432e00003a200000f5
:104fb8002020000020250000730d00000a000000da
:104fc8004950000020520000454d00004f54000099
:104fd8004f20000053450000435500004e44000098
:104fe8002e3a00002020000020250000730d00004c
:104ff8000a000000504f00005254000041200000f9
:10500800524500004d4f0000544100002050000060
:10501800524900004e4300002e3a000020250000af
:1050280030350000640d00000a000000504f0000f9
:105038005254000041200000524500004d4f00002e
:105048005441000020530000454300002e3a000060
:10505800202000002025000030350000640d0000ed
:105068000a00000053530000494400002057000084
:1050780049460000493a0000202000002020000096
:105088002020000020200000202000002025000013
:10509800730d00000a000000534500004e48000050
:1050a8004120000057490000464900003a2000000e
:1050b80020200000202000002020000020200000e8
:1050c80020250000730d00000a0000005345000071
:1050d8004e53000049420000494c0000494400007a
:1050e8004144000045200000414e000054450000a6
:1050f8004e410000203100003a200000202000002e
:10510800202000002020000025300000336400002b
:105118000d0a000000530000454e000053490000ee
:10512800424900004c490000444100004445000049
:10513800204100004e540000454e00004120000070
:10514800323a00002020000020200000202000002b
:105158002025000030330000640d00000a00000024
:10516800534500004e53000049420000494c0000de
:10517800494400004144000045200000414e000021
:10518800544500004e410000203300003a20000042
:1051980020200000202000002020000025300000f2
:1051a800336400000d0a000000530000454e000063
:1051b80053490000424900004c49000044410000a6
:1051c80044450000204100004e540000454e0000b8
:1051d80041200000343a0000202000002020000078
:1051e800202000002025000030330000640d00005e
:1051f8000a000000534500004e53000049420000d9
:10520800494c00004944000041440000452000008a
:10521800414e0000544500004e410000203500007a
:105228003a2000002020000020200000202000005c
:1052380025300000336400000d0a00000053000010
:10524800454e000053490000424900004c49000007
:105258004441000044450000204100004e54000035
:10526800454e000041200000363a00002020000092
:1052780020200000202000002025000030330000fe
:10528800640d00000a000000534500004e53000062
:1052980049420000494c00004944000041440000d4
:1052a80045200000414e0000544500004e410000da
:1052b800203700003a2000002020000020200000b5
:1052c8002020000025300000336400000d0a000093
:1052d80000530000454e00005349000042490000b9
:1052e8004c490000444100004445000020410000b2
:1052f8004e540000454e000041200000383a00009e
:105308002020000020200000202000002025000090
:1053180030330000640d00000a0000004649000018
:10532800524d000057410000524500003a2000004d
:105338002020000020200000257300000d0a000036
:1053480000460000494d00000d0a00000000000062
:10535800313000002e320000302e000031340000c1
:10536800302e000031300000000000003130000015
:105378002e320000302e000031340000302e0000a4
:105388003131000000000000313000002e320000f2
:10539800302e000031340000302e00003132000081
:1053a80000000000313000002e320000302e0000d6
:1053b80031340000302e00003133000000000000be
:1053c800313000002e320000302e00003134000051
:1053d800302e0000313400000000000031300000a1
:1053e8002e320000302e000031340000302e000034
:1053f8003135000000000000313000002e3200007e
:10540800302e000031340000302e0000313600000c
:1054180000000000313000002e320000302e000065
:1054280031340000302e0000313700000000000049
:10543800313000002e320000302e000031340000e0
:10544800302e00003138000000000000313000002c
:105458002e320000302e000031340000302e0000c3
:105468003139000000000000313000002e32000009
:10547800302e000031340000302e000032300000a1
:1054880000000000313000002e320000302e0000f5
:1054980031340000302e00003231000000000000de
:1054a800313000002e320000302e00003134000070
:1054b800302e0000323200000000000031300000c1
:1054c8002e320000302e000031340000302e000053
:1054d8003233000000000000313000002e3200009e
:1054e800302e000031340000302e0000323400002d
:1054f80000000000313000002e320000302e000085
:1055080031340000302e0000323500000000000069
:10551800313000002e320000302e000031340000ff
:10552800302e00003236000000000000313000004c
:105538002e320000302e000031340000302e0000e2
:105548003237000000000000313000002e3100002a
:10555800353900002e310000353800002e310000aa
:105568003000000000000000000000000000000003
:105578000000000000000000000000000000000023
:10558800415400002b4300004950000053540000d0
:1055980041520000543d00002255000044500000d4
:1055a800222c000022310000302e0000313500008e
:1055b800392e000031350000382e0000312200005d
:1055c8002c38000030300000302c0000383000004b
:1055d800303000000d0a000000000000000000004c
:1055e800000000006c6900006e6b0000206900007c
:1055f800732000006e6f00007420000076610000c8
:105608006c690000640000000000000041540000c4
:105618002b430000574d00004f440000455f000039
:1056280044450000463d0000310d00000a0000001e
:10563800415400002b43000049500000535400001f
:10564800415f000044450000463d00002231000053
:10565800302e0000323000002e31000034300000bf
:105668002e320000302200002c22000031300000d1
:105678002e320000302e000031340000302e0000a1
:10568800312200002c22000032350000352e0000a7
:1056980032350000352e000032350000342e00006f
:1056a800302200000d0a000000410000542b0000c9
:1056b80043490000504d00004f440000453d0000a4
:1056c800300d00000a000000415400002b43000088
:1056d800495000004d550000583d0000300d0000b5
:1056e8000a000000415400002b430000574400000a
:1056f80048430000505f000044450000463d00005c
:10570800312c0000310d00000a0000004154000057
:105718002b43000049500000444900004e46000059
:105728004f3d0000310d00000a0000004154000008
:105738002b520000465000004f5700004552000011
:105748003d380000320d00000a0000000000000093
:1057580000000000415400000d0a0000004f000046
:105768004b0000000a0000000d0a00004154000030
:105778002b43000049460000535200000d0a000068
:10578800003000002e3000002e3000002e300000c7
:10579800003a00005354000041490000502c00001a
:1057a800220000002573000000410000542b000077
:1057b8004349000050530000454e0000443d00009e
:1057c800256400002c22000025730000222c000014
:1057d800256400000d0a000000530000454e00003b
:1057e800442000004f4b000000530000454e0000cd
:1057f8004420000046410000494c000000450000dc
:10580800525200004f520000000d00000a4f0000e5
:105818004b0d00000a3e000000410000542b000020
:10582800435700004a410000505f00004445000013
:10583800463d000022250000732200002c220000b3
:1058480025730000220d00000a00000041540000ea
:105858002b430000574a0000415000005f440000fd
:10586800454600003d2c00000d0a000000410000e4
:10587800542b000052530000540d00000a00000091
:10588800415400002b4300004950000053540000cd
:10589800414d0000414300003f0d00000a00000098
:1058a8002b4300004950000053540000414d0000b4
:1058b800414300003a220000007900002e790000e0
:1058c8002e7900002e790000007800002e78000064
:1058d8002e7800002e78000000410000542b0000b4
:1058e8004349000050530000544100004d4100005e
:1058f800435f000044450000463d0000257300005a
:105908000d0a0000002b000049500000442c000044
:10591800002b000049500000440000000d0a000060
:105928002b4900005044000020250000642000009e
:105938002573000020250000643a000000310000b3
:10594800323300003400000031390000322e0000ec
:1059580031360000382e0000312e000031300000b2
:10596800310000005072000065730000656e000091
:10597800746500003f00000050720000657300006d
:10598800656e000074650000004500006e7600003a
:105998006961000072450000766500006e740000c1
:1059a8006f0000004f700000657200006164000025
:1059b8006f720000206f00006274000069640000cc
:1059c8006f0a000000430000696e0000746f000059
:1059d800207600006972000074750000616c000098
:1059e800206300006f6c00006f63000061640000ba
:1059f8006f000000436900006e7400006f20000013
:105a08007669000072740000756100006c20000067
:105a1800726500007469000072610000646f000024
:105a28000a000000506500006465000073740000ff
:105a3800726500002076000069720000747500002d
:105a4800616c000020610000646900006369000067
:105a58006f6e0000616400006f0a000000460000dd
:105a6800616c000068610000206100006f20000088
:105a78006f6200007465000072200000627200000e
:105a88006f6100006463000061730000740a000025
:105a9800004300006f6d0000616e0000646f00003d
:105aa800206e0000616f0000207200006563000036
:105ab8006f6e00006865000063690000646f000095
